:100000000C9446000C94EA090C94EA090C94600BD9
:100010000C94EA090C94EA090C94EA090C94F4098A
:100020000C9465000C9465000C94750A0C946500A2
:100030000C9465000C9465000C944A0A0C946500BD
:100040000C941F0A0C9465000C94F60A0C94210B76
:100050000C9465000C94CB0A0C9465000C9465001C
:100060000C9465000C9465000C9465000C9465007C
:100070000C9465000C94A00A0C944C0B0C94560B39
:100080000C9465000C9465000C94650011241FBE4F
:10009000CFEFD0E1DEBFCDBF11E0A0E0B1E0E2EFF5
:1000A000F6E200E00BBF02C007900D92AA3AB1073A
:1000B000D9F713E0AAEAB1E001C01D92A63EB1074C
:1000C000E1F70E9467000C9477130C94610BEF9298
:1000D0000F931F930E94320C0E94F90F88E10FB614
:1000E000F89481BD11BC0FBE0E94AC0B81E00E9450
:1000F000B50B24EF31E00DC000000000000000004F
:1001000000000000000000000197B1F721503040CE
:1001100019F088EE93E0F0CF87E00E948E0B60E04C
:1001200076E980E00E94D61066E070E081EB91E015
:100130000E94000DEE2401E028E040E056E960E076
:100140000E94410C20E045E150E060E071E00E9437
:10015000E10C67EA70E08EE592E00E94F60800E0AC
:1001600020E030E048ED50E060E00E94B0058C01F6
:100170006BE00E945103C8010E94500461E070E0EE
:10018000C8010E94400261E070E0C8010E94600264
:10019000C8010E94950367EA70E087EB91E00E9436
:1001A000091340E060E070E00E94DB127894FFCF1A
:1001B000CF92DF92FF920F931F93DF93CF93CDB730
:1001C000DEB7C058D0400FB6F894DEBF0FBECDBF2B
:1001D0006E010894C11CD11C20E040E8B6018EE5F8
:1001E00092E00E94BC04F82E882361F18EE30E9405
:1001F00072108F2D82958F700E94AF100E94721026
:100200008F2D8F700E94AF100E9472108AE30E949F
:1002100072108601F801808182958F700E94AF1064
:100220000E947210F80181918F018F700E94AF10AF
:100230000E947210802F8C198F1560F38AE00E9443
:100240007210CACFC058DF4F0FB6F894DEBF0FBE92
:10025000CDBFCF91DF911F910F91FF90DF90CF9095
:100260000895EF92FF920F931F93CF93DF93162F72
:10027000072FEA01882309F08DC0F89467E070E049
:1002800086E191E00E948B10E12FF02FDF010D90AD
:100290000020E9F71197AE1BBF0BBD01812F902FF6
:1002A0000E948B1088E20E94721080E30E947210FC
:1002B00088E70E9472107E018F2D82958F700E94B8
:1002C000AF100E9472108F2D8F700E94AF100E948D
:1002D0007210CE0124E0969587952A95E1F78F70EC
:1002E0000E94AF100E9472109E012F70822F0E94F8
:1002F000AF100E94721089E20E94721081E00E9489
:10030000B50B24EF31E00DC000000000000000003C
:1003100000000000000000000197B1F721503040BC
:1003200019F088EE93E0F0CF81E00E948E0B82E01E
:100330000E94B50B24EF31E00DC00000000000006A
:10034000000000000000000000000197B1F72150FC
:10035000304019F088EE93E0F0CF82E00E948E0BDF
:1003600084E00E94B50B24EF31E00DC000000000D6
:100370000000000000000000000000000197B1F73D
:100380002150304019F088EE93E0F0CF84E00E94D5
:100390008E0BB4CFDF91CF911F910F91FF90EF9013
:1003A0000895FC01818108950895FC01E857FF4FED
:1003B00080810895FC01E757FF4F80818F77089572
:1003C00020E0FC01E757FF4F808187FD21E0822F6D
:1003D00008950895FC018081882349F48AB78061DB
:1003E0008ABF8AB780628ABF89B7806489BF08954F
:1003F000FC018081882319F489B7807489BF08952E
:1004000008950895FC0144815581BC0187E090E086
:100410000E942C090895EF92FF920F931F93CF93A0
:10042000DF93EB01E42E122F032FFFB6F8940E9406
:10043000E90D9E0120682FB9779BFECF8FB1D6952D
:10044000C7959E01207C2FB9779BFECF8FB1812F5E
:10045000902F9C01F90190E006C080818FB9779BB5
:10046000FECF9F5F31969E15C0F30E94E70DFFBE41
:1004700081E0DF91CF911F910F91FF90EF90089550
:100480000F931F93DF93CF9300D0CDB7DEB78C01CE
:10049000CB017A8369830E942F109A8389839E01FE
:1004A0002F5F3F4F42E068E671E0C8010E940B02F7
:1004B00081E00F900F90CF91DF911F910F910895E0
:1004C0000F931F93DF93CF9300D0CDB7DEB78C018E
:1004D000CB017A8369830E942F109A8389839E01BE
:1004E0002F5F3F4F42E06AE671E0C8010E940B02B5
:1004F00081E00F900F90CF91DF911F910F910895A0
:10050000EF92FF920F931F93CF93DF93EB01E42EB3
:10051000122F032FFFB6F8940E94E90D9E01206868
:100520002FB9779BFECF8FB1D695C7959E01207EC0
:100530002FB9779BFECF8FB11FB8812F902F9C01D1
:10054000F90190E006C0779BFECF8FB181931FB871
:100550009F5F9E15C0F30E94E70DFFBE81E0DF9113
:10056000CF911F910F91FF90EF900895DF93CF935C
:1005700000D0CDB7DEB77A8369839E012F5F3F4FEE
:1005800042E068E671E00E94800281E00F900F90E7
:10059000CF91DF9108959B0142E06AE671E00E94ED
:1005A000800281E00895FF920F931F93DF93CF9312
:1005B00000D0CDB7DEB7162FFFB6F8940E94E90D34
:1005C00010641FB9779BFECF8FB11FB8779BFECF0A
:1005D0002FB11FB8779BFECF922F80E00FB19A8387
:1005E00089830E94E70DFFBE10E089819A81082B64
:1005F000192BC8010F900F90CF91DF911F910F9190
:10060000FF900895DF92EF92FF920F931F93162FA2
:10061000D42EF52EEFB6F8940E94E90D1FB9779B02
:10062000FECF0FB11F3030F0FFB8779BFECFDFB8A1
:10063000779BFECFEFBE0E94E70D802F1F910F9199
:10064000FF90EF90DF9008956430C9F0653038F482
:10065000623061F0633080F46130E9F40AC06630E2
:10066000A1F0663078F06730B1F412C047EE50EA7E
:1006700014C043EE50EA11C04BEE50EA0EC04FEEEC
:1006800050EA0BC043EF50EA08C047EF50EA05C0FC
:100690004BEF50EA02C04FEF50EA65E10E940203BF
:1006A00008951F93CF93DF93EC01162F90E0862FD0
:1006B0008B50803108F491E04FE755E06EE171E036
:1006C000892F0E943101812F90E00B97AC014B598B
:1006D0005E4B880F991F880F991F480F591FC556E9
:1006E000DF4F59834883CB59D04068E1CE010E9447
:1006F000020381E0DF91CF911F9108951F93CF9363
:10070000DF93EC01162F61E10E94D302AC011123AB
:1007100019F04061506101C0406161E1CE010E9469
:100720000203DF91CF911F910895FC01E357FF4F22
:1007300040815181577F5183408361E10E940203D0
:100740000895FC01E357FF4F408151815860518368
:10075000408361E10E9402030895FC01E357FF4FCB
:10076000408151814F7E5183408361E10E940203A9
:100770000895FC01E357FF4F40815181406151834F
:10078000408361E10E94020308950F931F93162F87
:100790000FB7F8940E94E90D1FB9779BFECF1FB1E8
:1007A0000E94E70D0FBF812F1F910F9108956DE0FB
:1007B0000E94C50308956CE00E94C50308956AE095
:1007C0000E94C503089569E00E94C50308950F9330
:1007D0001F938C0168E00E94C50368E0C8010E9475
:1007E000C50381E01F910F91089566E00E94C50343
:1007F00081E0089565E00E94C503089564E00E94C9
:10080000C503089563E00E94C503089562E00E9455
:10081000C5030895CF93DF93EC0160E0CE010E9401
:10082000C50386FFFACFDF91CF91089567E00E945C
:10083000C50381E008950E94160408951F93CF9385
:10084000DF93EC0161E00E94C50310E015C00000D9
:100850000000000000000000000000000000019700
:10086000B1F760E0CE010E94C50386FF02C081E0BF
:1008700007C01F5F183C19F084E690E0E8CF80E0E5
:10088000DF91CF911F9108950E941E04089564E0A6
:100890000E94C503089564E00E94C50381E00895A5
:1008A00063E00E94C50381E00895EF92FF920F93E9
:1008B0001F93CF93DF93EC017B01142F0E940A0456
:1008C0000FB7F8940E94E90D8FE78FB9779BFECFA1
:1008D0008FB1C657DF4F88831FB8779BFECF8FB18C
:1008E0008F77853030F41FB8779BFECF8FB110E043
:1008F00012C0811708F4182FF701808391E009C016
:100900001FB8779BFECF8FB1F701E90FF11D8083F0
:100910009F5F1917A8F70E94E70D0FBF812FDF9186
:10092000CF911F910F91FF90EF9008950E949D0D20
:1009300088E097E0000000000000000000000000D8
:10094000000000000197B1F781E008950E9496042D
:1009500008950E949B0D88E097E0000000000000D1
:10096000000000000000000000000197B1F781E0E6
:1009700008950E94A9040895DF92EF92FF920F93C9
:100980001F93CF93DF93EC017B018981813011F4B8
:10099000198204C0882311F0FF244BC0DFB6F894FD
:1009A0008F81882321F18F8190E0481708F091E032
:1009B0004AE953E06EE171E0892F0E9431014F81D5
:1009C0008E01085F1F4F50E0B801C7010E9433132A
:1009D000FF801F820E9B2CC020E040E8B801CE01B2
:1009E0000E9455048F838F81863010F10DC00E99BF
:1009F00002C0FF241DC020E0B701CE010E945504B3
:100A0000F82E85E08F15A0F4EF81F0E03297EC0F1F
:100A1000FD1F8085C857DF4F8883C858D040EF81BD
:100A2000F0E03197EC0FFD1F8085C757DF4F8883BB
:100A3000DFBE8F2DDF91CF911F910F91FF90EF902F
:100A4000DF900895CF92DF92EF92FF920F931F9362
:100A5000CF93DF93EC018B01F42ED22E81E08983BA
:100A6000842F85508B3710F0FF2435C020FF04C041
:100A7000FB01818180628183EFB6F8940E94E90DC9
:100A80008EE38FB9779BFECF8FB1C657DF4F888338
:100A9000CA58D040FFB8779BFECFF80191E006C05E
:100AA00081818FB9779BFECF9F5F3196F916C0F792
:100AB0000E94E70DEFBE0E94C50D892BE1F364E0B3
:100AC000CE010E94C5030E94D80D0197E1F70E9454
:100AD000D80D0197E1F3EF2CFF241982E114F10402
:100AE00021F1D0FE22C01F8200E010E038E0C32ECA
:100AF000D12CCC0EDD1E23C0000000000000000041
:100B000000000000000000000197B1F720E040E87D
:100B1000B601CE010E94BC04882339F40F5F1F4F39
:100B20000E3F110561F4EE24FF248E2DDF91CF914D
:100B30001F910F91FF90EF90DF90CF90089584E187
:100B400090E0DACFFC018081882319F489B78074A2
:100B500089BF87E00E94A00908950E94A205089518
:100B60002F923F924F925F926F927F928F929F92BD
:100B7000AF92BF92CF92DF92EF92FF920F931F93AB
:100B8000DF93CF9300D000D000D0CDB7DEB7FC010B
:100B90001082118253834283358324830683E8576E
:100BA000FF4F119211921082EA58F040FE83ED83BC
:100BB00017820E94D30E0E94BE0E0E94E10E0E9478
:100BC000970D0E94AA0D0E94F10D0E94BF0D0E9478
:100BD000D20D0E94E50D0E94050E1FB7F8940E94E9
:100BE000E10E0E94D30E0E94BE0E709A6C9A6B9812
:100BF0006A98699868986E9A1FBF8D819E810E943D
:100C0000A9040E948A0D84E690E000000000000024
:100C1000000000000000000000000197B1F70E94F2
:100C2000880D84E690E00000000000000000000055
:100C30000000000000000197B1F78D819E810E94A5
:100C40001E04882309F42DC082E00E94B50B24E61F
:100C500030E00DC0000000000000000000000000B7
:100C6000000000000197B1F72150304019F088EEE4
:100C700093E0F0CF82E00E948E0B28EE33E00EC0AE
:100C80000000000000000000000000000000000064
:100C90000197B1F72150304009F42FC088EE93E05E
:100CA000EFCF84E00E94B50B24E630E00DC00000D9
:100CB000000000000000000000000000000001979C
:100CC000B1F72150304019F088EE93E0F0CF84E086
:100CD0000E948E0B28EE33E00DC0000000000000E3
:100CE000000000000000000000000197B1F7215053
:100CF000304019F088EE93E0F0CF0D811E8105574A
:100D00001F4F20E038EFF80131832083ADE8EA2E51
:100D1000F12C8D819E81E80EF91E82EE92E0F701A2
:100D200091838083FFE8CF2ED12C8D819E81C80EC8
:100D3000D91E80E095E0F60191838083E1E9AE2E33
:100D4000B12C8D819E81A80EB91E80E890EEF50130
:100D50009183808373E9872E912C8D819E81880EEB
:100D6000991E8FE097EAF4019183808365E9662EEE
:100D7000712C8D819E81680E791E8FEF90E6F301B4
:100D80009183808357E9452E512C8D819E81480E99
:100D9000591E85EE92E1F2019183808349E9242E68
:100DA000312C8D819E81280E391E86E59AE0F10155
:100DB000918380838D819E8185569F4F9A838983FD
:100DC00085E691E4E981FA81918380838D819E811A
:100DD00083569F4F9C838B8384EC91E0EB81FC8155
:100DE000918380838D819E8181569F4FFC0111925A
:100DF0001192119211928FE790E081939193118259
:100E00001082E55AF040FE83ED83A90160E1CF0135
:100E10000E94020360E18D819E810E94D302F8014D
:100E2000208131818217930709F013C1F7014081B6
:100E3000518161E18D819E810E94020361E18D817A
:100E40009E810E94D302F70120813181821793078E
:100E500009F0FFC0F6014081518162E18D819E81E0
:100E60000E94020362E18D819E810E94D302F601FD
:100E7000208131818217930709F0EBC0F501408191
:100E8000518163E18D819E810E94020363E18D8126
:100E90009E810E94D302F501208131818217930740
:100EA00009F0D7C0F4014081518164E18D819E81B8
:100EB0000E94020364E18D819E810E94D302F401AD
:100EC000208131818217930709F0C3C0F30140816B
:100ED000518165E18D819E810E94020365E18D81D2
:100EE0009E810E94D302F3012081318182179307F2
:100EF00009F0AFC0F2014081518166E18D819E8190
:100F00000E94020366E18D819E810E94D302F2015C
:100F1000208131818217930709F09BC0F101408144
:100F2000518167E18D819E810E94020367E18D817D
:100F30009E810E94D302F1012081318182179307A3
:100F400009F087C0E981FA814081518168E18D8192
:100F50009E810E94020368E18D819E810E94D302DE
:100F6000E981FA81208131818217930709F071C0EC
:100F7000EB81FC814081518169E18D819E810E94DC
:100F8000020369E18D819E810E94D302EB81FC8185
:100F9000208131818217930709F05BC00D811E818A
:100FA00001561F4FF801408151816AE18D819E8178
:100FB0000E9402036AE18D819E810E94D302F801A2
:100FC000208131818217930709F043C00D811E8172
:100FD0000D551F4FF801408151816CE18D819E813B
:100FE0000E9402036CE18D819E810E94D302F80170
:100FF000208131818217930761F50D811E810B5588
:101000001F4FF801408151816DE18D819E810E94C9
:1010100002036DE18D819E810E94D302F80120813F
:10102000318182179307A9F469E08D819E810E9426
:10103000C50368E08D819E810E94C50368E08D81B3
:101040009E810E94C50382E00E94B50B24E630E039
:1010500013C084E00E94B50B28EE33E034C00000DA
:1010600000000000000000000000000000000197E8
:10107000B1F72150304019F088EE93E0F0CF82E0D4
:101080000E948E0B24E630E00EC00000000000003D
:10109000000000000000000000000197B1F721509F
:1010A000304009F429C088EE93E0EFCF0000000043
:1010B0000000000000000000000000000197B1F7F0
:1010C0002150304019F088EE93E0F0CF84E00E9488
:1010D0008E0B28EE33E00DC0000000000000000081
:1010E00000000000000000000197B1F721503040DF
:1010F00019F088EE93E0F0CF6BE08D819E810E9425
:1011000051038D819E810E94A10361E070E08D8179
:101110009E810E94400261E070E08D819E810E946C
:1011200060028D819E810E94AD038D819E810E940F
:1011300050048D819E810E940A044D815E816DEC78
:1011400078E087E00E948C09ED81FE818081882310
:1011500049F48AB780618ABF8AB780628ABF89B73B
:10116000806489BF8D819E8126960FB6F894DEBF7C
:101170000FBECDBFCF91DF911F910F91FF90EF90E8
:10118000DF90CF90BF90AF909F908F907F906F90A7
:101190005F904F903F902F900895CF93DF93EC0195
:1011A0000E94F90D892B59F40E9B09C068E0CE010D
:1011B0000E94C50368E0CE010E94C50314C0EA8105
:1011C000FB81309731F060E070E08C819D81099562
:1011D0000AC08F81BE01685F7F4F20E040E8CE01EA
:1011E0000E9455048F83DF91CF9108950F931F9331
:1011F000CF93DF93182F092FEB0180E0673A710539
:1012000008F081E047E450E06EE171E00E943101B6
:10121000AE0160E070E0812F902F0E944513812F76
:10122000902FDF91CF911F910F9108959093AC0172
:101230008093AB017093AE016093AD010895BC0142
:10124000E091AB01F091AC01309729F08091AD01B4
:101250009091AE0109950895DF93CF93CDB7DEB796
:1012600028970FB6F894DEBF0FBECDBF9C01E0916A
:10127000AB01F091AC013097A9F04115510521F473
:101280004091AD015091AE0158874F838091AD01DF
:101290009091AE017E836D833A832983BE016F5F97
:1012A0007F4F099528960FB6F894DEBF0FBECDBFCD
:1012B000CF91DF9108951092AA019093AC01809391
:1012C000AB017093AE016093AD0180EAE5E0F3E01D
:1012D000DF011D928A95E9F70895AC0188309105E8
:1012E00050F429B781E090E002C0880F991F4A9519
:1012F000E2F7282B29BF0895AC018830910558F4F6
:1013000029B781E090E002C0880F991F4A95E2F763
:101310008095822389BF0895282F30E02F71307087
:10132000F901EE0FFF1FEE0FFF1FE20FF31FEB5F40
:10133000FC4F80837283618354834383C901089582
:10134000282F30E02F713070F901EE0FFF1FEE0FE4
:10135000FF1FE20FF31FEB5FFC4F1082128211821E
:1013600014821382C9010895DB019A01482F50E0CD
:101370004F715070FA01EE0FFF1FEE0FFF1FE40FC9
:10138000F51FEB5FFC4F818192818D939C9383814C
:101390009481D9018D939C9381819281892B11F441
:1013A0004FEF5FEFCA01089590E08F719070FC01DC
:1013B000EE0FFF1FEE0FFF1FE80FF91FEB5FFC4F53
:1013C000218132812115310521F083819481F90138
:1013D000099508951F920F920FB60F9211240F9046
:1013E0000FBE0F901F9018951F920F920FB60F927D
:1013F0000BB60F9211242F933F934F935F936F93EC
:101400007F938F939F93AF93BF93EF93FF9360E08E
:1014100070E087E00E94D409FF91EF91BF91AF91F6
:101420009F918F917F916F915F914F913F912F91FC
:101430000F900BBE0F900FBE0F901F9018951F922C
:101440000F920FB60F920BB60F9211242F933F936A
:101450004F935F936F937F938F939F93AF93BF93BC
:10146000EF93FF9360E070E080E10E94D409FF9168
:10147000EF91BF91AF919F918F917F916F915F910C
:101480004F913F912F910F900BBE0F900FBE0F9079
:101490001F9018951F920F920FB60F920BB60F92D6
:1014A00011242F933F934F935F936F937F938F9369
:1014B0009F93AF93BF93EF93FF9360E070E08EE054
:1014C0000E94D409FF91EF91BF91AF919F918F91AD
:1014D0007F916F915F914F913F912F910F900BBE34
:1014E0000F900FBE0F901F9018951F920F920FB67E
:1014F0000F920BB60F9211242F933F934F935F934C
:101500006F937F938F939F93AF93BF93EF93FF93CB
:1015100060E070E08AE00E94D409FF91EF91BF91F2
:10152000AF919F918F917F916F915F914F913F917B
:101530002F910F900BBE0F900FBE0F901F9018951C
:101540001F920F920FB60F920BB60F9211242F938A
:101550003F934F935F936F937F938F939F93AF933B
:10156000BF93EF93FF9360E070E08DE10E94D40998
:10157000FF91EF91BF91AF919F918F917F916F916B
:101580005F914F913F912F910F900BBE0F900FBE27
:101590000F901F9018951F920F920FB60F920BB6D7
:1015A0000F9211242F933F934F935F936F937F93E9
:1015B0008F939F93AF93BF93EF93FF9360E070E09F
:1015C00085E10E94D409FF91EF91BF91AF919F9166
:1015D0008F917F916F915F914F913F912F910F90DC
:1015E0000BBE0F900FBE0F901F9018951F920F9279
:1015F0000FB60F920BB60F9211242F933F934F9378
:101600005F936F937F938F939F93AF93BF93EF936A
:10161000FF9360E070E082E10E94D409FF91EF91B6
:10162000BF91AF919F918F917F916F915F914F91FA
:101630003F912F910F900BBE0F900FBE0F901F90F8
:1016400018951F920F920FB60F920BB60F9211249E
:101650002F933F934F935F936F937F938F939F93BA
:10166000AF93BF93EF93FF9360E070E083E10E943C
:10167000D409FF91EF91BF91AF919F918F917F918D
:101680006F915F914F913F912F910F900BBE0F90F3
:101690000FBE0F901F9018951F920F920FB60F92CA
:1016A00011240F900FBE0F901F9018951F920F924C
:1016B0000FB60F9211240F900FBE0F901F90189528
:1016C00018951F920F920FB60F920BB60F9211241E
:1016D0002F933F934F935F936F937F938F939F933A
:1016E000AF93BF93EF93FF934EE751E06CE371E04C
:1016F00080E00E943101FF91EF91BF91AF919F91E6
:101700008F917F916F915F914F913F912F910F90AA
:101710000BBE0F900FBE0F901F901895282F80FFC3
:1017200006C0DA9A8091AF0181608093AF0121FFFA
:1017300006C0D99A8091AF0182608093AF0122FFE9
:1017400006C0D89A8091AF0184608093AF0108955C
:1017500087E00E948E0B08951092AF01D09AD19A23
:10176000D29A87E00E948E0B0895282F80FF06C032
:10177000DA988091AF018E7F8093AF0121FF06C080
:10178000D9988091AF018D7F8093AF0122FF06C071
:10179000D8988091AF018B7F8093AF010895662325
:1017A00019F00E948E0B08950E94B50B0895282F02
:1017B00080FF0BC09091AF0190FF03C0DA989E7F2D
:1017C00002C0DA9A91609093AF0121FF0BC0909113
:1017D000AF0191FF03C0D9989D7F02C0D99A926052
:1017E0009093AF0122FF0DC08091AF0182FF05C031
:1017F000D8988B7F8093AF010895D89A84608093A6
:10180000AF010895FF920F931F93CF93DF93F82EAC
:101810008B01EA014115510511F4CFEFDFEF87E0AD
:101820000E948E0B17C08F2D0E94D70B98010EC0FF
:1018300088EE93E0000000000000000000000000BF
:10184000000000000197B1F7215030401216130636
:101850007CF32197209739F7DF91CF911F910F915A
:10186000FF90089560E070E080E090E00E945B09E6
:10187000089560E070E080E090E00E945B090895C8
:101880000895EF920F93CF93DF93EC0168835A830F
:1018900049832B830C83ED82662329F06130A9F004
:1018A000C0E0D0E02AC01098119A86E9403058076D
:1018B00029F04050514E29F488E001C08CE089B9EC
:1018C00001C019B888E18AB918C09A0140E050E017
:1018D00084E0220F331F441F551F8A95D1F760E023
:1018E00072E18AE790E00E9455132150109298000F
:1018F0002093990088E180939A00CE01DF91CF91E7
:101900000F91EF9008950895FC01DB01E081EE2333
:1019100019F0E13079F404C05F9B0CC08CB106C0B3
:1019200080919B0087FF06C080919C008C9320E0F3
:1019300030E002C02FEF3FEFC9010895FC01E081C4
:10194000EE2321F0E13031F080E008955F9BFECF7F
:101950008CB1089580919B0087FFFCCF80919C0003
:101960000895FC01E081EE2319F0E13059F404C040
:101970005D9BFECF6CB906C080919B0085FFFCCFBC
:1019800060939C0080E090E00895FC01DB01E08121
:10199000EE2319F0E13079F404C05F9B0CC08CB1E8
:1019A00006C080919B0087FF06C080919C008C93AD
:1019B00020E030E002C02FEF3FEF2F5F3F4FC90123
:1019C0000895DC0120E030E016C0FB01E20FF31FB8
:1019D000E0818C91882319F0813059F404C05D9B1B
:1019E000FECFECB906C080919B0085FFFCCFE09351
:1019F0009C002F5F3F4F2417350738F3CA01089525
:101A00000F931F93CF93DF93182F092FEB0180E0E3
:101A10006630710508F081E044E750E06DE571E063
:101A20000E943101AE0160E070E0812F902F0E9492
:101A30004513812F902FDF91CF911F910F91089522
:101A4000DA9A0895DA98089529B330E03695279503
:101A50003695279521703070C9010895D29A08955E
:101A6000D2980895D99A0895D998089529B330E065
:101A70003695279521703070C9010895D19A08953F
:101A8000D1980895D89A0895D898089529B330E048
:101A900021703070C9010895D09A0895D0980895A2
:101AA000DC9A0895DC98089529B330E044E0369537
:101AB00027954A95E1F721703070C9010895D49AAD
:101AC0000895D4980895DD9A0895DD98089529B36E
:101AD00030E055E0369527955A95E1F72170307042
:101AE000C9010895D59A0895D5980895DF9A089563
:101AF000DF98089529B3332727FD30952227330F28
:101B0000221F3327C9010895D79A0895D7980895B9
:101B1000DE9A0895DE98089529B330E076E0369590
:101B200027957A95E1F721703070C9010895D69A0A
:101B30000895D6980895DD9A0895DD98089529B3FB
:101B400030E0E5E036952795EA95E1F721703070B1
:101B5000C9010895D59A0895D59808951E9A0895B3
:101B60001E98089521B130E0F6E036952795FA9554
:101B7000E1F721703070C9010895169A08951698FA
:101B80000895969A08959698089520B330E0A6E0B7
:101B900036952795AA95E1F721703070C90108950F
:101BA0008E9A08958E980895949A08959498089519
:101BB00020B330E0B4E036952795BA95E1F721706F
:101BC0003070C90108958C9A08958C980895C09A30
:101BD0000895C098089526B330E021703070C9018F
:101BE0000895B89A0895B8980895C79A0895C7981F
:101BF000089526B3332727FD30952227330F221F60
:101C00003327C9010895BF9A0895BF980895969AF9
:101C100008959698089520B330E096E0369527957C
:101C20009A95E1F721703070C90108958E9A089550
:101C30008E980895DB9A0895DB98089529B330E0D3
:101C400043E0369527954A95E1F721703070C90138
:101C50000895D39A0895D3980895959A08959598DC
:101C6000089520B330E055E0369527955A95E1F771
:101C700021703070C90108958D9A08958D98089546
:101C8000939A08959398089520B330E063E03695D1
:101C900027956A95E1F721703070C90108958B9AF4
:101CA00008958B980895929A08959298089520B374
:101CB00030E0369527953695279521703070C9010B
:101CC00008958A9A08958A9808951C9A08951C98F0
:101CD000089521B130E0E4E036952795EA95E1F7E3
:101CE00021703070C9010895149A089514980895C8
:101CF0001D9A08951D98089521B130E0F5E03695BC
:101D00002795FA95E1F721703070C9010895159A69
:101D10000895159808951E9A08951E98089521B162
:101D200030E0A6E036952795AA95E1F7217030704E
:101D3000C9010895169A0895169808951F9A08954E
:101D40001F98089521B1332727FD30952227330F9F
:101D5000221F3327C9010895179A089517980895E7
:101D6000C29A0895C298089526B330E03695279513
:101D70003695279521703070C9010895BA9A089553
:101D8000BA980895C39A0895C398089526B330E089
:101D900093E0369527959A95E1F721703070C90147
:101DA0000895BB9A0895BB980895C19A0895C19863
:101DB000089526B330E03695279521703070C9011B
:101DC0000895B99A0895B9980895A89A0895A89879
:101DD000089523B330E021703070C9010895A09AAE
:101DE0000895A0980895A99A0895A998089523B3ED
:101DF00030E03695279521703070C9010895A19A79
:101E00000895A1980895AA9A0895AA98089523B3C9
:101E100030E0369527953695279521703070C901A9
:101E20000895A29A0895A2980895AB9A0895AB9840
:101E3000089523B330E073E0369527957A95E1F75E
:101E400021703070C9010895A39A0895A398089548
:101E5000AC9A0895AC98089523B330E0E4E0369549
:101E60002795EA95E1F721703070C9010895A49A89
:101E70000895A4980895AD9A0895AD98089523B350
:101E800030E0F5E036952795FA95E1F7217030704E
:101E9000C9010895A59A0895A5980895AE9A089540
:101EA000AE98089523B330E0A6E036952795AA951D
:101EB000E1F721703070C9010895A69A0895A69897
:101EC0000895AF9A0895AF98089523B3332727FD57
:101ED00030952227330F221F3327C9010895A79A6F
:101EE0000895A7980895909A08959098089520B31A
:101EF00030E021703070C9010895889A089588985B
:101F00000895919A08959198089520B330E03695F8
:101F1000279521703070C9010895899A089589988C
:101F20000895189A08951898089521B130E0217005
:101F30003070C9010895109A089510980895199A5B
:101F400008951998089521B130E0369527952170AC
:101F50003070C9010895119A0895119808951A9A38
:101F600008951A98089521B130E036952795369551
:101F7000279521703070C9010895129A089512981A
:101F80000895929A08959298089520B330E0369576
:101F900027953695279521703070C90108958A9A42
:101FA00008958A980895939A08959398089520B370
:101FB00030E063E0369527956A95E1F7217030703F
:101FC000C90108958B9A08958B980895959A08955C
:101FD0009598089520B330E075E0369527957A9569
:101FE000E1F721703070C90108958D9A08958D9898
:101FF0000895D29AD09AD19AA79AA69AA59AA49A05
:10200000A39AA29AA19AA09ABB98BA9AB99AD69A78
:10201000D59AB89816988E988C98BF988E98D49820
:10202000DC98D39A8B9A8D9ADB9ADA9AD89AD99AB5
:102030000895DF93CF9300D0CDB7DEB781E08983D9
:102040001A8220E030E089819A81019711F421E021
:1020500030E0C9010F900F90CF91DF910895DF9389
:10206000CF9300D0CDB7DEB79C0181E089831A827F
:1020700089819A81019719F0822F232F382FC90166
:102080000F900F90CF91DF910895DF93CF9300D001
:10209000CDB7DEB79C0181E089831A8289819A815C
:1020A000019719F0822F232F382FC9010F900F901D
:1020B000CF91DF910895882309F460E0862F089579
:1020C000442309F420E0662309F420E0882309F47E
:1020D00020E0822F08951092A50308955F9BFECF04
:1020E0008CB108955D9BFECF8CB90895E82FE295E1
:1020F000EF70F0E0E758FE4FE0815D9BFECFECB95A
:10210000E82FF0E0EF70F070E758FE4F80815D9BA4
:10211000FECF8CB9089520E030E009C0FC01E20F49
:10212000F31FE0815D9BFECFECB92F5F3F4F261779
:102130003707A0F308958091A503482F50E0E6EA01
:10214000F3E020E030E007C090815D9BFECF9CB9BA
:102150002F5F3F4F319624173507B0F30895E82FCE
:10216000F0E0EF70F070E758FE4F80810895CF9354
:10217000DF93DC01E091A50340E450E04E1B5109E0
:10218000EB014617570708F4EA018E2F90E0AE01E5
:10219000BD018A559C4F0E9433138091A5038C0F7B
:1021A0008093A503CE01DF91CF9108958091B00176
:1021B000882381F481E4E5EAF3E0DF011D928A954A
:1021C000E9F71098119A8CE089B988E18AB981E021
:1021D0008093B00108950895FC01A181B2811C9201
:1021E000148284E086830895FC01148284E086834F
:1021F0001086178212861186148613861686158617
:10220000108A1786128A118A148A138A168A158AE6
:1022100011A210A213A212A214A216A215A2108E2D
:10222000178A128E118E148E138E168E158E178E9F
:102230000895DC011196ED91FC91129780818F5FDA
:1022400014968C931497FB01808311968C911197AF
:1022500012969C910895CF92DF92EF92FF920F9386
:102260001F93CF93DF938C01C62ED42E7901DC010E
:102270001196CD91DC911297662369F050E060E0F1
:1022800070E0CE010E944513DA94D882D394E9829B
:10229000FA82A8011BC0442311F4D880D3948D2D59
:1022A00085508A3710F4A80105C01882F8011482FD
:1022B00040E050E0D8011196ED91FC911297928187
:1022C00080E02181E22EFF24E82AF92A41155105F8
:1022D00009F4C9C0F801D4828E2D877086832196B7
:1022E000D087C7832296D287C1872397CC2009F451
:1022F000E3C01B82E1C02496D8011C96DC93CE93E8
:102300001B9724971E961C921E921D9750961C9206
:102310001E921F9726E0E3C02496F801D487C38756
:102320002296D687C5872697108A178628E0D7C0B9
:102330002496D8011C96DC93CE931B971E961C9274
:102340001E921D9722965096DC93CE931F97269748
:102350002EE0C5C0F8011486138616861586108AED
:1023600017864EE051E03DC0D80152961C921E9255
:10237000519754961C921E92539756961C921E92F9
:102380005597BFC0CE01820F911DF801928B818BB2
:102390002E5FCE01820F911D948B838B2E5F168A48
:1023A000158AAFC0CE01820F911DD80152969C9321
:1023B0008E9351972E5F54961C921E925397CE0186
:1023C000820F911D56969C938E935597285F99C0C6
:1023D000F801128A118A148A138A168A158A45E32B
:1023E00051E069E871E080E00E9431013CC0CE011B
:1023F000820F911DD80158969C938E9357972E5F0C
:102400005A961C921E9259975C961C921E925B974C
:102410005E961C921E925D975F961C925F97CE010E
:10242000820F911D93969C938E9392977DC0CE01BF
:10243000820F911DF80110C0D80193961C921E9234
:10244000929772C0CE01820F911DF80191A380A3D3
:102450002F5FCE01820F911D93A382A365C084E0FC
:10246000D80116968C93D8011196ED91FC91129794
:10247000108214961C9240E050E014C09D2D9250A2
:10248000892F821BF80184A3C90FD11DD6A3C5A330
:1024900009C0D21AD8019496DC92949796961C9211
:1024A0001E929597CA01DF91CF911F910F91FF90D6
:1024B000EF90DF90CF900895C70180709C70892FB6
:1024C0009927869586958230910509F425CF83302A
:1024D000910509F42DCF892B09F40DCF3BCFC7010E
:1024E00084E0989F812D992711248230910509F469
:1024F00049CF8330910509F455CF892B09F434CFA6
:1025000067CFC701877090708130910509F48FCF34
:102510008130910508F46BCF8230910509F48CCF9E
:10252000039709F09CCF8ECFE5FCA8CFB2CF0F93D5
:10253000FC01462F058120E030E060E00E942B1175
:1025400020E0892B09F021E0822F0F910895CF938D
:10255000DF93FC01EB01408150E0BC01CE010E9401
:1025600033136C81662319F0CE010E94971281E02B
:10257000DF91CF910895CF93DF93EC01488150E034
:102580000E9433136C81662319F0CE010E949712CA
:1025900081E0DF91CF9108950F93FC019A010581AD
:1025A000462F61E00E942B1120E0892B09F021E0E9
:1025B000822F0F910895EF92FF920F93CF93DF93A5
:1025C000EC017B01042F90E08881883208F091E0D3
:1025D00047E250E069E871E0892F0E9431011C82D6
:1025E00084E08E830D83E114F10459F08E2D877001
:1025F0008E834B81970161E0CE010E942B11EC018B
:1026000001C08E83CE01DF91CF910F91FF90EF90AB
:102610000895EF92FF921F93CF93DF93EC017B011C
:1026200080E06832710508F081E04FE050E069E831
:1026300071E00E9431011E2DA70160E070E0CE0123
:102640000E944513E882CE0187969A8389831752A8
:102650001B831C8284E08E83CE01DF91CF911F917A
:10266000FF90EF9008956817790768F4FB01DC018B
:10267000E40FF51FA40FB51F02C002900E92415047
:102680005040D8F708950C944C13DC0101C06D93B1
:1026900041505040E0F70895FB01DC0102C0019079
:1026A0000D9241505040D8F70895A1E21A2EAA1B6E
:1026B000BB1BFD010DC0AA1FBB1FEE1FFF1FA217F2
:1026C000B307E407F50720F0A21BB30BE40BF50BEF
:1026D000661F771F881F991F1A9469F76095709578
:1026E000809590959B01AC01BD01CF010895F894B0
:0226F000FFCF1A
:1026F20077656C636F6D6520746F20736E696666B3
:1027020065722E2E2E006173736572743A002E2E3E
:102712002F2E2E2F636F6D6D6F6E2F68616C2F6879
:10272200616C5F6363323432302E63002E2E2F2EA3
:102732002E2F636F6D6D6F6E2F68616C2F68616CE9
:102742005F696E746572727570742E63002E2E2F1F
:102752002E2E2F636F6D6D6F6E2F68616C2F686107
:102762006C5F756172742E630030313233343536EA
:102772003738394142434445462E2E2F2E2E2F63A1
:102782006F6D6D6F6E2F72746C2F72746C5F6F70E1
:0A279200656E6672616D652E6300CE
:00000001FF
