:100000000C9446000C9436020C9436020C94AC030B
:100010000C9436020C9436020C9436020C94400276
:100020000C9465000C9465000C94C1020C9465005E
:100030000C9465000C9465000C9496020C94650079
:100040000C946B020C9465000C9442030C946D03A9
:100050000C9465000C9417030C9465000C946500D7
:100060000C9465000C9465000C9465000C9465007C
:100070000C9465000C94EC020C9498030C94A2036D
:100080000C9465000C9465000C94650011241FBE4F
:10009000CFEFD0E1DEBFCDBF11E0A0E0B1E0E8E2FC
:1000A000F2E100E00BBF02C007900D92AA33B10746
:1000B000D9F712E0AAE3B1E001C01D92A232B10764
:1000C000E1F70E9467000C9412090C94AD030E94A2
:1000D0006C0080E090E00895CF93DF930E947E044F
:1000E0000E94F80387E00E94010428EE33E00DC06F
:1000F0000000000000000000000000000000000000
:100100000197B1F72150304019F088EE93E0F0CF1D
:1001100087E00E94DA03C0E0D0E081E00E94DA03C9
:100120002CE231E00DC000000000000000000000E3
:100130000000000000000197B1F72150304019F095
:1001400088EE93E0F0CF81E00E9401042CE231E0E0
:100150000DC00000000000000000000000000000D2
:1001600000000197B1F72150304019F088EE93E07C
:10017000F0CF2196C330D10509F0CFCF81E00E94A6
:10018000DA03C0E0D0E082E00E94DA032CE231E042
:100190000DC0000000000000000000000000000092
:1001A00000000197B1F72150304019F088EE93E03C
:1001B000F0CF82E00E9401042CE231E00DC000008B
:1001C0000000000000000000000000000000019797
:1001D000B1F72150304019F088EE93E0F0CF21962E
:1001E000C330D10509F0CFCF82E00E94DA03C0E02E
:1001F000D0E084E00E94DA032CE231E00DC0000080
:100200000000000000000000000000000000019756
:10021000B1F72150304019F088EE93E0F0CF84E040
:100220000E9401042CE231E00DC00000000000003B
:10023000000000000000000000000197B1F721500D
:10024000304019F088EE93E0F0CF2196C330D1050D
:1002500009F0CFCF84E00E94DA0387E00E94DA033E
:10026000C0E0D0E081E00E94230484E00E942304E7
:1002700082E00E94230424EF31E00DC00000000062
:100280000000000000000000000000000197B1F72E
:100290002150304019F088EE93E0F0CF2196C33022
:1002A000D10501F787E00E94DA0345E050E06CE2F7
:1002B00071E084E00E944E0484E00E94DA03DF9142
:1002C000CF91089590933C0180933B0170933E0140
:1002D00060933D010895BC01E0913B01F0913C0128
:1002E000309729F080913D0190913E010995089544
:1002F000DF93CF93CDB7DEB728970FB6F894DEBF64
:100300000FBECDBF9C01E0913B01F0913C013097C5
:10031000A9F04115510521F440913D0150913E0154
:1003200058874F8380913D0190913E017E836D837C
:100330003A832983BE016F5F7F4F099528960FB6D8
:10034000F894DEBF0FBECDBFCF91DF91089510921C
:100350003A0190933C0180933B0170933E0160937E
:100360003D0180EAE1E4F1E0DF011D928A95E9F7C1
:100370000895AC018830910550F429B781E090E0F0
:1003800002C0880F991F4A95E2F7282B29BF0895CC
:10039000AC018830910558F429B781E090E002C0A3
:1003A000880F991F4A95E2F78095822389BF0895A7
:1003B000282F30E02F713070F901EE0FFF1FEE0F84
:1003C000FF1FE20FF31FEF5BFE4F80837283618399
:1003D00054834383C9010895282F30E02F71307072
:1003E000F901EE0FFF1FEE0FFF1FE20FF31FEF5B90
:1003F000FE4F10821282118214821382C901089565
:10040000DB019A01482F50E04F715070FA01EE0F56
:10041000FF1FEE0FFF1FE40FF51FEF5BFE4F818103
:1004200092818D939C9383819481D9018D939C9328
:1004300081819281892B11F44FEF5FEFCA010895FA
:1004400090E08F719070FC01EE0FFF1FEE0FFF1F09
:10045000E80FF91FEF5BFE4F218132812115310535
:1004600021F083819481F901099508951F920F92DB
:100470000FB60F9211240F900FBE0F901F9018957A
:100480001F920F920FB60F920BB60F9211242F935B
:100490003F934F935F936F937F938F939F93AF930C
:1004A000BF93EF93FF9360E070E087E00E9420022B
:1004B000FF91EF91BF91AF919F918F917F916F913C
:1004C0005F914F913F912F910F900BBE0F900FBEF8
:1004D0000F901F9018951F920F920FB60F920BB6A8
:1004E0000F9211242F933F934F935F936F937F93BA
:1004F0008F939F93AF93BF93EF93FF9360E070E070
:1005000080E10E942002FF91EF91BF91AF919F91F6
:100510008F917F916F915F914F913F912F910F90AC
:100520000BBE0F900FBE0F901F9018951F920F9249
:100530000FB60F920BB60F9211242F933F934F9348
:100540005F936F937F938F939F93AF93BF93EF933B
:10055000FF9360E070E08EE00E942002FF91EF9137
:10056000BF91AF919F918F917F916F915F914F91CB
:100570003F912F910F900BBE0F900FBE0F901F90C9
:1005800018951F920F920FB60F920BB60F9211246F
:100590002F933F934F935F936F937F938F939F938B
:1005A000AF93BF93EF93FF9360E070E08AE00E9407
:1005B0002002FF91EF91BF91AF919F918F917F9119
:1005C0006F915F914F913F912F910F900BBE0F90C4
:1005D0000FBE0F901F9018951F920F920FB60F929B
:1005E0000BB60F9211242F933F934F935F936F930A
:1005F0007F938F939F93AF93BF93EF93FF9360E0AD
:1006000070E08DE10E942002FF91EF91BF91AF91C8
:100610009F918F917F916F915F914F913F912F911A
:100620000F900BBE0F900FBE0F901F9018951F924A
:100630000F920FB60F920BB60F9211242F933F9388
:100640004F935F936F937F938F939F93AF93BF93DA
:10065000EF93FF9360E070E085E10E942002FF913C
:10066000EF91BF91AF919F918F917F916F915F912A
:100670004F913F912F910F900BBE0F900FBE0F9097
:100680001F9018951F920F920FB60F920BB60F92F4
:1006900011242F933F934F935F936F937F938F9387
:1006A0009F93AF93BF93EF93FF9360E070E082E17D
:1006B0000E942002FF91EF91BF91AF919F918F9186
:1006C0007F916F915F914F913F912F910F900BBE52
:1006D0000F900FBE0F901F9018951F920F920FB69C
:1006E0000F920BB60F9211242F933F934F935F936A
:1006F0006F937F938F939F93AF93BF93EF93FF93EA
:1007000060E070E083E10E942002FF91EF91BF91D1
:10071000AF919F918F917F916F915F914F913F9199
:100720002F910F900BBE0F900FBE0F901F9018953A
:100730001F920F920FB60F9211240F900FBE0F90C1
:100740001F9018951F920F920FB60F9211240F90C1
:100750000FBE0F901F90189518951F920F920FB60D
:100760000F920BB60F9211242F933F934F935F93E9
:100770006F937F938F939F93AF93BF93EF93FF9369
:100780004EE751E060E071E080E00E94D707FF9102
:10079000EF91BF91AF919F918F917F916F915F91F9
:1007A0004F913F912F910F900BBE0F900FBE0F9066
:1007B0001F901895282F80FF06C0DA9A80913F017C
:1007C000816080933F0121FF06C0D99A80913F014B
:1007D000826080933F0122FF06C0D89A80913F013A
:1007E000846080933F01089587E00E94DA030895B2
:1007F00010923F01D09AD19AD29A87E00E94DA03F0
:100800000895282F80FF06C0DA9880913F018E7FDF
:1008100080933F0121FF06C0D99880913F018D7FD1
:1008200080933F0122FF06C0D89880913F018B7FC3
:1008300080933F010895662319F00E94DA0308951A
:100840000E9401040895282F80FF0BC090913F0162
:1008500090FF03C0DA989E7F02C0DA9A916090936D
:100860003F0121FF0BC090913F0191FF03C0D99838
:100870009D7F02C0D99A926090933F0122FF0DC0E4
:1008800080913F0182FF05C0D8988B7F80933F0104
:100890000895D89A846080933F010895FF920F9342
:1008A0001F93CF93DF93F82E8B01EA014115510579
:1008B00011F4CFEFDFEF87E00E94DA0317C08F2D2E
:1008C0000E94230498010EC088EE93E0000000000F
:1008D0000000000000000000000000000197B1F7D8
:1008E00021503040121613067CF32197209739F7D8
:1008F000DF91CF911F910F91FF90089560E070E01C
:1009000080E090E00E94A701089560E070E080E040
:1009100090E00E94A7010895DA9A0895DA98089560
:1009200029B330E03695279536952795217030709C
:10093000C9010895D29A0895D2980895D99A089530
:10094000D998089529B330E03695279521703070F5
:10095000C9010895D19A0895D1980895D89A089513
:10096000D898089529B330E021703070C9010895F6
:10097000D09A0895D0980895DC9A0895DC98089547
:1009800029B330E044E0369527954A95E1F7217088
:100990003070C9010895D49A0895D4980895DD9AC5
:1009A0000895DD98089529B330E055E036952795F0
:1009B0005A95E1F721703070C9010895D59A0895CC
:1009C000D5980895DF9A0895DF98089529B33327BD
:1009D00027FD30952227330F221F3327C9010895A1
:1009E000D79A0895D7980895DE9A0895DE980895C5
:1009F00029B330E076E0369527957A95E1F72170B6
:100A00003070C9010895D69A0895D6980895DD9A50
:100A10000895DD98089529B330E0E5E036952795EF
:100A2000EA95E1F721703070C9010895D59A0895CB
:100A3000D59808951E9A08951E98089521B130E022
:100A4000F6E036952795FA95E1F721703070C901E7
:100A50000895169A089516980895969A0895969866
:100A6000089520B330E0A6E036952795AA95E1F7E2
:100A700021703070C90108958E9A08958E98089556
:100A8000949A08959498089520B330E0B4E0369590
:100A90002795BA95E1F721703070C90108958C9AB5
:100AA00008958C980895C09A0895C098089526B323
:100AB00030E021703070C9010895B89A0895B8984F
:100AC0000895C79A0895C798089526B3332727FD38
:100AD00030952227330F221F3327C9010895BF9A6B
:100AE0000895BF980895969A08959698089520B30A
:100AF00030E096E0369527959A95E1F721703070B1
:100B0000C90108958E9A08958E980895DB9A0895E4
:100B1000DB98089529B330E043E0369527954A9550
:100B2000E1F721703070C9010895D39A0895D398E0
:100B30000895959A08959598089520B330E055E06A
:100B4000369527955A95E1F721703070C9010895BF
:100B50008D9A08958D980895939A0895939808957D
:100B600020B330E063E0369527956A95E1F7217070
:100B70003070C90108958B9A08958B980895929AC0
:100B800008959298089520B330E0369527953695CC
:100B9000279521703070C90108958A9A08958A981E
:100BA00008951C9A08951C98089521B130E0E4E05E
:100BB00036952795EA95E1F721703070C9010895BF
:100BC000149A0895149808951D9A08951D980895EB
:100BD00021B130E0F5E036952795FA95E1F72170DF
:100BE0003070C9010895159A0895159808951E9AB0
:100BF00008951E98089521B130E0A6E03695279516
:100C0000AA95E1F721703070C9010895169A0895E8
:100C1000169808951F9A08951F98089521B13327B3
:100C200027FD30952227330F221F3327C90108954E
:100C3000179A089517980895C29A0895C29808952A
:100C400026B330E03695279536952795217030707C
:100C5000C9010895BA9A0895BA980895C39A089553
:100C6000C398089526B330E093E0369527959A957A
:100C7000E1F721703070C9010895BB9A0895BB98BF
:100C80000895C19A0895C198089526B330E0369525
:100C9000279521703070C9010895B99A0895B998BF
:100CA0000895A89A0895A898089523B330E0217074
:100CB0003070C9010895A09A0895A0980895A99A3E
:100CC0000895A998089523B330E0369527952170AB
:100CD0003070C9010895A19A0895A1980895AA9A1B
:100CE0000895AA98089523B330E036952795369550
:100CF000279521703070C9010895A29A0895A2988D
:100D00000895AB9A0895AB98089523B330E073E04B
:100D1000369527957A95E1F721703070C9010895CD
:100D2000A39A0895A3980895AC9A0895AC9808954D
:100D300023B330E0E4E036952795EA95E1F721709A
:100D40003070C9010895A49A0895A4980895AD9AA1
:100D50000895AD98089523B330E0F5E036952795D2
:100D6000FA95E1F721703070C9010895A59A0895A8
:100D7000A5980895AE9A0895AE98089523B330E0EB
:100D8000A6E036952795AA95E1F721703070C90144
:100D90000895A69A0895A6980895AF9A0895AF98D1
:100DA000089523B3332727FD30952227330F221FC1
:100DB0003327C9010895A79A0895A7980895909A8E
:100DC00008959098089520B330E021703070C901E3
:100DD0000895889A089588980895919A0895919809
:100DE000089520B330E03695279521703070C90101
:100DF0000895899A089589980895189A08951898D9
:100E0000089521B130E021703070C9010895109A21
:100E1000089510980895199A08951998089521B180
:100E200030E03695279521703070C9010895119AE8
:100E30000895119808951A9A08951A98089521B15D
:100E400030E0369527953695279521703070C90189
:100E50000895129A089512980895929A0895929872
:100E6000089520B330E03695279536952795217063
:100E70003070C90108958A9A08958A980895939ABE
:100E800008959398089520B330E063E03695279550
:100E90006A95E1F721703070C90108958B9A089521
:100EA0008B980895959A08959598089520B330E009
:100EB00075E0369527957A95E1F721703070C90174
:100EC00008958D9A08958D980895D29AD09AD19ABE
:100ED000A79AA69AA59AA49AA39AA29AA19AA09A26
:100EE000BB98BA9AB99AD69AD59AB89816988E9805
:100EF0008C98BF988E98D498DC98D39A8B9A8D9AB8
:100F0000DB9ADA9AD89AD99A0895DF93CF9300D0D2
:100F1000CDB7DEB781E089831A8220E030E0898195
:100F20009A81019711F421E030E0C9010F900F90F0
:100F3000CF91DF910895DF93CF9300D0CDB7DEB787
:100F40009C0181E089831A8289819A81019719F035
:100F5000822F232F382FC9010F900F90CF91DF914F
:100F60000895DF93CF9300D0CDB7DEB79C0181E029
:100F700089831A8289819A81019719F0822F232F00
:100F8000382FC9010F900F90CF91DF9108958823DA
:100F900009F460E0862F0895442309F420E06623D5
:100FA00009F420E0882309F420E0822F0895EF92CD
:100FB000FF920F931F93CF93DF93162F072FEA0112
:100FC000882309F08DC0F89467E070E081E291E039
:100FD0000E949708E12FF02FDF010D900020E9F724
:100FE0001197AE1BBF0BBD01812F902F0E94970858
:100FF00088E20E947E0880E30E947E0888E70E94C3
:101000007E087E018F2D82958F700E94BB080E9402
:101010007E088F2D8F700E94BB080E947E08CE0133
:1010200024E0969587952A95E1F78F700E94BB087A
:101030000E947E089E012F70822F0E94BB080E9492
:101040007E0889E20E947E0881E00E94010424EF6C
:1010500031E00DC0000000000000000000000000B2
:10106000000000000197B1F72150304019F088EEE0
:1010700093E0F0CF81E00E94DA0382E00E94010455
:1010800024EF31E00DC0000000000000000000006F
:101090000000000000000197B1F72150304019F026
:1010A00088EE93E0F0CF82E00E94DA0384E00E94B1
:1010B000010424EF31E00DC000000000000000003A
:1010C00000000000000000000197B1F721503040FF
:1010D00019F088EE93E0F0CF84E00E94DA03B4CFF9
:1010E000DF91CF911F910F91FF90EF900895109293
:1010F000E10108955F9BFECF8CB108955D9BFECF0B
:101100008CB90895E82FE295EF70F0E0E75DFE4FAF
:10111000E0815D9BFECFECB9E82FF0E0EF70F0705E
:10112000E75DFE4F80815D9BFECF8CB9089520E086
:1011300030E009C0FC01E20FF31FE0815D9BFECFB0
:10114000ECB92F5F3F4F26173707A0F30895809122
:10115000E101482F50E0E2EEF1E020E030E007C08E
:1011600090815D9BFECF9CB92F5F3F4F3196241736
:101170003507B0F30895E82FF0E0EF70F070E75D09
:10118000FE4F80810895CF93DF93DC01E091E10170
:1011900040E450E04E1B5109EB014617570708F495
:1011A000EA018E2F90E0AE01BD018E519E4F0E944C
:1011B000F7088091E1018C0F8093E101CE01DF916E
:1011C000CF91089580914001882381F481E4E1EE7C
:1011D000F1E0DF011D928A95E9F71098119A8CE0F1
:1011E00089B988E18AB981E0809340010895681740
:1011F000790768F4FB01DC01E40FF51FA40FB51FAC
:1012000002C002900E9241505040D8F708950C94BD
:101210000909FB01DC0102C001900D9241505040D0
:08122000D8F70895F894FFCF00
:101228002E2E2F2E2E2F636F6D6D6F6E2F68616CB3
:101238002F68616C5F696E746572727570742E6365
:10124800006173736572743A003031323334353665
:0A125800373839414243444546004F
:00000001FF
