:100000000C9446000C94A6090C94A6090C94C80BF9
:100010000C94A6090C94A6090C94A6090C94B0099A
:100020000C9465000C94B20A0C94870A0C94650039
:100030000C945C0A0C9465000C94310A0C94060A2A
:100040000C94DB090C9465000C945E0B0C94890BEA
:100050000C9465000C94330B0C9465000C946500B3
:100060000C9465000C9465000C94080B0C946500CE
:100070000C9465000C94DD0A0C94B40B0C94BE0B2C
:100080000C9465000C9465000C94650011241FBE4F
:10009000CFEFD0E1DEBFCDBF12E0A0E0B1E0ECE6F3
:1000A000FBE300E00BBF02C007900D92A83FB10731
:1000B000D9F716E0A8EFB2E001C01D92A333B10753
:1000C000E1F70E94CA190C94B41D0C94C90BCF928D
:1000D000DF92EF92FF920F931F938B01882309F019
:1000E00092C0C52EC2946FE0C6223FE0D32ED52227
:1000F000CA0124E0969587952A95E1F79FE0E92EBD
:10010000E8228FE0F82EF422F89467E070E080E0B7
:1001100091E00E947C08F80101900020E9F73197F6
:10012000E01BF10B6E2F70E0C8010E947C0888E292
:100130000E94630880E30E94630888E70E946308C6
:100140008C2D0E94C5080E9463088D2D0E94C50851
:100150000E9463088E2D0E94C5080E9463088F2D9F
:100160000E94C5080E94630889E20E94630881E03A
:100170000E941D0C24EF31E00DC0000000000000C3
:10018000000000000000000000000197B1F72150BE
:10019000304019F088EE93E0F0CF81E00E94F60B3A
:1001A00082E00E941D0C24EF31E00DC00000000031
:1001B0000000000000000000000000000197B1F7FF
:1001C0002150304019F088EE93E0F0CF82E00E9499
:1001D000F60B84E00E941D0C24EF31E00DC00000FE
:1001E0000000000000000000000000000000019777
:1001F000B1F72150304019F088EE93E0F0CF84E061
:100200000E94F60B81CF1F910F91FF90EF90DF902E
:10021000CF900895FC01818108950895FC01E8576D
:10022000FF4F80810895FC01E757FF4F80818F7752
:10023000089520E0FC01E757FF4F808187FD21E012
:10024000822F08950895FC018081882349F48AB79C
:1002500080618ABF8AB780628ABF89B7806489BF9C
:100260000895FC018081882319F489B7807489BFBF
:10027000089508950895FC0144815581BC0187E0EB
:1002800090E00E9455180895EF92FF920F931F93EC
:10029000CF93DF93EB01E42E122F032FFFB6F894D8
:1002A0000E94C4119E0120682FB9779BFECF8FB1A9
:1002B000D695C7959E01207C2FB9779BFECF8FB135
:1002C000812F902F9C01F90190E007C080818FB9A8
:1002D000779BFECF8FB19F5F31969E15B8F30E943A
:1002E000C211FFBE81E0DF91CF911F910F91FF906E
:1002F000EF9008950F931F93DF93CF9300D0CDB766
:10030000DEB78C01CB017A8369830E940A149A8339
:1003100089839E012F5F3F4F42E068E671E0C8018C
:100320000E94440181E00F900F90CF91DF911F91C7
:100330000F9108950F931F93DF93CF9300D0CDB704
:10034000DEB78C01CB017A8369830E940A149A83F9
:1003500089839E012F5F3F4F42E06AE671E0C8014A
:100360000E94440181E00F900F90CF91DF911F9187
:100370000F910895EF92FF920F931F93CF93DF9306
:10038000EB01E42E122F032FFFB6F8940E94C41144
:100390009E0120682FB9779BFECF8FB1D695C79568
:1003A0009E01207E2FB9779BFECF8FB1812F902F9A
:1003B0009C01F90190E006C01FB8779BFECF8FB17A
:1003C00081939F5F9E15C0F30E94C211FFBE81E022
:1003D000DF91CF911F910F91FF90EF900895DF93E0
:1003E000CF9300D0CDB7DEB77A8369839E012F5FAC
:1003F0003F4F42E068E671E00E94BA0181E00F9051
:100400000F90CF91DF9108959B0142E06AE671E081
:100410000E94BA0181E00895EF92FF920F931F931B
:10042000162FFFB6F8940E94C41110641FB9779B71
:10043000FECF8FB11FB8779BFECF8FB11FB8779BD0
:10044000FECFEFB0182F00E00E94C211FFBEFF24C4
:10045000E02AF12AC7011F910F91FF90EF900895B4
:10046000DF92EF92FF920F931F93162FE42E052F2A
:10047000DFB6F8940E94C4111FB9779BFECFFFB07E
:100480001F3040F00FB9779BFECF8FB1EFB8779B4D
:10049000FECF8FB1DFBE0E94C2118F2D1F910F9131
:1004A000FF90EF90DF9008956530C9F0663038F422
:1004B000623061F0633081F06130E9F40AC0673086
:1004C000A1F0673078F06830B1F412C047EE50EA1E
:1004D00014C043EE50EA11C04BEE50EA0EC043EF99
:1004E00050EA0BC047EF50EA08C04BEF50EA05C096
:1004F0004FEF50EA02C04FEE50EA65E10E94300231
:1005000008951F93CF93DF93EC01162F90E0862F71
:100510008B50803108F491E04AE955E068E071E0E1
:10052000892F0E946700812F90E00B97AC014B59F7
:100530005E4B880F991F880F991F480F591FC5568A
:10054000DF4F59834883CB59D04068E1CE010E94E8
:10055000300281E0DF91CF911F9108951F93CF93D7
:10056000DF93EC01162F61E10E940C02AC01112314
:1005700019F04061506101C0406161E1CE010E940B
:100580003002DF91CF911F910895FC01E357FF4F97
:1005900040815181577F5183408361E10E94300245
:1005A0000895FC01E357FF4F40815181586051830A
:1005B000408361E10E9430020895FC01E357FF4F40
:1005C000408151814F7E5183408361E10E9430021E
:1005D0000895FC01E357FF4F4081518140615183F1
:1005E000408361E10E94300208950F931F93162FFC
:1005F0000FB7F8940E94C4111FB9779BFECF1FB1AB
:100600000E94C2110FBF812F1F910F9108956DE0BD
:100610000E94F50208956CE00E94F50208956AE0D8
:100620000E94F502089569E00E94F50208950F9373
:100630001F938C0168E00E94F50268E0C8010E94E7
:10064000F50281E01F910F91089566E00E94F50286
:1006500081E0089565E00E94F502089564E00E943B
:10066000F502089563E00E94F502089562E00E9499
:10067000F5020895CF93DF93EC0160E0CE010E9474
:10068000F50286FFFACFDF91CF91089567E00E94CF
:10069000F50281E008950E94460308951F93CF93C9
:1006A000DF93EC0161E00E94F50210E015C000004C
:1006B00000000000000000000000000000000197A2
:1006C000B1F760E0CE010E94F50286FF02C081E032
:1006D00007C01F5F183C19F084E690E0E8CF80E087
:1006E000DF91CF911F9108950E944E03089564E019
:1006F0000E94F502089564E00E94F50281E00895E9
:1007000063E00E94F50281E00895EF92FF920F935B
:100710001F93CF93DF93EC017B01142F0E943A03C8
:100720000FB7F8940E94C4118FE78FB9779BFECF63
:100730008FB1C657DF4F8883CA58D0401FB8779B08
:10074000FECF8FB1853028F41FB8779BFECF8FB1D5
:100750000AC087FF0AC068E0CE010E94F50268E087
:10076000CE010E94F50210E012C0811708F4182F84
:10077000F701808391E009C01FB8779BFECF8FB14E
:10078000F701E90FF11D80839F5F1917A8F70E94F9
:10079000C2110FBF812FDF91CF911F910F91FF9059
:1007A000EF9008950E94781188E097E00000000023
:1007B0000000000000000000000000000197B1F7F9
:1007C00081E008950E94D20308950E94761188E086
:1007D00097E00000000000000000000000000000A2
:1007E00000000197B1F781E008950E94E5030895A4
:1007F000DF92EF92FF920F931F93CF93DF93EC0161
:100800007B018981813011F4198204C0882311F0A1
:10081000FF244BC0DFB6F8948F81882321F18F81AC
:1008200090E0481708F091E048EB53E068E071E091
:10083000892F0E9467004F818E01085F1F4F50E093
:10084000B801C7010E94FA1CFF801F820E9B2CC0BA
:1008500020E040E8B801CE010E9485038F838F819C
:10086000863010F10BC00E9B1EC020E0B701CE01F8
:100870000E948503F82E85E08F15A8F4EF81F0E043
:100880003297EC0FFD1F8085C857DF4F8883C8580B
:10089000D040EF81F0E03197EC0FFD1F8085C75706
:1008A000DF4F888301C0FF24DFBE8F2DDF91CF9102
:1008B0001F910F91FF90EF90DF900895CF92DF92FC
:1008C000EF92FF920F931F93CF93DF93EC016B0195
:1008D000142F81E0898320FF04C0FB0181818062A5
:1008E00003C0FB0181818F7D8183812F85508B37F0
:1008F00010F010E033C00FB7F8940E94C4118EE3DB
:100900008FB9779BFECF8FB1C657DF4F8883CA5808
:10091000D04011501FB91F5F779BFECF8FB1F601FA
:1009200091E007C081818FB9779BFECF8FB19F5F28
:1009300031961917B8F70E94C2110FBF0E94A0117B
:10094000892BE1F364E0CE010E94F5020E94B3110D
:100950000197E1F70E94B3110197E1F3E12EFF2423
:100960001982E114F10439F1F601818185FF23C078
:100970001F8200E010E038E0C32ED12CCC0EDD1E2B
:1009800024C0000000000000000000000000000083
:1009900000000197B1F720E040E8B601CE010E94C7
:1009A000F803882341F40F5F1F4FF3E00E3F1F074A
:1009B00061F4EE24FF248E2DDF91CF911F910F91D2
:1009C000FF90EF90DF90CF9008958AE090E0D9CF2C
:1009D000FC018081882319F489B7807489BF87E07E
:1009E0000E945C0908950E94E80408952F923F92A6
:1009F0004F925F926F927F928F929F92AF92BF922F
:100A0000CF92DF92EF92FF920F931F93DF93CF93DA
:100A100000D000D000D0CDB7DEB7FC01108211822B
:100A200053834283358324830683E857FF4F119213
:100A300011921082EA58F040FE83ED8317820E94E3
:100A4000AE120E9499120E94BC120E9472110E9462
:100A500085110E94CC110E949A110E94AD110E9432
:100A6000C0110E94E0111FB7F8940E94BC120E94AE
:100A7000AE120E949912709A6C9A6B986A98699853
:100A800068986E9A1FBF8D819E810E94E5030E9427
:100A9000651184E690E00000000000000000000006
:100AA0000000000000000197B1F70E94631184E686
:100AB00090E00000000000000000000000000000C6
:100AC00000000197B1F78D819E810E944E0388231B
:100AD00009F42DC082E00E941D0C24E630E00DC018
:100AE0000000000000000000000000000000000006
:100AF0000197B1F72150304019F088EE93E0F0CF24
:100B000082E00E94F60B28EE33E00EC000000000E9
:100B10000000000000000000000000000197B1F795
:100B20002150304009F42FC088EE93E0EFCF84E0ED
:100B30000E941D0C24E630E00DC000000000000003
:100B4000000000000000000000000197B1F72150F4
:100B5000304019F088EE93E0F0CF84E00E94F60B6D
:100B600028EE33E00DC0000000000000000000008F
:100B70000000000000000197B1F72150304019F04B
:100B800088EE93E0F0CF0D811E8105571F4F20E0C6
:100B900038EFF80131832083ADE8EA2EF12C8D8106
:100BA0009E81E80EF91E82EE92E0F7019183808328
:100BB000FFE8CF2ED12C8D819E81C80ED91E80E0FA
:100BC00095E0F60191838083E1E9AE2EB12C8D8111
:100BD0009E81A80EB91E80E890EEF5019183808376
:100BE00073E9872E912C8D819E81880E991E8FE04E
:100BF00097EAF4019183808365E9662E712C8D81DB
:100C00009E81680E791E8FEF90E6F30191838083B9
:100C100057E9452E512C8D819E81480E591E85EE37
:100C200092E1F2019183808349E9242E312C8D8158
:100C30009E81280E391E86E59AE0F101918380831A
:100C40008D819E8185569F4F9A83898385E691E4A5
:100C5000E981FA81918380838D819E8183569F4FA4
:100C60009C838B8384EC91E0EB81FC819183808376
:100C70008D819E8181569F4FFC011192119211929C
:100C800011928FE790E08193919311821082E55A3F
:100C9000F040FE83ED83A90160E1CF010E943002A4
:100CA00060E18D819E810E940C02F80120813181DA
:100CB0008217930709F013C1F7014081518161E167
:100CC0008D819E810E94300261E18D819E810E9412
:100CD0000C02F701208131818217930709F0FFC0D0
:100CE000F6014081518162E18D819E810E94300236
:100CF00062E18D819E810E940C02F601208131818A
:100D00008217930709F0EBC0F5014081518163E13F
:100D10008D819E810E94300263E18D819E810E94BF
:100D20000C02F501208131818217930709F0D7C0A9
:100D3000F4014081518164E18D819E810E943002E5
:100D400064E18D819E810E940C02F4012081318139
:100D50008217930709F0C3C0F3014081518165E117
:100D60008D819E810E94300265E18D819E810E946D
:100D70000C02F301208131818217930709F0AFC083
:100D8000F2014081518166E18D819E810E94300295
:100D900066E18D819E810E940C02F20120813181E9
:100DA0008217930709F09BC0F1014081518167E1EF
:100DB0008D819E810E94300267E18D819E810E941B
:100DC0000C02F101208131818217930709F087C05D
:100DD000E981FA814081518168E18D819E810E9483
:100DE000300268E18D819E810E940C02E981FA81C6
:100DF000208131818217930709F071C0EB81FC815A
:100E00004081518169E18D819E810E94300269E1BA
:100E10008D819E810E940C02EB81FC8120813181B9
:100E20008217930709F05BC00D811E8101561F4F89
:100E3000F801408151816AE18D819E810E943002DA
:100E40006AE18D819E810E940C02F801208131812E
:100E50008217930709F043C00D811E810D551F4F66
:100E6000F801408151816CE18D819E810E943002A8
:100E70006CE18D819E810E940C02F80120813181FC
:100E80008217930761F50D811E810B551F4FF801E5
:100E9000408151816DE18D819E810E9430026DE122
:100EA0008D819E810E940C02F80120813181821780
:100EB0009307A9F469E08D819E810E94F50268E0A4
:100EC0008D819E810E94F50268E08D819E810E9445
:100ED000F50282E00E941D0C24E630E013C084E09D
:100EE0000E941D0C28EE33E034C00000000000001A
:100EF000000000000000000000000197B1F7215041
:100F0000304019F088EE93E0F0CF82E00E94F60BBB
:100F100024E630E00EC000000000000000000000E9
:100F20000000000000000197B1F72150304009F4A3
:100F300029C088EE93E0EFCF000000000000000021
:100F400000000000000000000197B1F72150304080
:100F500019F088EE93E0F0CF84E00E94F60B28EEC3
:100F600033E00DC0000000000000000000000000A1
:100F7000000000000197B1F72150304019F088EED1
:100F800093E0F0CF6BE08D819E810E9481028D8184
:100F90009E810E94D10261E070E08D819E810E945D
:100FA0007A0161E070E08D819E810E949A018D81BD
:100FB0009E810E94DD028D819E810E9480038D8131
:100FC0009E810E943A034D815E8163E178E087E073
:100FD0000E944809ED81FE818081882349F48AB707
:100FE00080618ABF8AB780628ABF89B7806489BFFF
:100FF0008D819E8126960FB6F894DEBF0FBECDBFC1
:10100000CF91DF911F910F91FF90EF90DF90CF90E4
:10101000BF90AF909F908F907F906F905F904F9018
:101020003F902F900895CF93DF93EC010E94D4114D
:10103000892B59F40E9B09C068E0CE010E94F5028D
:1010400068E0CE010E94F50214C0EA81FB8130976E
:1010500031F060E070E08C819D8109950AC08F813C
:10106000BE01685F7F4F20E040E8CE010E9485030B
:101070008F83DF91CF9108950F931F93CF93DF93C9
:10108000182F092FEB0180E0673A710508F081E025
:101090004DE450E068E071E00E946700AE0160E05E
:1010A00070E0812F902F0E940C1D812F902FDF91D7
:1010B000CF911F910F9108951092500508955F9B55
:1010C000FECF8CB108955D9BFECF8CB90895E82FBB
:1010D000E295EF70F0E0EA5DFE4FE0815D9BFECFB0
:1010E000ECB9E82FF0E0EF70F070EA5DFE4F808120
:1010F0005D9BFECF8CB9089520E030E009C0FC0173
:10110000E20FF31FE0815D9BFECFECB92F5F3F4FF5
:1011100026173707A0F3089520E030E050E21DC005
:10112000FC01E20FF31F4081E42FE295EF70F0E045
:10113000EA5DFE4FE0815D9BFECFECB9E42FF0E06D
:10114000EF70F070EA5DFE4FE0815D9BFECFECB981
:101150005D9BFECF5CB92F5F3F4F2617370700F32B
:10116000089580915005482F50E0E1E5F5E020E03A
:1011700030E007C090815D9BFECF9CB92F5F3F4F51
:10118000319624173507B0F30895E82FF0E0EF709B
:10119000F070EA5DFE4F80810895CF93DF93DC010C
:1011A000E091500540E450E04E1B5109EB01461719
:1011B000570708F4EA018E2F90E0AE01BD018F5A67
:1011C0009A4F0E94FA1C809150058C0F8093500515
:1011D000CE01DF91CF910895DC010D900020E9F759
:1011E0001197A81BB90B20E030E01AC0FC01E20FF8
:1011F000F31F4081E42FE295EF70F0E0EA5DFE4FCF
:10120000E0815D9BFECFECB9E42FF0E0EF70F07071
:10121000EA5DFE4FE0815D9BFECFECB92F5F3F4F53
:101220002A173B0718F308958091F802882381F468
:1012300081E4E0E5F5E0DF011D928A95E9F7109879
:10124000119A8CE089B988E18AB981E08093F8022B
:101250000895AC018830910550F429B781E090E001
:1012600002C0880F991F4A95E2F7282B29BF0895DD
:10127000AC018830910558F429B781E090E002C0B4
:10128000880F991F4A95E2F78095822389BF0895B8
:10129000282F30E02F713070F901EE0FFF1FEE0F95
:1012A000FF1FE20FF31FEF56FA4F808372836183B3
:1012B00054834383C9010895282F30E02F71307083
:1012C000F901EE0FFF1FEE0FFF1FE20FF31FEF56A6
:1012D000FA4F10821282118214821382C90108957A
:1012E000DB019A01482F50E04F715070FA01EE0F68
:1012F000FF1FEE0FFF1FE40FF51FEF56FA4F81811E
:1013000092818D939C9383819481D9018D939C9339
:1013100081819281892B11F44FEF5FEFCA0108950B
:1013200090E08F719070FC01EE0FFF1FEE0FFF1F1A
:10133000E80FF91FEF56FA4F21813281211531054F
:1013400021F083819481F901099508951F920F92EC
:101350000FB60F9211240F900FBE0F901F9018958B
:101360001F920F920FB60F920BB60F9211242F936C
:101370003F934F935F936F937F938F939F93AF931D
:10138000BF93EF93FF9360E070E087E00E949009C5
:10139000FF91EF91BF91AF919F918F917F916F914D
:1013A0005F914F913F912F910F900BBE0F900FBE09
:1013B0000F901F9018951F920F920FB60F920BB6B9
:1013C0000F9211242F933F934F935F936F937F93CB
:1013D0008F939F93AF93BF93EF93FF9360E070E081
:1013E00080E10E949009FF91EF91BF91AF919F9191
:1013F0008F917F916F915F914F913F912F910F90BE
:101400000BBE0F900FBE0F901F9018951F920F925A
:101410000FB60F920BB60F9211242F933F934F9359
:101420005F936F937F938F939F93AF93BF93EF934C
:10143000FF9360E070E08FE00E949009FF91EF91D0
:10144000BF91AF919F918F917F916F915F914F91DC
:101450003F912F910F900BBE0F900FBE0F901F90DA
:1014600018951F920F920FB60F920BB60F92112480
:101470002F933F934F935F936F937F938F939F939C
:10148000AF93BF93EF93FF9360E070E08EE00E9414
:101490009009FF91EF91BF91AF919F918F917F91B3
:1014A0006F915F914F913F912F910F900BBE0F90D5
:1014B0000FBE0F901F9018951F920F920FB60F92AC
:1014C0000BB60F9211242F933F934F935F936F931B
:1014D0007F938F939F93AF93BF93EF93FF9360E0BE
:1014E00070E08CE00E949009FF91EF91BF91AF9165
:1014F0009F918F917F916F915F914F913F912F912C
:101500000F900BBE0F900FBE0F901F9018951F925B
:101510000F920FB60F920BB60F9211242F933F9399
:101520004F935F936F937F938F939F93AF93BF93EB
:10153000EF93FF9360E070E08AE00E949009FF91D2
:10154000EF91BF91AF919F918F917F916F915F913B
:101550004F913F912F910F900BBE0F900FBE0F90A8
:101560001F9018951F920F920FB60F920BB60F9205
:1015700011242F933F934F935F936F937F938F9398
:101580009F93AF93BF93EF93FF9360E070E089E088
:101590000E949009FF91EF91BF91AF919F918F9120
:1015A0007F916F915F914F913F912F910F900BBE63
:1015B0000F900FBE0F901F9018951F920F920FB6AD
:1015C0000F920BB60F9211242F933F934F935F937B
:1015D0006F937F938F939F93AF93BF93EF93FF93FB
:1015E00060E070E08DE10E949009FF91EF91BF9162
:1015F000AF919F918F917F916F915F914F913F91AB
:101600002F910F900BBE0F900FBE0F901F9018954B
:101610001F920F920FB60F920BB60F9211242F93B9
:101620003F934F935F936F937F938F939F93AF936A
:10163000BF93EF93FF9360E070E08AE10E9490090E
:10164000FF91EF91BF91AF919F918F917F916F919A
:101650005F914F913F912F910F900BBE0F900FBE56
:101660000F901F9018951F920F920FB60F920BB606
:101670000F9211242F933F934F935F936F937F9318
:101680008F939F93AF93BF93EF93FF9360E070E0CE
:1016900085E10E949009FF91EF91BF91AF919F91D9
:1016A0008F917F916F915F914F913F912F910F900B
:1016B0000BBE0F900FBE0F901F9018951F920F92A8
:1016C0000FB60F920BB60F9211242F933F934F93A7
:1016D0005F936F937F938F939F93AF93BF93EF939A
:1016E000FF9360E070E082E10E949009FF91EF912A
:1016F000BF91AF919F918F917F916F915F914F912A
:101700003F912F910F900BBE0F900FBE0F901F9027
:1017100018951F920F920FB60F920BB60F921124CD
:101720002F933F934F935F936F937F938F939F93E9
:10173000AF93BF93EF93FF9360E070E083E10E946B
:101740009009FF91EF91BF91AF919F918F917F9100
:101750006F915F914F913F912F910F900BBE0F9022
:101760000FBE0F901F9018951F920F920FB60F92F9
:1017700011240F900FBE0F901F9018951F920F927B
:101780000FB60F9211240F900FBE0F901F90189557
:1017900018951F920F920FB60F920BB60F9211244D
:1017A0002F933F934F935F936F937F938F939F9369
:1017B000AF93BF93EF93FF934EE751E066E371E081
:1017C00080E00E946700FF91EF91BF91AF919F91E0
:1017D0008F917F916F915F914F913F912F910F90DA
:1017E0000BBE0F900FBE0F901F901895282F80FFF3
:1017F00006C0DA9A8091F90281608093F90221FF94
:1018000006C0D99A8091F90282608093F90222FF82
:1018100006C0D89A8091F90284608093F9020895F5
:1018200087E00E94F60B08951092F902D09AD19A9F
:10183000D29A87E00E94F60B0895282F80FF06C0F9
:10184000DA988091F9028E7F8093F90221FF06C019
:10185000D9988091F9028D7F8093F90222FF06C00A
:10186000D8988091F9028B7F8093F90208956623BE
:1018700019F00E94F60B08950E941D0C0895282F60
:1018800080FF0BC09091F90290FF03C0DA989E7F11
:1018900002C0DA9A91609093F90221FF0BC09091F7
:1018A000F90291FF03C0D9989D7F02C0D99A926036
:1018B0009093F90222FF0DC08091F90282FF05C0CA
:1018C000D8988B7F8093F9020895D89A846080938A
:1018D000F9020895FF920F931F93CF93DF93F82E91
:1018E0008B01EA014115510511F4CFEFDFEF87E0DD
:1018F0000E94F60B17C08F2D0E943F0C98010EC05E
:1019000088EE93E0000000000000000000000000EE
:10191000000000000197B1F7215030401216130665
:101920007CF32197209739F7DF91CF911F910F9189
:10193000FF90089560E070E080E090E00E948418DD
:101940000E94D41308950E949A0C0895FC016783A5
:101950005683458320870895FF920F931F93CF935B
:10196000DF93EC018B01F42E80E090E020E43FE176
:1019700040E050E00E941C1D40E050E0AFE0B0E0CD
:10198000E1E0F0E09D01241B350BCF01022E02C0E7
:10199000880F991F0A94E2F786239723892B31F445
:1019A0004F5F5F4F4031510569F749C01C830B837E
:1019B000F8868881882321F0823009F040C014C065
:1019C0002C30310510F087E013C02A30310510F0BB
:1019D00086E018C02830310510F084E01BC02530A7
:1019E000310548F182E020C02C30310538F085E027
:1019F0008F83872F869586958D8306C02A30310583
:101A000028F084E08F837D831E8219C02830310541
:101A100040F083E08F8396E0769567959A95E1F79D
:101A20000CC02530310538F08F8383E076956795BB
:101A30008A95E1F702C081E08F837E836D83DF9119
:101A4000CF911F910F91FF900895FC01808980FF35
:101A50001BC08081813049F0813028F0823059F0FC
:101A6000833091F40CC082E007C080E187BF86B765
:101A7000806186BF089580E886BF87BF089580E1B2
:101A800080937C0080937D000895FC0180818130EB
:101A900081F0813028F08230B9F0833071F51DC0BB
:101AA000858181BF88E083BF83B79781892B83BFFE
:101AB00024C08FE590E09BBD8ABD1FBC88E08EBD31
:101AC0008EB585608EBD19C0858183BD88E085BDDA
:101AD00085B59781892B85BD10C08FE590E09093E7
:101AE00087008093860010928B0088E080938A00A4
:101AF00080918A00856080938A00808980FF03C07E
:101B0000CF010E94250D08950F931F938C010E9411
:101B1000AC0CC8010E94450D1F910F910895FC0166
:101B2000808980FF16C08081813039F0813040F09B
:101B3000823031F0833069F407C087B78F7E02C0EE
:101B400087B78D7F87BF089580917D008F7E8093BA
:101B50007D000895CF93DF93EC01888980FF03C057
:101B6000CE010E948F0D8881813059F0813028F09C
:101B7000823059F0833091F40CC083B7887F83BFE3
:101B80000DC08EB5887F8EBD09C085B5887F85BDA7
:101B900005C080918A00887F80938A00DF91CF9171
:101BA00008950E948F0D0895FC0172876187548704
:101BB00043870895FC0161830895FC0165870895BA
:101BC000089580E090E00895FC01268537852095F2
:101BD000309517861686C9010895FC01E081E13031
:101BE00081F0E13030F0E230A9F0E330C9F090E06C
:101BF00022C086B7982F927081FF1DC086B7826081
:101C000007C086B7982F907184FF15C086B7806192
:101C100086BF11C096B7907871F086B78068F8CF0C
:101C200080917C00982F907184FF05C080917C008A
:101C3000806180937C00892F089588EE93E0089559
:101C4000FC01218532852115310531F060E070E01D
:101C500083859485F90109950895CF93DF93EC016D
:101C60000E94AA0D888980FF13C08881813049F0C5
:101C7000813028F0823039F0833051F406C08FE093
:101C800005C08CE003C089E001C08AE10E945C09C4
:101C9000DF91CF9108950F93CF93DF93EC01688389
:101CA0005A8749873C872B87088B00FF1EC061300D
:101CB00061F0613028F0623069F06330B1F40FC038
:101CC000AC0160E27EE08FE00EC0AC0160E27EE03D
:101CD0008CE009C0AC0160E27EE089E004C0AC01A8
:101CE00060E27EE08AE10E944809CE01DF91CF9157
:101CF0000F910895FF920F931F93082FF92E162F1F
:101D000080E0613108F081E046E750E067E571E08E
:101D10000E946700412F50E060E070E0802F9F2D0F
:101D20000E940C1D802F9F2D1F910F91FF900895F1
:101D3000DC019091FA02992309F4F89416968C919B
:101D400016972FE730E0281B31091216130674F49A
:101D500016968C911697FD01E80FF11D6187169676
:101D60008C9116978F5F16968C93169717968C9179
:101D70001797882379F48C91882319F0813051F4D6
:101D800004C05D9BFECF559A05C080919A00806289
:101D900080939A009093FA02992309F4789412168A
:101DA00013061CF02FEF3FEF02C020E030E0C90126
:101DB0000895DC0118962C9118978FE790E0821B0C
:101DC00091091816190684F418968C9118979CB1ED
:101DD000FD01E80FF11DE857FF4F908318968C9195
:101DE00018978F5F18968C930895DC0117969C9135
:101DF000179716968C911697981778F417968C91DA
:101E00001797FD01E80FF11D81858CB917968C910C
:101E100017978F5F17968C930895559816961C9276
:101E2000169717961C920895DC0118962C91189716
:101E30008FE790E0821B9109181619068CF418960A
:101E40008C91189790919C00FD01E80FF11DE857C7
:101E5000FF4F908318968C9118978F5F18968C93EC
:101E60000895DC0117969C91179716968C911697FA
:101E7000981780F417968C911797FD01E80FF11DC4
:101E8000818580939C0017968C9117978F5F17968A
:101E90008C930895559816961C92169717961C9237
:101EA0000895BF92CF92DF92EF92FF920F931F930C
:101EB000CF93DF938C016B017A01B22E8091FA02ED
:101EC000882309F4F8948F5F8093FA02F8018681E1
:101ED0004FE750E09A01281B31092E153F0528F4E1
:101EE0008681EA01C81BD10901C0E7011C161D0645
:101EF00074F4F801868190E00996AE01B601800F76
:101F0000911F0E94FA1CF80186818C0F8683F801CC
:101F10008781882379F48081882319F0813051F4F6
:101F200004C05D9BFECF559A05C080919A008062E7
:101F300080939A008091FA0281508093FA0288235C
:101F400009F47894B0FC16C0F80186818823E1F783
:101F5000CE15DF0580F4A7014C1B5D0BCC0DDD1DFC
:101F60002B2DBE01C8010E94510FF80186818823E4
:101F7000E1F701C07E01C701DF91CF911F910F9161
:101F8000FF90EF90DF90CF90BF900895EF92FF9277
:101F90000F931F93CF93DF93EC019B018091FA0283
:101FA000882309F4F8948F5F8093FA02888590E083
:101FB0008417950720F48885082F10E001C08A0156
:101FC00001151105D1F088E8E82EF12CEC0EFD1E6C
:101FD000A801B701C9010E94FA1C8885801B888767
:101FE0008885882351F04885B80168577F4F6C0F6A
:101FF0007D1F50E0C7010E94FA1C8091FA028150B7
:102000008093FA02882309F47894C801DF91CF9174
:102010001F910F91FF90EF900895CF93DF93DC0114
:10202000EB018091FA02882309F4F8948F5F809382
:10203000FA0218968C911897882319F42FEF3FEF26
:1020400018C0FD01E857FF4F8081888318968C9156
:102050001897815018968C93189718964C9118974A
:10206000A757BF4F50E0BD01CF010E94FA1C20E0EE
:1020700030E08091FA0281508093FA02882309F4BB
:102080007894C901DF91CF910895DF93CF930F9298
:10209000CDB7DEB7FC0180858823E9F31982BE0144
:1020A0006F5F7F4FCF010E940D1089810F90CF91FC
:1020B000DF910895FC0110861682E081EE2319F06D
:1020C000E13071F407C08EE10E945C098FE10E944B
:1020D0005C0908958EE10E945C098FE10E945C0911
:1020E00008950E945A100895EF920F93CF93DF93B3
:1020F000EC0168835A8349832B830C83ED821E8213
:102100001F821886C95FDE4F1992199219821882B0
:10211000C950D140662329F06130F9F0C0E0D0E029
:1021200043C01098119A86E94030580729F0405072
:10213000514E29F488E001C08CE089B901C019B87A
:1021400088E98AB9AE0169ED7EE082E10E94480922
:10215000AE0165EF7EE083E125C09A0140E050E0EA
:1021600094E0220F331F441F551F9A95D1F760E06A
:1021700072E18AE790E00E945B1D21501092980066
:102180002093990088E980939A0086E080939D00CF
:10219000AE0164E17FE08EE10E944809AE0161E397
:1021A0007FE08FE10E944809CE01DF91CF910F912E
:1021B000EF9008950F931F93CF93DF93182F092F5C
:1021C000EB0180E091E06B30790708F081E044E7B3
:1021D00050E064E771E00E946700AE0160E070E0EB
:1021E000812F902F0E940C1D812F902FDF91CF9176
:1021F0001F910F910895DA9A0895DA98089529B3F6
:1022000030E0369527953695279521703070C901B5
:102210000895D29A0895D2980895D99A0895D99890
:10222000089529B330E03695279521703070C901A3
:102230000895D19A0895D1980895D89A0895D89874
:10224000089529B330E021703070C9010895D09A03
:102250000895D0980895DC9A0895DC98089529B3DC
:1022600030E044E0369527954A95E1F721703070CB
:10227000C9010895D49A0895D4980895DD9A0895CF
:10228000DD98089529B330E055E0369527955A95A5
:10229000E1F721703070C9010895D59A0895D59855
:1022A0000895DF9A0895DF98089529B3332727FD0D
:1022B00030952227330F221F3327C9010895D79A5B
:1022C0000895D7980895DE9A0895DE98089529B361
:1022D00030E076E0369527957A95E1F721703070F9
:1022E000C9010895D69A0895D6980895DD9A08955B
:1022F000DD98089529B330E0E5E036952795EA9515
:10230000E1F721703070C9010895D59A0895D598E4
:1023100008951E9A08951E98089521B130E0F6E0C0
:1023200036952795FA95E1F721703070C901089527
:10233000169A089516980895969A0895969808956D
:1023400020B330E0A6E036952795AA95E1F72170F5
:102350003070C90108958E9A08958E980895949AC0
:1023600008959498089520B330E0B4E03695279509
:10237000BA95E1F721703070C90108958C9A0895DB
:102380008C980895C09A0895C098089526B330E0B7
:1023900021703070C9010895B89A0895B8980895C9
:1023A000C79A0895C798089526B3332727FD309517
:1023B0002227330F221F3327C9010895BF9A08959A
:1023C000BF980895969A08959698089520B330E09E
:1023D00096E0369527959A95E1F721703070C901FE
:1023E00008958E9A08958E980895DB9A0895DB9843
:1023F000089529B330E043E0369527954A95E1F7F3
:1024000021703070C9010895D39A0895D398089522
:10241000959A08959598089520B330E055E0369543
:1024200027955A95E1F721703070C90108958D9A6A
:1024300008958D980895939A08959398089520B3D8
:1024400030E063E0369527956A95E1F721703070AA
:10245000C90108958B9A08958B980895929A0895CA
:102460009298089520B330E03695279536952795B4
:1024700021703070C90108958A9A08958A98089544
:102480001C9A08951C98089521B130E0E4E0369537
:102490002795EA95E1F721703070C9010895149AE3
:1024A0000895149808951D9A08951D98089521B1CE
:1024B00030E0F5E036952795FA95E1F72170307018
:1024C000C9010895159A0895159808951E9A0895BA
:1024D0001E98089521B130E0A6E036952795AA957B
:1024E000E1F721703070C9010895169A0895169881
:1024F00008951F9A08951F98089521B1332727FD45
:1025000030952227330F221F3327C9010895179AC8
:10251000089517980895C29A0895C298089526B309
:1025200030E0369527953695279521703070C90192
:102530000895BA9A0895BA980895C39A0895C398C9
:10254000089526B330E093E0369527959A95E1F704
:1025500021703070C9010895BB9A0895BB98089501
:10256000C19A0895C198089526B330E0369527950D
:1025700021703070C9010895B99A0895B9980895E5
:10258000A89A0895A898089523B330E02170307078
:10259000C9010895A09A0895A0980895A99A089548
:1025A000A998089523B330E03695279521703070AF
:1025B000C9010895A19A0895A1980895AA9A089525
:1025C000AA98089523B330E0369527953695279538
:1025D00021703070C9010895A29A0895A2980895B3
:1025E000AB9A0895AB98089523B330E073E0369525
:1025F00027957A95E1F721703070C9010895A39A63
:102600000895A3980895AC9A0895AC98089523B3BB
:1026100030E0E4E036952795EA95E1F721703070D7
:10262000C9010895A49A0895A4980895AD9A0895AB
:10263000AD98089523B330E0F5E036952795FA95E7
:10264000E1F721703070C9010895A59A0895A59801
:102650000895AE9A0895AE98089523B330E0A6E0A9
:1026600036952795AA95E1F721703070C901089534
:10267000A69A0895A6980895AF9A0895AF980895D8
:1026800023B3332727FD30952227330F221F33270B
:10269000C9010895A79A0895A7980895909A089552
:1026A0009098089520B330E021703070C9010895EA
:1026B000889A089588980895919A08959198089510
:1026C00020B330E03695279521703070C901089508
:1026D000899A089589980895189A089518980895E0
:1026E00021B130E021703070C9010895109A089529
:1026F00010980895199A08951998089521B130E015
:102700003695279521703070C9010895119A089562
:10271000119808951A9A08951A98089521B130E0F1
:10272000369527953695279521703070C901089503
:10273000129A089512980895929A08959298089579
:1027400020B330E036952795369527952170307067
:10275000C90108958A9A08958A980895939A0895C8
:102760009398089520B330E063E0369527956A95F5
:10277000E1F721703070C90108958B9A08958B9804
:102780000895959A08959598089520B330E075E0DE
:10279000369527957A95E1F721703070C901089533
:1027A0008D9A08958D980895D29AD09AD19AA79A21
:1027B000A69AA59AA49AA39AA29AA19AA09ABB981B
:1027C000BA9AB99AD69AD59AB89816988E988C983B
:1027D000BF988E98D498DC98D39A8B9A8D9ADB9A6E
:1027E000DA9AD89AD99A0895DF93CF9300D0CDB7CB
:1027F000DEB781E089831A8220E030E089819A8106
:10280000019711F421E030E0C9010F900F90CF91B2
:10281000DF910895DF93CF9300D0CDB7DEB79C0151
:1028200081E089831A8289819A81019719F0822F28
:10283000232F382FC9010F900F90CF91DF9108956A
:10284000DF93CF9300D0CDB7DEB79C0181E08983C1
:102850001A8289819A81019719F0822F232F382FAC
:10286000C9010F900F90CF91DF910895882309F44B
:1028700060E0862F0895442309F420E0662309F4DC
:1028800020E0882309F420E0822F089508950F9313
:102890001F93CF93DF938B01EC0189819A810E9472
:1028A0000D010115110599F0F801808191810797BB
:1028B00071F4C757DF4FE881F981C958D04030978C
:1028C00031F0C557DF4FB801888199810995DF91B3
:1028D000CF911F910F9108951F93CF93DF93EB0139
:1028E000242F69817A814B81FC01818192810E9430
:1028F000F803182F882379F060E0CE010E94381782
:10290000882341F0EF81F88580818770813011F450
:102910001C8301C010E0812F90E0DF91CF911F91C7
:102920000895AF92BF92CF92DF92EF92FF920F93F2
:102930001F93CF93DF938C016B01B42EA22E4423FF
:1029400009F037C04BC02A2D4B2DB601F80181810B
:1029500092810E945E04282F30E02115310511F08C
:10296000188235C0F7018081880F0E94EE1990E02F
:102970004496F7019183808320E030E0AC0112C0DF
:102980000000000000000000000000000000000047
:102990000197B1F72F5F3F4FCA01821B930B1816A7
:1029A00019061CF488EE93E0EBCF88818F5F888353
:1029B00008C0EC01CA57DF4F87E8E82EF12CE00E83
:1029C000F11E8881833008F4BECF20E030E0F801AA
:1029D000EA57FF4F8081833018F0108220E030E00A
:1029E000C901DF91CF911F910F91FF90EF90DF9080
:1029F000CF90BF90AF900895CF93DF93EC01DB01B0
:102A0000242F1196ED91FC911297818192818F7DF7
:102A100081831196ED91FC91129792831D96ED9111
:102A2000FC911E97309739F08FEF80831D96ED91C2
:102A3000FC911E97818311966D917C91129714964B
:102A40004C91CE010E949114DF91CF910895FB012A
:102A5000242F6181728144810E9491140895FC01A8
:102A6000818192810E94E80408952F923F924F92B3
:102A70005F926F927F928F929F92AF92BF92CF920E
:102A8000DF92EF92FF920F931F93DF93CF93CDB717
:102A9000DEB73C012B01942E1901FC017283618386
:102AA000F482E38289E890E0680E791EF301C19216
:102AB000D1923F01B182A08285E79FEF680E791E17
:102AC000F301158286E890E0680E791EF3011192F9
:102AD0003F018AE090E09183808386E090E0680E79
:102AE000791EF301808283E79FEF680E791ECB0188
:102AF0000E94D102C2010E94E902692DC2010E9416
:102B00008102B101C2010E947A01B801C2010E9492
:102B10009A01C2010E948003C301CF91DF911F91EE
:102B20000F91FF90EF90DF90CF90BF90AF909F906C
:102B30008F907F906F905F904F903F902F9008956F
:102B4000EF92FF920F931F93F82EE92E8B01AB01AA
:102B500060E070E00E940C1D80E00E38110508F066
:102B600081E046E450E060E971E00E9467008F2D4B
:102B70009E2D1F910F91FF90EF900895FC01A18170
:102B8000B2811C92148284E086830895FC01148231
:102B9000158284E086831086178212861186148639
:102BA000138616861586108A1786128A118A148A49
:102BB000138A168A158A108E178A128E118E148E19
:102BC000138E168E158E178E11A210A213A212A2AA
:102BD00014A216A215A20895DC011196ED91FC91A4
:102BE000129780818F5F14968C931497FB018083DA
:102BF00011968C91119712969C910895CF92DF9225
:102C0000EF92FF920F931F93CF93DF938C01C62E09
:102C1000D42E7901DC011196CD91DC9112976623B7
:102C200069F050E060E070E0CE010E940C1DDA9483
:102C3000D882D394E982FA82B8011BC0442311F4EC
:102C4000D880D3948D2D85508A3710F4B80105C0F3
:102C50001882F801148260E070E0D8011196ED91BD
:102C6000FC911297928180E02181E22EFF24E82AD4
:102C7000F92A6115710509F4ADC0F801D4828E2DD1
:102C8000877086832196D087C7832296D287C18793
:102C90002397CC2009F4A8C01B82A6C02496D80193
:102CA0001C96DC93CE931B9724971E961C921E9223
:102CB0001D9750961C921E921F9756E0A8C024960E
:102CC000F801D487C3872296D687C5872697108AAE
:102CD000178658E09CC02496D8011C96DC93CE93AE
:102CE0001B971E961C921E921D9722965096DC935F
:102CF000CE931F9726975EE08AC0F801128A118A48
:102D0000148A138A168A158A94C0CE01850F911DE4
:102D1000D80152969C938E935197252F2E5FCE010A
:102D2000820F911D54969C938E9353975C5F569699
:102D30001C921E9255977DC0CE01850F911DF80102
:102D4000928B818B5E5F148A138ACE01850F911D51
:102D5000968B858B585F6DC0CE01850F911DD80174
:102D600058969C938E9357975E5F5A961C921E922C
:102D700059975C961C921E925B975E961C921E92CF
:102D80005D975F961C925F97CE01850F911D93967C
:102D90009C938E93929761C0CE01850F911DF8018F
:102DA00010C0D80193961C921E92929756C0CE01E5
:102DB000850F911DF80191A380A35F5FCE01850F60
:102DC000911D93A382A349C084E0D80116968C93E9
:102DD00060E070E0CB01DF91CF911F910F91FF90E8
:102DE000EF90DF90CF900895C70180709C70892F7D
:102DF0009927869586958230910509F460CF8330B6
:102E0000910509F468CF892B09F448CFE1CFC701B8
:102E100084E0989F812D992711248230910509F42F
:102E200074CF8330910509F487CF892B09F465CFDE
:102E3000CFCF9701277030702130310509F4ACCF26
:102E40002130310508F488CF2230310509F4A9CFAB
:102E50002330310509F0B8CFAACF9D2D9250892F8C
:102E6000851BF80184A3C90FD11DD6A3C5A3B2CF7A
:102E70000F93FC01462F058120E030E060E00E94C6
:102E8000FE1520E0892B09F021E0822F0F91089593
:102E90000F931F93CF93DF938C01EB01FC0184818F
:102EA0008C8385818D8386818E8318861F821A8606
:102EB00019861C861B861E861D86188A1F861A8AFE
:102EC000198A1C8A1B8A1E8A1D8A188E1F8A1A8ECE
:102ED000198E1C8E1B8E1E8E1D8E1F8E19A218A27F
:102EE0001BA21AA21CA21EA21DA220E09B8184810B
:102EF000981708F021E04DE052E06DEA71E0822F72
:102F00000E946700F8014481442359F06181728175
:102F100050E089819A810E94FA1C6C81CE010E9446
:102F20003817F8018481DF91CF911F910F91089597
:102F30000F931F93CF93DF93EC018B01FB018481EF
:102F40008C8385818D8386818E8318861F821A8665
:102F500019861C861B861E861D86188A1F861A8A5D
:102F6000198A1C8A1B8A1E8A1D8A188E1F8A1A8E2D
:102F7000198E1C8E1B8E1E8E1D8E1F8E19A218A2DE
:102F80001BA21AA21CA21EA21DA220E09B8184816A
:102F9000981708F021E044ED51E06DEA71E0822FCE
:102FA0000E9467004C81442361F0F80161817281C5
:102FB00050E089819A810E94FA1C6C81CE010E94A6
:102FC00038178C81DF91CF911F910F9108950F9346
:102FD000FC019A010581462F61E00E94FE1520E068
:102FE000892B09F021E0822F0F910895CF92DF9273
:102FF000EF92FF920F931F93CF93DF93EC017B012E
:103000006A01022F009719F480E090E007C080E089
:1030100090E06832710510F081E090E04BE150E003
:103020006DEA71E00E946700A70160E070E0CE01E8
:103030000E940C1DFE01E882B796FA83E983B797D8
:103040004E2D47524B831C8284E08E830D83C11426
:10305000D10451F08C2D87708E83960161E0CF01F1
:103060000E94FE15FC0101C08E83CF01DF91CF913C
:103070001F910F91FF90EF90DF90CF900895909364
:10308000FC028093FB027093FE026093FD020895A0
:10309000BC01E091FB02F091FC02309729F0809195
:1030A000FD029091FE0209950895DF93CF93CDB76D
:1030B000DEB728970FB6F894DEBF0FBECDBF9C01D8
:1030C000E091FB02F091FC023097A9F04115510507
:1030D00021F44091FD025091FE0258874F83809168
:1030E000FD029091FE027E836D833A832983BE01A7
:1030F0006F5F7F4F099528960FB6F894DEBF0FBE1D
:10310000CDBFCF91DF9108951092FA029093FC0207
:103110008093FB027093FE026093FD0280EAE1E976
:10312000F5E0DF011D928A95E9F708952F923F920D
:103130004F925F926F927F928F92AF92BF92CF9297
:10314000DF92EF92FF920F931F93DF93CF93CDB750
:10315000DEB7C75AD0400FB6F894DEBF0FBECDBF62
:103160000E949A0C0E94D41388E10FB6F89481BD96
:1031700011BC0FBE0E94140C87E00E941D0C24EFAE
:1031800031E00DC000000000000000000000000061
:10319000000000000197B1F72150304019F088EE8F
:1031A00093E0F0CF87E00E94F60B81E00E941D0CB7
:1031B00060E076E980E00E94140967EA70E08FEF32
:1031C00092E00E943C083C016EE870E086EA93E0E1
:1031D0000E94A0151C016BE071E084E394E00E9462
:1031E000DA106C0161E18FE395E00E947A0E2C0108
:1031F000EE2401E028E040E056E960E0C6010E94CC
:10320000741020E04CE150E06EEC71E0C6010E94C9
:10321000510F00E020E030E040E050E060E0C3010A
:103220000E94F60482E00E94630888248394AA2402
:10323000BB24CC24DD24720100E010E021E030E06A
:103240004BE0B301C1010E94351520E041E058E890
:1032500067EA70E0CE0101960E94F6178C01C30167
:103260000E94E9027894FF24DD24DA94CC24C394EC
:1032700041E058E862E3C8010E94E717EF2CE394AD
:10328000D8011996ED91FC911A97309709F0F082C8
:10329000D8011B96ED91FC911C97309731F0D082AC
:1032A0001B96ED91FC911C97D182D8011D96ED9152
:1032B000FC911E97309731F0D0821D96ED91FC91D4
:1032C0001E97D182D8015196ED91FC91529730977B
:1032D00031F0C0825196ED91FC9152971182D80144
:1032E0005396ED91FC915497309731F0108253969C
:1032F000ED91FC915497118290E009C0D80192960B
:10330000ED91FC919397E90FF11D90839F5FF80178
:1033100084A1981798F341E0B801C1010E94FC1400
:10332000892BF1F084E00E943F0C81E10E94630848
:103330008E2D0E94630828EE33E00FC000000000CD
:103340000000000000000000000000000197B1F73D
:103350002150304011F4FE2C8BCF88EE93E0EECF5D
:1033600082E20E9463088E2D0E94630828EE33E0FB
:103370000EC000000000000000000000000000007F
:1033800000000197B1F72150304009F4C4CF88EE16
:1033900093E0EFCF0E94961880E090E0089590931C
:1033A000EE018093ED01089508952091ED01309193
:1033B000EE0181E897E6AC01249FC001259F900DA6
:1033C000349F900D11248E5C9A4E9093EE01809361
:1033D000ED016FEF7FE70E94471D08951F93182F9F
:1033E0000E94D519612F0E943B1D892F1F910895BE
:1033F0000E94D5190895EF92FF920F931F937B01BE
:103400008C010E94D519892B19F021E030E007C00A
:103410000E94D519009711F081E090E09C01B9015C
:10342000882777FD8095982FA80197010E945B1D42
:103430001F910F91FF90EF9008950E94D519A0E081
:10344000B0E0BC01CD010E94E51A20E03EEF4FEF55
:1034500056E40E943B1A08950E94D519A0E0B0E0FE
:10346000BC01CD010E94E51A20E03EEF4FEF56E48B
:103470000E943B1A0895A8E1B0E0E1E4FAE10C945F
:10348000851D69837A838B839C832D833E834F8341
:103490005887B9E0EB2EF12CEC0EFD1EB701CE01E2
:1034A00001960E94821C8E010F5E1F4FB801CE0153
:1034B00005960E94821C2985223008F47CC0398937
:1034C000323010F4B8017AC08A859A8989278A87B0
:1034D000243011F0223031F4231709F06CC06FEE64
:1034E00071E06CC0343039F41D861E861F86188A40
:1034F0001C861B8604C0323021F484E08987B70122
:103500005DC02B853C858B899C89281B390B3C87AA
:103510002B87ED84FE840F851889AD88BE88CF88FF
:10352000D88CEA14FB040C051D0540F4EE0CFF1CBE
:10353000001F111F215030403C872B8720E030E0D6
:1035400040E050E080E090E0A0E0B0E46FE170E0A7
:10355000EA14FB040C051D0540F0282B392B4A2BDF
:103560005B2BEA18FB080C091D09B695A7959795E2
:103570008795EE0CFF1C001F111F6150704041F732
:10358000DA01C9018F779070A070B0708034910516
:10359000A105B10561F427FD0AC0E114F10401059C
:1035A000110529F0205C3F4F4F4F5F4F20782D874A
:1035B0003E874F87588BBE01675F7F4FCB010E94CC
:1035C000AD1B6896EAE00C94A11DA8E0B0E0EBEE1C
:1035D000FAE10C94871D7B018C0161157105810551
:1035E000910519F482E0898360C083E089838EE1CC
:1035F000C82ED12CDC82CB82ED82FE820F8318870D
:10360000C801B7010E945E1BBC016150704077FF8A
:1036100039C0EE27FF27E61BF70B20E030E040E043
:1036200050E081E090E0A0E0B0E00E2E04C0880FF2
:10363000991FAA1FBB1F0A94D2F70197A109B109CC
:103640008E219F21A023B1230097A105B10521F070
:1036500021E030E040E050E004C016950795F79473
:10366000E794EA95D2F72E293F29402B512B2D8341
:103670003E834F8358878EE190E0861B970B9C8397
:103680008B8313C06115710581F0062E04C0EE0C0A
:10369000FF1C001F111F0A94D2F7ED82FE820F83D8
:1036A0001887C61AD70ADC82CB821A82CE0101960D
:1036B0000E94AD1B2896E8E00C94A31DEF92FF92A8
:1036C0000F931F937B018C0180E0E81680E0F806E1
:1036D00081E0080780E0180788F48FEFE816F1040E
:1036E0000105110531F028F088E090E0A0E0B0E09D
:1036F00017C080E090E0A0E0B0E012C080E0E816E3
:1037000080E0F80680E0080781E0180728F088E1EB
:1037100090E0A0E0B0E004C080E190E0A0E0B0E084
:1037200020E230E040E050E0281B390B4A0B5B0BF5
:1037300004C016950795F794E7948A95D2F7F70198
:10374000E950FE4F8081281B310941095109C90107
:103750001F910F91FF90EF900895DF92EF92FF92EB
:103760000F931F93FC01E480F58006811781D180BF
:103770008081823048F480E090E0A0E1B0E0E82A67
:10378000F92A0A2B1B2BA5C0843009F49FC0823074
:1037900021F4EE24FF24870105C0E114F1040105A2
:1037A000110519F4E0E0F0E096C0628173819FEFAB
:1037B000623879070CF05BC022E83FEF261B370B1D
:1037C0002A3131052CF020E030E040E050E02AC002
:1037D000B801A701022E04C07695679557954795C5
:1037E0000A94D2F781E090E0A0E0B0E004C0880F36
:1037F000991FAA1FBB1F2A95D2F70197A109B109EA
:103800008E219F21A023B1230097A105B10521F0AE
:1038100081E090E0A0E0B0E09A01AB01282B392BC9
:103820004A2B5B2BDA01C9018F779070A070B070C2
:1038300080349105A105B10539F427FF09C0205C4A
:103840003F4F4F4F5F4F04C0215C3F4F4F4F5F4F83
:10385000E0E0F0E02030A0E03A07A0E04A07A0E472
:103860005A0710F0E1E0F0E079018A0127C06038E2
:10387000710564F5FB01E158FF4FD801C7018F774F
:103880009070A070B07080349105A105B10539F435
:10389000E7FE0DC080E490E0A0E0B0E004C08FE35C
:1038A00090E0A0E0B0E0E80EF91E0A1F1B1F17FF12
:1038B00005C016950795F794E794319687E016951D
:1038C0000795F794E7948A95D1F705C0EE24FF2475
:1038D0008701EFEFF0E06E2F679566276795902FD1
:1038E0009F77D794DD24D7948E2F8695492F462B2A
:1038F000582F5D29B701CA011F910F91FF90EF90DA
:10390000DF900895FC01DB01408151812281622F0B
:103910006F7770E0221F2227221F9381892F880F43
:10392000822B282F30E0991F9927991F11969C937D
:10393000119721153105A9F541155105610571054D
:1039400011F482E037C082E89FEF13969C938E9328
:1039500012979A01AB0167E0220F331F441F551FD6
:103960006A95D1F783E08C930DC0220F331F441F5B
:10397000551F12968D919C911397019713969C93C6
:103980008E931297203080E0380780E0480780E46B
:10399000580758F314962D933D934D935C931797C6
:1039A00008952F3F310579F44115510561057105E1
:1039B00019F484E08C93089564FF03C081E08C9334
:1039C00012C01C9210C02F57304013963C932E9378
:1039D000129783E08C9387E0440F551F661F771F73
:1039E0008A95D1F7706414964D935D936D937C9393
:1039F000179708956817790768F4FB01DC01E40F55
:103A0000F51FA40FB51F02C002900E924150504006
:103A1000D8F708950C94131DDC0101C06D9341503B
:103A20005040E0F70895FB01DC0102C001900D92C7
:103A300041505040D8F70895629FD001739FF00124
:103A4000829FE00DF11D649FE00DF11D929FF00D2E
:103A5000839FF00D749FF00D659FF00D9927729F65
:103A6000B00DE11DF91F639FB00DE11DF91FBD01F0
:103A7000CF0111240895991B79E004C0991F96176E
:103A800008F0961B881F7A95C9F780950895AA1BA0
:103A9000BB1B51E107C0AA1FBB1FA617B70710F039
:103AA000A61BB70B881F991F5A95A9F7809590956B
:103AB000BC01CD010895A1E21A2EAA1BBB1BFD017A
:103AC0000DC0AA1FBB1FEE1FFF1FA217B307E407FD
:103AD000F50720F0A21BB30BE40BF50B661F771F55
:103AE000881F991F1A9469F7609570958095909535
:103AF0009B01AC01BD01CF0108952F923F924F92DF
:103B00005F926F927F928F929F92AF92BF92CF926D
:103B1000DF92EF92FF920F931F93CF93DF93CDB776
:103B2000DEB7CA1BDB0B0FB6F894DEBF0FBECDBFEE
:103B300009942A88398848885F846E847D848C84BF
:103B40009B84AA84B984C884DF80EE80FD800C81C8
:103B50001B81AA81B981CE0FD11D0FB6F894DEBFAB
:0C3B60000FBECDBFED010895F894FFCF1B
:103B6C006173736572743A002E2E2F2E2E2F636F95
:103B7C006D6D6F6E2F68616C2F68616C5F63633263
:103B8C003432302E630030313233343536373839F5
:103B9C004142434445462E2E2F2E2E2F636F6D6DC2
:103BAC006F6E2F68616C2F68616C5F696E746572E3
:103BBC00727570742E63002E2E2F2E2E2F636F6D48
:103BCC006D6F6E2F68616C2F68616C5F74696D65C9
:103BDC00722E63002E2E2F2E2E2F636F6D6D6F6E37
:103BEC002F68616C2F68616C5F756172742E630055
:103BFC002E2E2F2E2E2F636F6D6D6F6E2F7376639F
:103C0C002F7376635F616C6F68612E63002E2E2FAD
:103C1C002E2E2F636F6D6D6F6E2F72746C2F7274EE
:103C2C006C5F6F70656E6672616D652E6300776593
:103C3C006C636F6D6520746F20616C6F68612073AD
:103C4C00656E646E6F64652E2E2E00FF7FA3B6002A
:103C5C000000000000000000010202030303030443
:103C6C0004040404040404050505050505050505FF
:103C7C0005050505050505060606060606060606DF
:103C8C0006060606060606060606060606060606C8
:103C9C0006060606060606070707070707070707AF
:103CAC000707070707070707070707070707070798
:103CBC000707070707070707070707070707070788
:103CCC000707070707070707070707070707070778
:103CDC00070707070707070808080808080808085F
:103CEC000808080808080808080808080808080848
:103CFC000808080808080808080808080808080838
:103D0C000808080808080808080808080808080827
:103D1C000808080808080808080808080808080817
:103D2C000808080808080808080808080808080807
:103D3C0008080808080808080808080808080808F7
:103D4C0008080808080808080808080808080808E7
:083D5C00080808080808080027
:00000001FF
