:100000000C9446000C94D40B0C94D40B0C94F60D69
:100010000C94D40B0C94D40B0C94D40B0C94DE0BDA
:100020000C9465000C94E00C0C94B50C0C946500D9
:100030000C948A0C0C9465000C945F0C0C94340C9A
:100040000C94090C0C9465000C948C0D0C94B70D59
:100050000C9465000C94610D0C9465000C94650083
:100060000C9465000C9465000C94360D0C9465009E
:100070000C9465000C940B0D0C94E20D0C94EC0D9B
:100080000C9465000C9465000C94650011241FBE4F
:10009000CFEFD0E1DEBFCDBF12E0A0E0B1E0E6E4FB
:1000A000F7E300E00BBF02C007900D92AE33B1073B
:1000B000D9F715E0AEE3B2E001C01D92A038B10758
:1000C000E1F70E9467000C94A11B0C94F70DEF92CE
:1000D0000F931F930E94CD180E94631488E10FB6FE
:1000E000F89481BD11BC0FBE0E94420E81E00E94B7
:1000F0004B0E24EF31E00DC00000000000000000B6
:1001000000000000000000000197B1F721503040CE
:1001100019F088EE93E0F0CF87E00E94240E80E093
:1001200060E076E90E94EB0A86E492E06BE071E021
:100130000E94E20F60E040E056E928E001E0EE2492
:100140000E94251160E071E047E150E020E00E944C
:10015000031088EF93E067EA70E00E946D029C0153
:1001600060E048ED50E000E00E94ED068C016BE09D
:100170000E94CA03C8010E94CD04C80161E070E07A
:100180000E94C302C80162E070E00E94E302C8015D
:100190000E940E04C8010E94260481E593E067EAEC
:1001A00070E040E050E020E00E94121B7894FFCF06
:1001B000FF920F931F93CF93DF93F82E092F81E5C2
:1001C00093E067EA70E040E050E020E00E94121BFC
:1001D000EC0169817A818F2D902F4B8120E00E9464
:1001E0007B0580933E02882309F449C08C838EE30B
:1001F0000E943A0A1C81812F82958F700E949C0A6E
:100200000E943A0A812F8F700E949C0A0E943A0A2B
:10021000CE0160E00E94531A8823D9F0E985FA855F
:100220001081812F82958F700E949C0A0E943A0A49
:10023000812F8F700E949C0A0E943A0A8AE30E94D2
:100240003A0AE981FA81608170E06F5F7F4FCF01E8
:100250000AC088E50E943A0A8AE30E943A0A6C8141
:1002600089819A8170E00E94630A8DE00E943A0AB7
:100270008AE00E943A0A81E00E946D0EAACFDF91C7
:10028000CF911F910F91FF900895CF92DF92EF923F
:10029000FF920F931F938B01882309F092C0C52E04
:1002A000C2946FE0C6223FE0D32ED522CA0124E0DB
:1002B000969587952A95E1F79FE0E92EE8228FE051
:1002C000F82EF422F89488E191E067E070E00E9453
:1002D000530AD8010D900020E9F71197A01BB10B2C
:1002E000C8016A2F70E00E94530A88E20E943A0A0D
:1002F00080E30E943A0A88E70E943A0A8C2D0E9405
:100300009C0A0E943A0A8D2D0E949C0A0E943A0A79
:100310008E2D0E949C0A0E943A0A8F2D0E949C0AF0
:100320000E943A0A89E20E943A0A81E00E944B0E3A
:1003300024EF31E00DC000000000000000000000CC
:100340000000000000000197B1F72150304019F083
:1003500088EE93E0F0CF81E00E94240E82E00E94BC
:100360004B0E24EF31E00DC0000000000000000043
:1003700000000000000000000197B1F7215030405C
:1003800019F088EE93E0F0CF82E00E94240E84E022
:100390000E944B0E24EF31E00DC000000000000071
:1003A000000000000000000000000197B1F721509C
:1003B000304019F088EE93E0F0CF84E00E94240EE4
:1003C00081CF1F910F91FF90EF90DF90CF90089514
:1003D000FC018181089508950895FC01E857FF4FBD
:1003E00080810895FC01E757FF4F80818F77089542
:1003F00020E0FC01E757FF4F808187FD21E0822F3D
:1004000008950895FC018081882349F48AB78061AA
:100410008ABF8AB780628ABF89B7806489BF08951E
:10042000FC018081882319F489B7807489BF0895FD
:1004300008950895FC014481558187E090E0BF0153
:100440000E94160B0895FB0124E2DB011D922A9500
:10045000E9F7918380831382128286E396E0958385
:1004600084838BE795E0978386838BEE91E0918779
:1004700080878CEE91E0938782871586148682E3CD
:1004800094E09787868786E294E0918B808B8AE15F
:1004900094E0938B828B8EE094E0958B848B8AEC36
:1004A00093E0978B868B83EC92E0918F808F88E32B
:1004B00093E0938F828F83EE92E0958F848F8DE40B
:1004C00093E0978F868F8DE993E091A380A38DEEC3
:1004D00091E093A382A3CB0108950F931F93CF9331
:1004E000DF93182F092FEB0180E0673A710508F0C0
:1004F00081E060E271E04DE750E00E944501812F0C
:10050000902F60E070E0AE010E946F1B812F902F52
:10051000DF91CF911F910F910895EF92FF920F936A
:100520001F93CF93DF93EB01E42E122F032FFFB61F
:10053000F8940E9453129E0120682FB9779BFECF3A
:100540008FB1D695C7959E01207C2FB9779BFECFA2
:100550008FB1812F902F9C01F90190E007C080811D
:100560008FB9779BFECF8FB19F5F31969E15B8F301
:100570000E945112FFBE80E0DF91CF911F910F9139
:10058000FF90EF9008950F931F93DF93CF9300D0C8
:10059000CDB7DEB78C01CB017A8369830E949914B1
:1005A0009A838983C80168E671E042E09E012F5F6B
:1005B0003F4F0E948D0280E00F900F90CF91DF910E
:1005C0001F910F9108950F931F93DF93CF9300D046
:1005D000CDB7DEB78C01CB017A8369830E94991471
:1005E0009A838983C8016AE671E042E09E012F5F29
:1005F0003F4F0E948D0280E00F900F90CF91DF91CE
:100600001F910F910895EF92FF920F931F93CF9335
:10061000DF93EB01E42E122F032FFFB6F8940E9414
:1006200053129E0120682FB9779BFECF8FB1D695CC
:10063000C7959E01207E2FB9779BFECF8FB1812F6A
:10064000902F9C01F90190E006C01FB8779BFECF68
:100650008FB181939F5F9E15C0F30E945112FFBE20
:1006600080E0DF91CF911F910F91FF90EF9008955F
:10067000DF93CF9300D0CDB7DEB77A83698368E686
:1006800071E042E09E012F5F3F4F0E94030380E034
:100690000F900F90CF91DF9108959B016AE671E072
:1006A00042E00E94030380E00895EF92FF920F93CF
:1006B0001F93162FFFB6F8940E94531210641FB9AF
:1006C000779BFECF8FB11FB8779BFECF8FB11FB83E
:1006D000779BFECFEFB0182F00E00E945112FFBEB3
:1006E000FF24E02AF12AC7011F910F91FF90EF909C
:1006F0000895DF92EF92FF920F931F93162FE42E2F
:10070000052FDFB6F8940E9453121FB9779BFECFD6
:10071000FFB01F3040F00FB9779BFECF8FB1EFB81D
:10072000779BFECF8FB1DFBE0E9451128F2D1F919C
:100730000F91FF90EF90DF9008956530C9F066301B
:1007400038F4623061F0633081F06130E9F40AC05E
:100750006730A1F0673078F06830B1F412C047EE2E
:1007600050EA14C043EE50EA11C04BEE50EA0EC0FE
:1007700043EF50EA0BC047EF50EA08C04BEF50EA96
:1007800005C04FEF50EA02C04FEE50EA65E10E940B
:10079000790308951F93CF93DF93EC01162F90E018
:1007A000862F8B50803108F491E0892F60E271E050
:1007B00046EC55E00E944501812F90E00B97AC017B
:1007C0004B595E4B880F991F880F991F480F591F6F
:1007D000C556DF4F59834883CB59D040CE0168E1DD
:1007E0000E94790380E0DF91CF911F9108951F93BC
:1007F000CF93DF93EC01162F61E10E945503AC010A
:10080000112319F04061506101C04061CE0161E1E6
:100810000E947903DF91CF911F910895FC01E35766
:10082000FF4F40815181577F5183408361E10E9496
:1008300079030895FC01E357FF4F408151815860CF
:100840005183408361E10E9479030895FC01E357DD
:10085000FF4F408151814F7E5183408361E10E946F
:1008600079030895FC01E357FF4F408151814061B6
:100870005183408361E10E94790308950F931F9390
:10088000162F0FB7F8940E9453121FB9779BFECF13
:100890001FB10E9451120FBF812F1F910F91089518
:1008A0006DE00E943E0408956CE00E943E040895AD
:1008B0006AE00E943E04089569E00E943E040895A3
:1008C0000F931F938C0168E00E943E04C80168E00A
:1008D0000E943E0480E01F910F91089566E00E94FF
:1008E0003E0480E0089565E00E943E04089564E0BF
:1008F0000E943E04089563E00E943E04089562E071
:100900000E943E040895CF93DF93EC01CE0160E096
:100910000E943E0486FFFACFDF91CF91089567E0F1
:100920000E943E0480E008950E948F0408951F9362
:10093000CF93DF93EC0161E00E943E0410E015C00C
:1009400000000000000000000000000000000000A7
:100950000197B1F7CE0160E00E943E0486FF02C01D
:1009600081E007C01F5F183C19F084E690E0E8CFF3
:1009700080E0DF91CF911F9108950E949704089520
:1009800064E00E943E04089560E00E943E040895E1
:1009900064E00E943E0480E0089563E00E943E040B
:1009A00080E00895DF92EF92FF920F931F93CF9311
:1009B000DF93EC017B01042FDFB6F8940E948304DF
:1009C000CE0160E00E943E0486FFFACF0E945312DF
:1009D0008FE78FB9779BFECF8FB1C657DF4F8883E4
:1009E000CA58D0401FB8779BFECF1FB1153008F50D
:1009F000CE0168E00E943E0485E090E00000000027
:100A00000000000000000000000000000197B1F7A6
:100A1000CE0168E00E943E0485E090E00000000006
:100A20000000000000000000000000000197B1F786
:100A30002CC017FD22C040E0212F30E0802F90E035
:100A4000281739070CF441E0842F60E271E04AEA8C
:100A500052E00E944501101780F4F701108391E0E5
:100A60001FB8779BFECF8FB1F701E90FF11D80838F
:100A70009F5F1917A8F71F5F09C0CE0168E00E94A9
:100A80003E04CE0168E00E943E0410E00E94511234
:100A9000DFBE812FDF91CF911F910F91FF90EF90DB
:100AA000DF9008950E94071288E097E000000000A0
:100AB0000000000000000000000000000197B1F7F6
:100AC00080E008950E94520508950E94051288E072
:100AD00097E000000000000000000000000000009F
:100AE00000000197B1F780E008950E946505089520
:100AF0000E942F120895CF92DF92EF92FF920F93F0
:100B00001F93CF93DF93EC017B018981813011F436
:100B1000198204C0882311F0DD2478C0CFB6F89480
:100B20008F81882309F44EC08F8190E0481708F028
:100B300091E0892F60E271E040EB53E00E944501B3
:100B40008E01085F1F4F4F81C701B80150E00E941E
:100B50005D1BDF801F820E9B58C0CE01B80140E8AC
:100B600020E00E94D2048F838F81882329F08F8117
:100B700020E030E0853010F021E030E0822F60E2AC
:100B800071E041ED53E00E9445018F818530E8F12D
:100B9000EF81F0E03297EC0FFD1F8085C857DF4FE3
:100BA0008883C858D040EF81F0E03197EC0FFD1FEB
:100BB0008085C757DF4F8883C958D04087FD25C03F
:100BC0001F8223C00E9B20C0CE01B70120E00E94EF
:100BD000D204D82E90E08150843008F091E0892F23
:100BE00060E271E04DEF53E00E94450184E08D1515
:100BF00060F4C857DF4FF701ED0DF11D3297819179
:100C000089938081888387FFDD24CFBE8D2DDF917E
:100C1000CF911F910F91FF90EF90DF90CF900895AB
:100C2000BF92CF92DF92EF92FF920F931F936C01CE
:100C30008B01B42ECB010E9429157C01C8010E94B2
:100C40006415482FC601B7012B2D0E947B05F82E95
:100C5000C8016F2D70E00E94F1148F2D1F910F912C
:100C6000FF90EF90DF90CF90BF900895CF92DF92EA
:100C7000EF92FF920F931F93CF93DF93EC016B01E1
:100C8000142F81E0898320FF04C0FB0181818062F1
:100C900003C0FB0181818F7D8183812F85508B373C
:100CA00010F010E033C00FB7F8940E9453128EE397
:100CB0008FB9779BFECF8FB1C657DF4F8883CA5855
:100CC000D04011501FB91F5F779BFECF8FB1F60147
:100CD00091E007C081818FB9779BFECF8FB19F5F75
:100CE00031969117B8F30E9451120FBF0E942F1234
:100CF000892BE1F3CE0164E00E943E040E9442127F
:100D00000197E1F70E9442120197E1F3E12EFF24DF
:100D10001982E114F10439F1F601818185FF23C0C4
:100D20001F8200E010E038E0C32ED12CCC0EDD1E77
:100D300024C00000000000000000000000000000CF
:100D400000000197B1F7CE01B60140E820E00E9413
:100D50007B05882341F40F5F1F4FF3E00E3F1F0711
:100D600061F4EE24FF248E2DDF91CF911F910F911E
:100D7000FF90EF90DF90CF9008958AE090E0D9CF78
:100D8000BF92CF92DF92EF92FF920F931F936C016D
:100D90008B01B42ECB010E9429157C01C8010E9451
:100DA000B715482FC601B7012B2D0E9436061F919B
:100DB0000F91FF90EF90DF90CF90BF900895FC01CE
:100DC0008081882319F489B7807489BF87E00E94E5
:100DD0008A0B08950E94DF0608952F923F924F924A
:100DE0005F926F927F928F929F92AF92BF92CF92BB
:100DF000DF92EF92FF920F931F93DF93CF9300D078
:100E000000D000D0CDB7DEB7FC0110821182538331
:100E10004283358324830683E857FF4F1192119252
:100E20001082EA58F040FE83ED8317820E943D1342
:100E30000E9428130E944B130E9401120E94141258
:100E40000E945B120E9429120E943C120E944F12C3
:100E50000E946F121FB7F8940E944B130E943D131B
:100E60000E942813709A6C9A6B986A98699868988F
:100E70006E9A1FBF8D819E810E9465050E94F411AC
:100E800084E690E000000000000000000000000088
:100E9000000000000197B1F70E94F21184E690E093
:100EA0000000000000000000000000000000000042
:100EB0000197B1F78D819E810E949704882309F4E0
:100EC0002DC082E00E944B0E24E630E00DC00000F1
:100ED000000000000000000000000000000001977A
:100EE000B1F72150304019F088EE93E0F0CF82E066
:100EF0000E94240E28EE33E00EC000000000000027
:100F0000000000000000000000000197B1F7215030
:100F1000304009F42FC088EE93E0EFCF84E00E94C8
:100F20004B0E24E630E00DC0000000000000000081
:100F300000000000000000000197B1F72150304090
:100F400019F088EE93E0F0CF84E00E94240E28EEA2
:100F500033E00DC0000000000000000000000000B1
:100F6000000000000197B1F72150304019F088EEE1
:100F700093E0F0CF0D811E8105571F4F20E038EF21
:100F8000F80131832083ADE8EA2EF12C8D819E811A
:100F9000E80EF91E82EE92E0F70191838083FFE86C
:100FA000CF2ED12C8D819E81C80ED91E80E095E078
:100FB000F60191838083E1E9AE2EB12C8D819E8173
:100FC000A80EB91E80E890EEF5019183808373E945
:100FD000872E912C8D819E81880E991E8FE097EA35
:100FE000F4019183808365E9662E712C8D819E8149
:100FF000680E791E8FEF90E6F3019183808357E9A5
:10100000452E512C8D819E81480E591E85EE92E110
:10101000F2019183808349E9242E312C8D819E81B8
:10102000280E391E86E59AE0F101918380838D8137
:101030009E8185569F4F9A83898385E691E4E98155
:10104000FA81918380838D819E8183569F4F9C83FB
:101050008B8384EC91E0EB81FC81918380838D8193
:101060009E8181569F4FFC01119211921192119213
:101070008FE790E08193919311821082E55AF040BE
:10108000FE83ED83A901CF0160E10E9479038D8188
:101090009E8160E10E945503F80120813181821711
:1010A000930709F013C1F701408151818D819E8121
:1010B00061E10E9479038D819E8161E10E94550367
:1010C000F701208131818217930709F0FFC0F601F3
:1010D000408151818D819E8162E10E9479038D81E1
:1010E0009E8162E10E945503F601208131818217C1
:1010F000930709F0EBC0F501408151818D819E81FC
:1011000063E10E9479038D819E8163E10E94550312
:10111000F501208131818217930709F0D7C0F401CE
:10112000408151818D819E8164E10E9479038D818E
:101130009E8164E10E945503F40120813181821770
:10114000930709F0C3C0F301408151818D819E81D5
:1011500065E10E9479038D819E8165E10E945503BE
:10116000F301208131818217930709F0AFC0F201AA
:10117000408151818D819E8166E10E9479038D813C
:101180009E8166E10E945503F20120813181821720
:10119000930709F09BC0F101408151818D819E81AF
:1011A00067E10E9479038D819E8167E10E9455036A
:1011B000F101208131818217930709F087C0E9810D
:1011C000FA81408151818D819E8168E10E9479037D
:1011D0008D819E8168E10E945503E981FA81208119
:1011E00031818217930709F071C0EB81FC81408146
:1011F00051818D819E8169E10E9479038D819E815B
:1012000069E10E945503EB81FC81208131818217C5
:10121000930709F05BC00D811E8101561F4FF80135
:10122000408151818D819E816AE10E9479038D8187
:101230009E816AE10E945503F80120813181821765
:10124000930709F043C00D811E810D551F4FF80112
:10125000408151818D819E816CE10E9479038D8155
:101260009E816CE10E945503F80120813181821733
:10127000930761F50D811E810B551F4FF8014081C9
:1012800051818D819E816DE10E9479038D819E81C6
:101290006DE10E945503F801208131818217930787
:1012A000A9F48D819E8169E00E943E048D819E811A
:1012B00068E00E943E048D819E8168E00E943E04A9
:1012C00082E00E944B0E24E630E013C084E00E94CE
:1012D0004B0E28EE33E034C0000000000000000098
:1012E00000000000000000000197B1F721503040DD
:1012F00019F088EE93E0F0CF82E00E94240E24E6FD
:1013000030E00EC0000000000000000000000000FF
:10131000000000000197B1F72150304009F429C0C6
:1013200088EE93E0EFCF0000000000000000000016
:101330000000000000000197B1F72150304019F083
:1013400088EE93E0F0CF84E00E94240E28EE33E094
:101350000DC00000000000000000000000000000C0
:1013600000000197B1F72150304019F088EE93E06A
:10137000F0CF8D819E816BE00E94CA038D819E819A
:101380000E941A048D819E8161E070E00E94C30278
:101390008D819E8161E070E00E94E3028D819E81DB
:1013A0000E9426048D819E810E94CD048D819E81A4
:1013B0000E94830487E06AE07AE04D815E810E94AA
:1013C000760BED81FE818081882349F48AB78061A4
:1013D0008ABF8AB780628ABF89B7806489BF8D81DE
:1013E0009E8126960FB6F894DEBF0FBECDBFCF917B
:1013F000DF911F910F91FF90EF90DF90CF90BF9002
:10140000AF909F908F907F906F905F904F903F90A4
:101410002F900895CF93DF93EC010E946312892BE4
:1014200059F40E9B09C0CE0168E00E943E04CE0133
:1014300068E00E943E0414C0EA81FB81309731F0DD
:101440008C819D8160E070E009950AC08F81BE01AA
:10145000685F7F4FCE0140E820E00E94D2048F8376
:10146000DF91CF91089510929F0408955F9BFECF66
:101470008CB108955D9BFECF8CB90895E82FE2955D
:10148000EF70F0E0E15BFE4FE0815D9BFECFECB9D9
:10149000E82FF0E0EF70F070E15BFE4F80815D9B24
:1014A000FECF8CB9089520E030E009C0FC01E20FC6
:1014B000F31FE0815D9BFECFECB92F5F3F4F2617F6
:1014C0003707A0F3089520E030E050E21DC0FC0192
:1014D000E20FF31F4081E42FE295EF70F0E0E15B53
:1014E000FE4FE0815D9BFECFECB9E42FF0E0EF70A2
:1014F000F070E15BFE4FE0815D9BFECFECB95D9B40
:10150000FECF5CB92F5F3F4F2617370700F30895D2
:1015100080919F04482F50E0E0EAF4E020E030E0C2
:1015200007C090815D9BFECF9CB92F5F3F4F3196E6
:1015300024173507B0F30895E82FF0E0EF70F0704E
:10154000E15BFE4F80810895CF93DF93DC01E09152
:101550009F0440E450E04E1B5109EB01461757072A
:1015600008F4EA018E2F90E080569B4FBD01AE013A
:101570000E945D1B80919F048C0F80939F04CE017D
:10158000DF91CF910895DC010D900020E9F71197CC
:10159000A81BB90B20E030E01AC0FC01E20FF31FDA
:1015A0004081E42FE295EF70F0E0E15BFE4FE081D7
:1015B0005D9BFECFECB9E42FF0E0EF70F070E15BE3
:1015C000FE4FE0815D9BFECFECB92F5F3F4F2A17A6
:1015D0003B0718F3089580913F02882381F481E44A
:1015E000EFE9F4E0DF011D928A95E9F71098119A6E
:1015F0008CE089B988E18AB981E080933F0208953F
:10160000909342028093410270934402609343029C
:101610000895BC01E0914102F0914202309729F017
:10162000809143029091440209950895DF93CF93EE
:10163000CDB7DEB728970FB6F894DEBF0FBECDBF8B
:101640009C01E0914102F09142023097A9F04115CE
:10165000510521F4409143025091440258874F8331
:1016600080914302909144027E836D833A83298363
:10167000BE016F5F7F4F099528960FB6F894DEBFC5
:101680000FBECDBFCF91DF9108951092400290938D
:10169000420280934102709344026093430280EAC5
:1016A000E0EEF4E0DF011D928A95E9F70895AC01C0
:1016B0008830910550F429B781E090E002C0880F8E
:1016C000991F4A95E2F7282B29BF0895AC0188306D
:1016D000910558F429B781E090E002C0880F991F66
:1016E0004A95E2F78095822389BF0895282F30E03C
:1016F0002F713070F901EE0FFF1FEE0FFF1FE20F89
:10170000F31FE052FB4F80837283618354834383D2
:10171000C9010895282F30E02F713070F901EE0FC4
:10172000FF1FEE0FFF1FE20FF31FE052FB4F10826F
:101730001282118214821382C9010895DB019A0179
:10174000482F50E04F715070FA01EE0FFF1FEE0F5F
:10175000FF1FE40FF51FE052FB4F818192818D93B3
:101760009C9383819481D9018D939C9381819281F3
:10177000892B11F44FEF5FEFCA01089590E08F714C
:101780009070FC01EE0FFF1FEE0FFF1FE80FF91F17
:10179000E052FB4F218132812115310521F08381F7
:1017A0009481F901099508951F920F920FB60F9237
:1017B00011240F900FBE0F901F9018951F920F923B
:1017C0000FB60F920BB60F9211242F933F934F93A6
:1017D0005F936F937F938F939F93AF93BF93EF9399
:1017E000FF9387E060E070E00E94BE0BFF91EF91F5
:1017F000BF91AF919F918F917F916F915F914F9129
:101800003F912F910F900BBE0F900FBE0F901F9026
:1018100018951F920F920FB60F920BB60F921124CC
:101820002F933F934F935F936F937F938F939F93E8
:10183000AF93BF93EF93FF9380E160E070E00E946D
:10184000BE0BFF91EF91BF91AF919F918F917F91CF
:101850006F915F914F913F912F910F900BBE0F9021
:101860000FBE0F901F9018951F920F920FB60F92F8
:101870000BB60F9211242F933F934F935F936F9367
:101880007F938F939F93AF93BF93EF93FF938FE0DB
:1018900060E070E00E94BE0BFF91EF91BF91AF91AD
:1018A0009F918F917F916F915F914F913F912F9178
:1018B0000F900BBE0F900FBE0F901F9018951F92A8
:1018C0000F920FB60F920BB60F9211242F933F93E6
:1018D0004F935F936F937F938F939F93AF93BF9338
:1018E000EF93FF938EE060E070E00E94BE0BFF91EB
:1018F000EF91BF91AF919F918F917F916F915F9188
:101900004F913F912F910F900BBE0F900FBE0F90F4
:101910001F9018951F920F920FB60F920BB60F9251
:1019200011242F933F934F935F936F937F938F93E4
:101930009F93AF93BF93EF93FF938CE060E070E0D1
:101940000E94BE0BFF91EF91BF91AF919F918F913C
:101950007F916F915F914F913F912F910F900BBEAF
:101960000F900FBE0F901F9018951F920F920FB6F9
:101970000F920BB60F9211242F933F934F935F93C7
:101980006F937F938F939F93AF93BF93EF93FF9347
:101990008AE060E070E00E94BE0BFF91EF91BF9182
:1019A000AF919F918F917F916F915F914F913F91F7
:1019B0002F910F900BBE0F900FBE0F901F90189598
:1019C0001F920F920FB60F920BB60F9211242F9306
:1019D0003F934F935F936F937F938F939F93AF93B7
:1019E000BF93EF93FF9389E060E070E00E94BE0B2D
:1019F000FF91EF91BF91AF919F918F917F916F91E7
:101A00005F914F913F912F910F900BBE0F900FBEA2
:101A10000F901F9018951F920F920FB60F920BB652
:101A20000F9211242F933F934F935F936F937F9364
:101A30008F939F93AF93BF93EF93FF938DE160E0FC
:101A400070E00E94BE0BFF91EF91BF91AF919F910B
:101A50008F917F916F915F914F913F912F910F9057
:101A60000BBE0F900FBE0F901F9018951F920F92F4
:101A70000FB60F920BB60F9211242F933F934F93F3
:101A80005F936F937F938F939F93AF93BF93EF93E6
:101A9000FF938AE160E070E00E94BE0BFF91EF913E
:101AA000BF91AF919F918F917F916F915F914F9176
:101AB0003F912F910F900BBE0F900FBE0F901F9074
:101AC00018951F920F920FB60F920BB60F9211241A
:101AD0002F933F934F935F936F937F938F939F9336
:101AE000AF93BF93EF93FF9385E160E070E00E94B6
:101AF000BE0BFF91EF91BF91AF919F918F917F911D
:101B00006F915F914F913F912F910F900BBE0F906E
:101B10000FBE0F901F9018951F920F920FB60F9245
:101B20000BB60F9211242F933F934F935F936F93B4
:101B30007F938F939F93AF93BF93EF93FF9382E134
:101B400060E070E00E94BE0BFF91EF91BF91AF91FA
:101B50009F918F917F916F915F914F913F912F91C5
:101B60000F900BBE0F900FBE0F901F9018951F92F5
:101B70000F920FB60F920BB60F9211242F933F9333
:101B80004F935F936F937F938F939F93AF93BF9385
:101B9000EF93FF9383E160E070E00E94BE0BFF9142
:101BA000EF91BF91AF919F918F917F916F915F91D5
:101BB0004F913F912F910F900BBE0F900FBE0F9042
:101BC0001F9018951F920F920FB60F9211240F902D
:101BD0000FBE0F901F9018951F920F920FB60F9285
:101BE00011240F900FBE0F901F90189518951F92FB
:101BF0000F920FB60F920BB60F9211242F933F93B3
:101C00004F935F936F937F938F939F93AF93BF9304
:101C1000EF93FF9380E06FE571E046E951E00E94A9
:101C20004501FF91EF91BF91AF919F918F917F916E
:101C30006F915F914F913F912F910F900BBE0F903D
:101C40000FBE0F901F901895282F80FF06C0DA9ABC
:101C50008091450281608093450221FF06C0D99A98
:101C60008091450282608093450222FF06C0D89A87
:101C700080914502846080934502089587E00E9428
:101C8000240E089510924502D09AD19AD29A87E0F4
:101C90000E94240E0895282F80FF06C0DA988091B4
:101CA00045028E7F8093450221FF06C0D99880911E
:101CB00045028D7F8093450222FF06C0D89880910F
:101CC00045028B7F809345020895662319F00E9498
:101CD000240E08950E944B0E0895282F80FF0BC0FC
:101CE0009091450290FF03C0DA989E7F02C0DA9A75
:101CF00091609093450221FF0BC09091450291FFA6
:101D000003C0D9989D7F02C0D99A926090934502F2
:101D100022FF0DC08091450282FF05C0D8988B7FBD
:101D2000809345020895D89A84608093450208956F
:101D3000FF920F931F93CF93DF93F82E8B01EA014D
:101D40004115510511F4CFEFDFEF87E00E94240E1B
:101D500017C08F2D0E946D0E98010EC088EE93E083
:101D60000000000000000000000000000000000073
:101D70000197B1F721503040121613067CF32197DA
:101D8000209739F7DF91CF911F910F91FF90089520
:101D90000895FC0160830895089580E0089580E02F
:101DA000089580E00895089580E0089580E0089502
:101DB00008950895FB01118210820895FB0111829C
:101DC00010820895FF920F931F93082FF92E162F5C
:101DD00080E0611181E061E971E04DE550E00E9431
:101DE0004501802F9F2D60E070E0412F50E00E9460
:101DF0006F1B802F9F2D1F910F91FF900895DC0185
:101E000090914002992309F4F89416968C911697B4
:101E10002FE730E0281B31091216130674F41696CA
:101E20008C911697FD01E80FF11D618716968C9134
:101E300016978F5F16968C93169717968C91179717
:101E4000882379F48C91882319F0813051F404C0EF
:101E50005D9BFECF559A05C080919A008062809369
:101E60009A0090934002992309F47894121613066D
:101E70001CF02FEF3FEF02C020E030E0C9010895D1
:101E8000DC0118962C9118978FE790E0821B91093E
:101E90001816190684F418968C9118979CB1FD01B8
:101EA000E80FF11DE857FF4F908318968C91189713
:101EB0008F5F18968C930895DC0117969C91179765
:101EC00016968C911697981778F417968C91179709
:101ED000FD01E80FF11D81858CB917968C9117973C
:101EE0008F5F17968C930895559816961C921697A7
:101EF00017961C920895DC0118962C9118978FE77D
:101F000090E0821B9109181619068CF418968C9192
:101F1000189790919C00FD01E80FF11DE857FF4FC5
:101F2000908318968C9118978F5F18968C930895CC
:101F3000DC0117969C91179716968C911697981717
:101F400080F417968C911797FD01E80FF11D81859C
:101F500080939C0017968C9117978F5F17968C93A0
:101F60000895559816961C92169717961C920895E8
:101F70000F931F93CF93DF938C01EB0180E06115EA
:101F8000710509F081E06DEB71E04FE552E00E94D0
:101F900045018CE0FE0111928A95E9F71B830A83C3
:101FA00088E790E19F838E8383E090E19D838C831B
:101FB000198618861B861A86CE01DF91CF911F9154
:101FC0000F9108950F931F93CF93DF93182F092F2D
:101FD000EB0180E091E06B30790708F081E06DEB78
:101FE00071E048E750E00E944501812F902F60E0AA
:101FF00070E0AE010E946F1B812F902FDF91CF9177
:102000001F910F910895BF92CF92DF92EF92FF92AE
:102010000F931F93CF93DF938C016B017A01B22E44
:1020200080914002882309F4F8948F5F80934002E6
:10203000F80186814FE750E09A01281B31092E15DF
:102040003F0528F48681EA01C81BD10901C0E701D8
:102050001C161D0674F4F801868190E00996800F25
:10206000911FB601AE010E945D1BF80186818C0FA5
:102070008683F8018781882379F48081882319F089
:10208000813051F404C05D9BFECF559A05C080910C
:102090009A00806280939A008091400281508093E0
:1020A0004002882309F47894B0FC16C0F8018681B8
:1020B0008823E1F7CE15DF0580F4A7014C1B5D0BEB
:1020C000C801CC0DDD1DBE012B2D0E940310F801AF
:1020D00086818823E1F701C07E01C701DF91CF919E
:1020E0001F910F91FF90EF90DF90CF90BF900895D8
:1020F000EF92FF920F931F93CF93DF93EC018091A8
:102100004002882309F4F8948F5F80934002888509
:1021100090E08417950720F48885082F10E001C00F
:102120008A0101151105D1F088E8E82EF12CEC0E9A
:10213000FD1ECB01B701A8010E945D1B8885801B95
:1021400088878885882351F0B80168577F4F6C0FC6
:102150007D1F4885C70150E00E945D1B80914002B1
:10216000815080934002882309F47894C801DF915C
:10217000CF911F910F91FF90EF900895CF93DF9330
:10218000DC01EB0180914002882309F4F8948F5F11
:102190008093400218968C911897882319F42FEF9A
:1021A0003FEF18C0FD01E857FF4F808188831896E4
:1021B0008C911897815018968C93189718964C917B
:1021C0001897CF01A757BF4FBD0150E00E945D1B7C
:1021D00020E030E0809140028150809340028823CB
:1021E00009F47894C901DF91CF910895DF93CF93DB
:1021F0000F92CDB7DEB7FC0180858823E9F3198201
:10220000CF01BE016F5F7F4F0E94BE1089810F908A
:10221000CF91DF910895FC0110861682E081EE23B4
:1022200019F0E13071F407C08EE10E948A0B8FE152
:102230000E948A0B08958EE10E948A0B8FE10E9412
:102240008A0B08950E940B110895EF920F93CF937C
:10225000DF93EC0168835A8349832B830C83ED82DF
:102260001E821F821886C95FDE4F19921992198249
:102270001882C950D140662329F06130F1F0C0E0E6
:10228000D0E042C01098119A86E94030580729F0F2
:102290004050514E29F488E001C08CE089B901C05A
:1022A00019B888E98AB982E160E47FE0AE010E9452
:1022B000760B83E16CE57FE024C09A0140E050E0BA
:1022C00094E0220F331F441F551F9A95D1F760E009
:1022D00072E18AE790E00E947F1B215010929800E3
:1022E0002093990088E980939A0086E080939D006E
:1022F0008EE16BE77FE0AE010E94760B8FE168E92B
:102300007FE0AE010E94760BCE01DF91CF910F915D
:10231000EF900895DA9A0895DA98089529B330E095
:10232000369527953695279521703070C901089507
:10233000D29A0895D2980895D99A0895D99808956F
:1023400029B330E03695279521703070C901089582
:10235000D19A0895D1980895D89A0895D898089553
:1023600029B330E021703070C9010895D09A0895E2
:10237000D0980895DC9A0895DC98089529B330E048
:1023800044E0369527954A95E1F721703070C901F0
:102390000895D49A0895D4980895DD9A0895DD9803
:1023A000089529B330E055E0369527955A95E1F721
:1023B00021703070C9010895D59A0895D59808956F
:1023C000DF9A0895DF98089529B3332727FD3095C4
:1023D0002227330F221F3327C9010895D79A089562
:1023E000D7980895DE9A0895DE98089529B330E0CD
:1023F00076E0369527957A95E1F721703070C9011E
:102400000895D69A0895D6980895DD9A0895DD988E
:10241000089529B330E0E5E036952795EA95E1F790
:1024200021703070C9010895D59A0895D5980895FE
:102430001E9A08951E98089521B130E0F6E0369571
:102440002795FA95E1F721703070C9010895169A21
:10245000089516980895969A08959698089520B329
:1024600030E0A6E036952795AA95E1F72170307007
:10247000C90108958E9A08958E980895949A0895A2
:102480009498089520B330E0B4E036952795BA9536
:10249000E1F721703070C90108958C9A08958C98E5
:1024A0000895C09A0895C098089526B330E0217029
:1024B0003070C9010895B89A0895B8980895C79AD8
:1024C0000895C798089526B3332727FD309522270E
:1024D000330F221F3327C9010895BF9A0895BF986B
:1024E0000895969A08959698089520B330E096E05E
:1024F000369527959A95E1F721703070C9010895B6
:102500008E9A08958E980895DB9A0895DB98089521
:1025100029B330E043E0369527954A95E1F72170DD
:102520003070C9010895D39A0895D3980895959A63
:1025300008959598089520B330E055E03695279595
:102540005A95E1F721703070C90108958D9A089568
:102550008D980895939A08959398089520B330E044
:1025600063E0369527956A95E1F721703070C901CF
:1025700008958B9A08958B980895929A0895929849
:10258000089520B330E0369527953695279521702C
:102590003070C90108958A9A08958A9808951C9AFE
:1025A00008951C98089521B130E0E4E03695279510
:1025B000EA95E1F721703070C9010895149A0895E1
:1025C000149808951D9A08951D98089521B130E03A
:1025D000F5E036952795FA95E1F721703070C9013D
:1025E0000895159A0895159808951E9A08951E98AD
:1025F000089521B130E0A6E036952795AA95E1F738
:1026000021703070C9010895169A0895169808959A
:102610001F9A08951F98089521B1332727FD3095FB
:102620002227330F221F3327C9010895179A0895CF
:1026300017980895C29A0895C298089526B330E075
:10264000369527953695279521703070C9010895E4
:10265000BA9A0895BA980895C39A0895C3980895A8
:1026600026B330E093E0369527959A95E1F72170EF
:102670003070C9010895BB9A0895BB980895C19A16
:102680000895C198089526B330E0369527952170B6
:102690003070C9010895B99A0895B9980895A89A13
:1026A0000895A898089523B330E021703070C901CF
:1026B0000895A09A0895A0980895A99A0895A998B0
:1026C000089523B330E03695279521703070C90105
:1026D0000895A19A0895A1980895AA9A0895AA988C
:1026E000089523B330E036952795369527952170C8
:1026F0003070C9010895A29A0895A2980895AB9ADE
:102700000895AB98089523B330E073E0369527958C
:102710007A95E1F721703070C9010895A39A089560
:10272000A3980895AC9A0895AC98089523B330E027
:10273000E4E036952795EA95E1F721703070C901FC
:102740000895A49A0895A4980895AD9A0895AD980F
:10275000089523B330E0F5E036952795FA95E1F733
:1027600021703070C9010895A59A0895A59808951B
:10277000AE9A0895AE98089523B330E0A6E036955A
:102780002795AA95E1F721703070C9010895A69A9E
:102790000895A6980895AF9A0895AF98089523B321
:1027A000332727FD30952227330F221F3327C901F6
:1027B0000895A79A0895A7980895909A08959098D3
:1027C000089520B330E021703070C9010895889ACF
:1027D000089588980895919A08959198089520B33E
:1027E00030E03695279521703070C9010895899A97
:1027F000089589980895189A08951898089521B110
:1028000030E021703070C9010895109A0895109831
:102810000895199A08951998089521B130E03695D0
:10282000279521703070C9010895119A0895119863
:1028300008951A9A08951A98089521B130E03695AE
:1028400027953695279521703070C9010895129A01
:10285000089512980895929A08959298089520B331
:1028600030E0369527953695279521703070C9014F
:1028700008958A9A08958A980895939A0895939846
:10288000089520B330E063E0369527956A95E1F727
:1028900021703070C90108958B9A08958B9808951E
:1028A000959A08959598089520B330E075E036958F
:1028B00027957A95E1F721703070C90108958D9AB6
:1028C00008958D980895D29AD09AD19AA79AA69AE7
:1028D000A59AA49AA39AA29AA19AA09ABB98BA9AE6
:1028E000B99AD69AD59AB89816988E988C98BF9817
:1028F0008E98D498DC98D39A8B9A8D9ADB9ADA9A30
:10290000D89AD99A0895DF93CF9300D0CDB7DEB788
:1029100081E089831A8220E030E089819A810197E1
:1029200011F421E030E0C9010F900F90CF91DF91B9
:102930000895DF93CF9300D0CDB7DEB79C0181E03F
:1029400089831A8289819A81019719F0822F232F16
:10295000382FC9010F900F90CF91DF910895DF9329
:10296000CF9300D0CDB7DEB79C0181E089831A8276
:1029700089819A81019719F0822F232F382FC9015D
:102980000F900F90CF91DF910895813009F461E0AD
:10299000862F0895413009F421E0613009F421E0E7
:1029A000813009F421E0822F0895FC017183608356
:1029B000665070407383628315821482089520E00C
:1029C000FC0184819581892B09F421E0822F0895EF
:1029D000FC012281338184819581281B390BC90137
:1029E0000895FC01758364830895FC0184819581B9
:1029F000860F971F958384830895CF93DF93EC010F
:102A000080E0209709F081E06AEE71E041E650E055
:102A10000E94450140E02C813D818A819B812817DD
:102A2000390709F441E0842FDF91CF910895CF93C6
:102A3000DF93EC0180E0209709F081E06AEE71E01D
:102A40004BE550E00E9445011D821C82DF91CF9131
:102A50000895CF93DF93EC0180E0209709F081E0A7
:102A60006AEE71E04FE450E00E9445019E012A5F4A
:102A70003F4FC901DF91CF910895FC018481958179
:102A8000892B19F0CF010E9429150895FF920F9309
:102A90001F938C01F62E0E942915D8011496ED91F2
:102AA000FC911597E80FF91FF08214968D919C9177
:102AB0001597019615969C938E93149781E090E05C
:102AC0001F910F91FF900895CF93DF93EC0180E069
:102AD000209709F081E06AEE71E049E450E00E943D
:102AE00045018A819B81DF91CF910895EF92FF92FA
:102AF0000F931F93CF93DF938C01EB01E42EFF2400
:102B0000009711F0FF24F3948F2D6AEE71E049E4F1
:102B100050E00E94450120E0F80182819381C817AE
:102B2000D90708F421E0822F6AEE71E049EA50E00B
:102B30000E9445018F2D6AEE71E049E450E00E9449
:102B40004501F80182819381C817D90710F080E010
:102B500007C0C8010E942915C80FD91FE88281E06B
:102B6000DF91CF911F910F91FF90EF900895CF9338
:102B7000DF93EC0180E0209709F081E06AEE71E0DC
:102B800043E450E00E9445018C819D81DF91CF910B
:102B90000895CF92DF92FF920F931F93CF93DF930D
:102BA0008C01EB016A01FF24009711F0FF24F394DC
:102BB0008F2D6AEE71E043E450E00E94450120E071
:102BC000F80184819581C817D90708F421E0822F84
:102BD0006AEE71E045EB50E00E9445018F2D6AEEF0
:102BE00071E043E450E00E944501F8018481958141
:102BF000C817D90710F080E009C0C8010E94291544
:102C0000C80FD91F8881F601808381E0DF91CF91C1
:102C10001F910F91FF90DF90CF900895EF92FF9258
:102C20000F93CF93DF93EC0100E0009709F001E0F0
:102C3000802F6AEE71E045E550E00E944501CE012B
:102C40000E9429157C01802F6AEE71E043E450E078
:102C50000E9445012C813D812E0D3F1DC901DF9150
:102C6000CF910F91FF90EF900895CF93DF93EC01F8
:102C700080E0209709F081E06AEE71E049E350E0DE
:102C80000E9445018C819D81892B19F420E030E060
:102C900003C09E012A5F3F4FC901DF91CF91089584
:102CA000CF93DF93EC0180E0209709F081E06AEE9A
:102CB00071E049E250E00E9445011D821C82DF91D3
:102CC000CF910895CF92DF92EF92FF920F931F93CF
:102CD000CF93DF936C017B01009719F480E090E0C3
:102CE00006C0CB016115710511F081E090E06AEE3C
:102CF00071E047EE50E00E944501F601C281D381A8
:102D000084819581C81BD90B80E0E114F10409F09E
:102D100081E06AEE71E043E450E00E944501F70172
:102D2000848195818C179D0708F4EC01209799F018
:102D3000C6010E940E168C01C7010E942915BC0114
:102D4000C801AE010E945D1BF601848195818C0F44
:102D50009D1F95838483CE01DF91CF911F910F91A9
:102D6000FF90EF90DF90CF900895CF92DF92EF9297
:102D7000FF920F931F93CF93DF937C01EB0110E041
:102D80006115710509F011E0812F6AEE71E049E4E7
:102D900050E00E944501CA80DB8000E0E114F104AC
:102DA00009F001E0802F6AEE71E043E450E00E94F8
:102DB0004501F70184819581C816D90650F4812F09
:102DC0006AEE71E049E450E00E944501CA80DB8070
:102DD0000AC0802F6AEE71E043E450E00E94450192
:102DE000F701C480D580CE010E9429158C01C7014E
:102DF0000E943516BC01C801A6010E945D1BCC8251
:102E0000DD82C601DF91CF911F910F91FF90EF906E
:102E1000DF90CF900895CF92DF92EF92FF920F93C1
:102E20001F93CF93DF93EC017B0110E0009709F033
:102E300011E0812F6AEE71E049E450E00E94450103
:102E4000CA80DB8000E0E114F10409F001E0802F8A
:102E50006AEE71E043E450E00E944501F70184818D
:102E60009581C816D90650F4812F6AEE71E049E4C5
:102E700050E00E944501CA80DB800AC0802F6AEEC4
:102E800071E043E450E00E944501F701C480D58021
:102E9000CE010E9429158C01C7010E943516BC0184
:102EA000C801A6010E945D1BCC82DD82C601DF91B4
:102EB000CF911F910F91FF90EF90DF90CF900895E9
:102EC000EF92FF920F931F93CF93DF93EC017B015F
:102ED0008C819D8168177907C0F4CE010E94291565
:102EE0008C01CE010E942915BC016E0D7F1D4C8105
:102EF0005D814E195F09C8010E945D1B8C819D8117
:102F00008E199F099D838C8302C01D821C82DF91D4
:102F1000CF911F910F91FF90EF900895CF92DF9284
:102F2000EF92FF920F931F93CF93DF937C01EB01FE
:102F300010E06115710509F011E0812F6AEE71E072
:102F400049E450E00E944501CA80DB8000E0E114C2
:102F5000F10409F001E0802F6AEE71E043E450E0F3
:102F60000E944501F70184819581C816D90650F465
:102F7000812F6AEE71E049E450E00E944501CA8069
:102F8000DB800AC0802F6AEE71E043E450E00E94CB
:102F90004501F701C480D580CE010E9429158C011E
:102FA000C7010E943516BC01C801A6010E945D1B25
:102FB000CC82DD82C701B6010E946017C601DF9195
:102FC000CF911F910F91FF90EF90DF90CF900895D8
:102FD000CF92DF92EF92FF920F931F93CF93DF93E5
:102FE000EC017B0110E0009709F011E0812F6AEEFF
:102FF00071E049E450E00E944501CA80DB8000E0B6
:10300000E114F10409F001E0802F6AEE71E043E47D
:1030100050E00E944501F70184819581C816D906C8
:1030200050F4812F6AEE71E049E450E00E944501BE
:10303000CA80DB800AC0802F6AEE71E043E450E072
:103040000E944501F701C480D580CE010E94291558
:103050008C01C7010E943516BC01C801A6010E945F
:103060005D1BCC82DD82C701B6010E946017C601DC
:10307000DF91CF911F910F91FF90EF90DF90CF9054
:1030800008950F931F93CF93DF93FC018B0164810D
:103090007581EA016417750708F4EB01CF010E94FE
:1030A0002915BC01C801AE010E945D1BCE01DF9154
:1030B000CF911F910F910895EF92FF920F931F935D
:1030C000CF93DF938C017B01FC016281738184814A
:1030D0009581681B790BEA016417750708F4EB0109
:1030E000C8010E942915F80124813581820F931FA0
:1030F000B701AE010E945D1BF801848195818C0FA0
:103100009D1F95838483CE01DF91CF911F910F91F5
:10311000FF90EF900895EF92FF920F931F93CF933C
:10312000DF938C017B01FC0162817381EA016417EA
:10313000750708F4EB01C8010E942915F8012481E4
:103140003581820F931FB701AE010E945D1BF8010C
:10315000D583C483CE01DF91CF911F910F91FF9052
:10316000EF9008950F931F93CF93DF93FC018B0192
:1031700064817581EA016417750708F4EB01CF01DA
:103180000E942915BC01C801AE010E945D1BCE0141
:10319000DF91CF911F910F91089580E090E060E062
:1031A00070E00E94450B0E94631408950E94CD18A0
:1031B0000895FC01A181B2811C92148284E086836F
:1031C0000895FC011482158284E08683108617829C
:1031D000128611861486138616861586108A17861F
:1031E000128A118A148A138A168A158A108E178AEF
:1031F000128E118E148E138E168E158E178E11A2AE
:1032000010A213A212A214A216A215A20895DC0104
:103210001196ED91FC91129780818F5F14968C939B
:103220001497FB01808311968C91119712969C91B3
:103230000895CF92DF92EF92FF920F931F93CF9357
:10324000DF938C01C62ED42E7901DC011196CD912D
:10325000DC911297662369F0CE0160E070E050E0E7
:103260000E946F1BDA94D882D394E982FA82B80163
:103270001BC0442311F4D880D3948D2D85508A37F8
:1032800010F4B80105C01882F801148260E070E003
:10329000D8011196ED91FC911297928180E02181E5
:1032A000E22EFF24E82AF92A6115710509F4ADC060
:1032B000F801D4828E2D877086832196D087C783AC
:1032C0002296D287C1872397CC2009F4A8C01B82FD
:1032D000A6C02496D8011C96DC93CE931B97249706
:1032E0001E961C921E921D9750961C921E921F971E
:1032F00056E0A8C02496F801D487C3872296D687C3
:10330000C5872697108A178658E09CC02496D80156
:103310001C96DC93CE931B971E961C921E921D97B3
:1033200022965096DC93CE931F9726975EE08AC034
:10333000F801128A118A148A138A168A158A94C08F
:10334000CE01850F911DD80152969C938E93519773
:10335000252F2E5FCE01820F911D54969C938E9344
:1033600053975C5F56961C921E9255977DC0CE0176
:10337000850F911DF801928B818B5E5F148A138AF1
:10338000CE01850F911D968B858B585F6DC0CE0148
:10339000850F911DD80158969C938E9357975E5F29
:1033A0005A961C921E9259975C961C921E925B979D
:1033B0005E961C921E925D975F961C925F97CE015F
:1033C000850F911D93969C938E93929761C0CE0129
:1033D000850F911DF80110C0D80193961C921E9282
:1033E000929756C0CE01850F911DF80191A380A33D
:1033F0005F5FCE01850F911D93A382A349C084E036
:10340000D80116968C9360E070E0CB01DF91CF91EC
:103410001F910F91FF90EF90DF90CF900895C7011B
:1034200080709C70892F99278695869582309105AA
:1034300009F460CF8330910509F468CF892B09F432
:1034400048CFE1CFC70184E0989F812D99271124AF
:103450008230910509F474CF8330910509F487CF48
:10346000892B09F465CFCFCF9701277030702130B9
:10347000310509F4ACCF2130310508F488CF223072
:10348000310509F4A9CF2330310509F0B8CFAACF0F
:103490009D2D9250892F851BF80184A3C90FD11D42
:1034A000D6A3C5A3B2CF0F93FC01462F60E020E066
:1034B00030E005810E94191920E0892B09F021E0F4
:1034C000822F0F9108950F931F93CF93DF938C0159
:1034D000EB01FC0184818C8385818D8386818E83C1
:1034E00018861F821A8619861C861B861E861D86D4
:1034F000188A1F861A8A198A1C8A1B8A1E8A1D8AA4
:10350000188E1F8A1A8E198E1C8E1B8E1E8E1D8E73
:103510001F8E19A218A21BA21AA21CA21EA21DA2D3
:1035200020E09B818481981708F021E0822F62E1DE
:1035300072E046E252E00E944501F80144814423D2
:1035400059F06181728189819A8150E00E945D1BEE
:10355000CE016C810E94531AF8018481DF91CF91D2
:103560001F910F9108950F931F93CF93DF93EC0159
:103570008B01FB0184818C8385818D8386818E8381
:1035800018861F821A8619861C861B861E861D8633
:10359000188A1F861A8A198A1C8A1B8A1E8A1D8A03
:1035A000188E1F8A1A8E198E1C8E1B8E1E8E1D8ED3
:1035B0001F8E19A218A21BA21AA21CA21EA21DA233
:1035C00020E09B818481981708F021E0822F62E13E
:1035D00072E04DEE51E00E9445014C81442361F0C0
:1035E000F8016181728189819A8150E00E945D1B9E
:1035F000CE016C810E94531A8C81DF91CF911F9173
:103600000F9108950F93FC01762F9A0161E0472FE7
:1036100005810E94191920E0892B09F021E0822FF1
:103620000F910895CF92DF92EF92FF920F931F9325
:10363000CF93DF93EC017B016A01022F009719F40D
:1036400080E090E007C080E090E06832710510F003
:1036500081E090E062E172E044E350E00E944501C5
:10366000CE0160E070E0A7010E946F1B9E01E8821E
:10367000295D3F4F3A832983275230404E2D4752D0
:103680004B831C8284E08E830D83C114D10451F0DE
:103690008C2D87708E83C90161E096010E941919F3
:1036A0009C0101C08E83C901DF91CF911F910F91C1
:1036B000FF90EF90DF90CF9008956817790768F436
:1036C000FB01DC01E40FF51FA40FB51F02C002903F
:1036D0000E9241505040D8F708950C94761BDC01AF
:1036E00001C06D9341505040E0F70895FB01DC01AB
:1036F00002C001900D9241505040D8F70895A1E2C8
:103700001A2EAA1BBB1BFD010DC0AA1FBB1FEE1F5B
:10371000FF1FA217B307E407F50720F0A21BB30BA6
:10372000E40BF50B661F771F881F991F1A9469F722
:1037300060957095809590959B01AC01BD01CF017E
:063740000895F894FFCF8C
:1037460077656C636F6D6520746F20736E6966664E
:1037560065722E2E2E0D0A006173736572743A001F
:103766002E2E2F2E2E2F2E2E2F636F6D6D6F6E2FFA
:103776006F70656E77736E2F68616C2F6761696E07
:103786007A2F68616C5F6363323432302E630030A7
:103796003132333435363738394142434445462E83
:1037A6002E2F2E2E2F2E2E2F636F6D6D6F6E2F6F79
:1037B60070656E77736E2F68616C2F6761696E7ABC
:1037C6002F68616C5F696E746572727570742E63B2
:1037D600002E2E2F2E2E2F2E2E2F636F6D6D6F6EB9
:1037E6002F6F70656E77736E2F68616C2F676169D6
:1037F6006E7A2F68616C5F7370692E63002E2E2FB0
:103806002E2E2F2E2E2F636F6D6D6F6E2F6F7065A0
:103816006E77736E2F68616C2F6761696E7A2F6899
:10382600616C5F756172742E63002E2E2F2E2E2F03
:103836002E2E2F636F6D6D6F6E2F6F70656E7773A3
:103846006E2F72746C2F72746C5F696F6275662E60
:1038560063002E2E2F2E2E2F2E2E2F636F6D6D6F43
:103866006E2F6F70656E77736E2F72746C2F727415
:0E3876006C5F6F70656E6672616D652E63002B
:00000001FF
