:100000000C9446000C9482030C9482030C94F80424
:100010000C9482030C9482030C9482030C948C0342
:100020000C9465000C9465000C940D040C94650010
:100030000C9465000C9465000C94E2030C9465002C
:100040000C94B7030C9465000C948E040C94B904C2
:100050000C9465000C9463040C9465000C9465008A
:100060000C9465000C9465000C9465000C9465007C
:100070000C9465000C9438040C94E4040C94EE0485
:100080000C9465000C9465000C94650011241FBE4F
:10009000CFEFD0E1DEBFCDBF11E0A0E0B1E0EAE6F6
:1000A000F5E100E00BBF02C007900D92A63AB10740
:1000B000D9F712E0A6EAB1E001C01D92AE3BB1074C
:1000C000E1F70E9467000C94B30A0C94F904CF92F4
:1000D000DF92EF92FF920F93CF93DF930E94360649
:1000E0000E94FD0988E10FB6F89481BD11BC0FBED6
:1000F0000E94440587E00E94260524EF31E00DC0F0
:1001000000000000000000000000000000000000EF
:100110000197B1F72150304019F088EE93E0F0CF0D
:1001200081E00E944D0560E076E980E00E9499023E
:1001300067E283EB91E00E9470017C0163E070E074
:100140008AED91E00E9416066C0167E270E08DEA8C
:1001500091E00E940407EC0100E020E030E040E084
:1001600050E060E0C7010E943801A70160E0C601CD
:100170000E94FD05EE2401E028E040E056E960E041
:10018000CE010E94450620E042E050E060E071E0D0
:10019000CE010E94E506C6010E94CA05682FCE0165
:1001A0000E94B50628EE33E00DC0000000000000FC
:1001B000000000000000000000000197B1F721508E
:1001C000304049F388EE93E0F0CF0895FC01808140
:1001D000882329F481E087B986B1876E86B90895AE
:1001E000FC018081882309F4349A0895FC01DB0125
:1001F0008081882319F020E030E01EC081E087B9BB
:1002000086B1876E86B986B12AE030E00DC0000065
:100210000000000000000000000000000000019746
:10022000B1F72150304019F088EE93E0F0CF84B15F
:1002300095B18C9321E030E0C9010895FC0184B1AF
:10024000878385B18781878381E08683228133819B
:100250002115310521F084819581F90109950895D1
:10026000FC018081882319F485E10E9438030895F8
:100270000F93CF93DF93EC018091A701882309F4BA
:10028000F8948F5F8093A70168835B834A833D83E3
:100290002C8309831E82662319F06130A1F40FC0FC
:1002A0000E948B080E947C0886B1867886B917B8B0
:1002B000AE016EE171E085E10E94240304C00E945A
:1002C0008B080E947C088091A70181508093A70130
:1002D000882309F47894CE01DF91CF910F9108958E
:1002E000FF920F931F93082FF92E162F80E067328D
:1002F00008F081E04EE250E069E171E00E948E0179
:10030000412F50E060E070E0802F9F2D0E94810A15
:10031000802F9F2D1F910F91FF900895EF92FF92D4
:100320000F931F93CF93DF93162F072FEA01882394
:1003300009F08DC0F89467E070E084E391E00E94DA
:100340004E02E12FF02FDF010D900020E9F7119709
:10035000AE1BBF0BBD01812F902F0E944E0288E281
:100360000E94350280E30E94350288E70E94350230
:100370007E018F2D82958F700E9472020E9435023D
:100380008F2D8F700E9472020E943502CE0124E0F0
:10039000969587952A95E1F78F700E9472020E94C8
:1003A00035029E012F70822F0E9472020E94350238
:1003B00089E20E94350281E00E944D0524EF31E080
:1003C0000DC0000000000000000000000000000060
:1003D00000000197B1F72150304019F088EE93E00A
:1003E000F0CF81E00E94260582E00E944D0524EFB7
:1003F00031E00DC00000000000000000000000001F
:10040000000000000197B1F72150304019F088EE4C
:1004100093E0F0CF82E00E94260584E00E944D0523
:1004200024EF31E00DC000000000000000000000DB
:100430000000000000000197B1F72150304019F092
:1004400088EE93E0F0CF84E00E942605B4CFDF91E0
:10045000CF911F910F91FF90EF9008951092DD01C1
:1004600008955F9BFECF8CB108955D9BFECF8CB944
:100470000895E82FE295EF70F0E0E45CFE4FE08134
:100480005D9BFECFECB9E82FF0E0EF70F070E45C1C
:10049000FE4F80815D9BFECF8CB9089520E030E057
:1004A00009C0FC01E20FF31FE0815D9BFECFECB9B8
:1004B0002F5F3F4F26173707A0F308958091DD0186
:1004C000482F50E0EEEDF1E020E030E007C09081F1
:1004D0005D9BFECF9CB92F5F3F4F319624173507A8
:1004E000B0F30895E82FF0E0EF70F070E45CFE4F99
:1004F00080810895CF93DF93DC01E091DD0140E43A
:1005000050E04E1B5109EB014617570708F4EA016A
:100510008E2F90E0AE01BD0182529E4F0E946F0A65
:100520008091DD018C0F8093DD01CE01DF91CF91B1
:1005300008958091A601882381F481E4EDEDF1E036
:10054000DF011D928A95E9F71098119A8CE089B91C
:1005500088E18AB981E08093A60108959093A9016A
:100560008093A8017093AB016093AA010895BC0128
:10057000E091A801F091A901309729F08091AA019A
:100580009091AB0109950895DF93CF93CDB7DEB776
:1005900028970FB6F894DEBF0FBECDBF9C01E09147
:1005A000A801F091A9013097A9F04115510521F456
:1005B0004091AA015091AB0158874F838091AA01C5
:1005C0009091AB017E836D833A832983BE016F5F77
:1005D0007F4F099528960FB6F894DEBF0FBECDBFAA
:1005E000CF91DF9108951092A7019093A901809374
:1005F000A8017093AB016093AA0180EAEEE1F2E0FA
:10060000DF011D928A95E9F70895AC0188309105C4
:1006100050F429B781E090E002C0880F991F4A95F5
:10062000E2F7282B29BF0895AC018830910558F4D2
:1006300029B781E090E002C0880F991F4A95E2F740
:100640008095822389BF0895282F30E02F71307064
:10065000F901EE0FFF1FEE0FFF1FE20FF31FE25E27
:10066000FD4F80837283618354834383C90108955E
:10067000282F30E02F713070F901EE0FFF1FEE0FC1
:10068000FF1FE20FF31FE25EFD4F10821282118204
:1006900014821382C9010895DB019A01482F50E0AA
:1006A0004F715070FA01EE0FFF1FEE0FFF1FE40FA6
:1006B000F51FE25EFD4F818192818D939C93838132
:1006C0009481D9018D939C9381819281892B11F41E
:1006D0004FEF5FEFCA01089590E08F719070FC01B9
:1006E000EE0FFF1FEE0FFF1FE80FF91FE25EFD4F39
:1006F000218132812115310521F083819481F90115
:10070000099508951F920F920FB60F9211240F9022
:100710000FBE0F901F9018951F920F920FB60F9259
:100720000BB60F9211242F933F934F935F936F93C8
:100730007F938F939F93AF93BF93EF93FF9360E06B
:1007400070E087E00E946C03FF91EF91BF91AF9141
:100750009F918F917F916F915F914F913F912F91D9
:100760000F900BBE0F900FBE0F901F9018951F9209
:100770000F920FB60F920BB60F9211242F933F9347
:100780004F935F936F937F938F939F93AF93BF9399
:10079000EF93FF9360E070E080E10E946C03FF91B3
:1007A000EF91BF91AF919F918F917F916F915F91E9
:1007B0004F913F912F910F900BBE0F900FBE0F9056
:1007C0001F9018951F920F920FB60F920BB60F92B3
:1007D00011242F933F934F935F936F937F938F9346
:1007E0009F93AF93BF93EF93FF9360E070E08EE031
:1007F0000E946C03FF91EF91BF91AF919F918F91F8
:100800007F916F915F914F913F912F910F900BBE10
:100810000F900FBE0F901F9018951F920F920FB65A
:100820000F920BB60F9211242F933F934F935F9328
:100830006F937F938F939F93AF93BF93EF93FF93A8
:1008400060E070E08AE00E946C03FF91EF91BF913D
:10085000AF919F918F917F916F915F914F913F9158
:100860002F910F900BBE0F900FBE0F901F901895F9
:100870001F920F920FB60F920BB60F9211242F9367
:100880003F934F935F936F937F938F939F93AF9318
:10089000BF93EF93FF9360E070E08DE10E946C03E3
:1008A000FF91EF91BF91AF919F918F917F916F9148
:1008B0005F914F913F912F910F900BBE0F900FBE04
:1008C0000F901F9018951F920F920FB60F920BB6B4
:1008D0000F9211242F933F934F935F936F937F93C6
:1008E0008F939F93AF93BF93EF93FF9360E070E07C
:1008F00085E10E946C03FF91EF91BF91AF919F91B1
:100900008F917F916F915F914F913F912F910F90B8
:100910000BBE0F900FBE0F901F9018951F920F9255
:100920000FB60F920BB60F9211242F933F934F9354
:100930005F936F937F938F939F93AF93BF93EF9347
:10094000FF9360E070E082E10E946C03FF91EF9101
:10095000BF91AF919F918F917F916F915F914F91D7
:100960003F912F910F900BBE0F900FBE0F901F90D5
:1009700018951F920F920FB60F920BB60F9211247B
:100980002F933F934F935F936F937F938F939F9397
:10099000AF93BF93EF93FF9360E070E083E10E9419
:1009A0006C03FF91EF91BF91AF919F918F917F91D8
:1009B0006F915F914F913F912F910F900BBE0F90D0
:1009C0000FBE0F901F9018951F920F920FB60F92A7
:1009D00011240F900FBE0F901F9018951F920F9229
:1009E0000FB60F9211240F900FBE0F901F90189505
:1009F00018951F920F920FB60F920BB60F921124FB
:100A00002F933F934F935F936F937F938F939F9316
:100A1000AF93BF93EF93FF934EE751E06CE471E027
:100A200080E00E948E01FF91EF91BF91AF919F9165
:100A30008F917F916F915F914F913F912F910F9087
:100A40000BBE0F900FBE0F901F901895282F80FFA0
:100A500006C0DA9A8091AC0181608093AC0121FFDD
:100A600006C0D99A8091AC0182608093AC0122FFCC
:100A700006C0D89A8091AC0184608093AC0108953F
:100A800087E00E94260508951092AC01D09AD19A71
:100A9000D29A87E00E9426050895282F80FF06C07D
:100AA000DA988091AC018E7F8093AC0121FF06C063
:100AB000D9988091AC018D7F8093AC0122FF06C054
:100AC000D8988091AC018B7F8093AC010895662308
:100AD00019F00E94260508950E944D050895282FBB
:100AE00080FF0BC09091AC0190FF03C0DA989E7F0D
:100AF00002C0DA9A91609093AC0121FF0BC09091F3
:100B0000AC0191FF03C0D9989D7F02C0D99A926031
:100B10009093AC0122FF0DC08091AC0182FF05C013
:100B2000D8988B7F8093AC010895D89A8460809385
:100B3000AC010895FF920F931F93CF93DF93F82E8C
:100B40008B01EA014115510511F4CFEFDFEF87E08A
:100B50000E94260517C08F2D0E946F0598010EC0B8
:100B600088EE93E00000000000000000000000009C
:100B7000000000000197B1F7215030401216130613
:100B80007CF32197209739F7DF91CF911F910F9137
:100B9000FF900895EF92FF920F931F93DF93CF93EF
:100BA0000F92CDB7DEB78C011982FC018181928151
:100BB0000E94E6007E010894E11CF11C20E041E067
:100BC000B701F801818192810E94F6008823B1F378
:100BD00089810F90CF91DF911F910F91FF90EF903E
:100BE0000895FC01818192810E9430010895FC01E9
:100BF000818192810E9430010895EF92FF920F93BC
:100C00007C01FA01DC016C9312965C934E93119770
:100C100000E020E030E040E050E06081CF010E9441
:100C20003801C7010F91FF90EF9008950F931F9324
:100C3000CF93DF93182F092FEB0180E0633071050C
:100C400008F081E04AE050E06DE671E00E948E011C
:100C5000AE0160E070E0812F902F0E94810A812F09
:100C6000902FDF91CF911F910F91089560E070E078
:100C700080E090E00E94F302089560E070E080E080
:100C800090E00E94F30208950895EF920F93CF939E
:100C9000DF93EC0168835A8349832B830C83ED82B5
:100CA000662329F06130A9F0C0E0D0E02AC0109896
:100CB000119A86E94030580729F04050514E29F4E6
:100CC00088E001C08CE089B901C019B888E18AB90F
:100CD00018C09A0140E050E084E0220F331F441F07
:100CE000551F8A95D1F760E072E18AE790E00E9493
:100CF000910A2150109298002093990088E18093E6
:100D00009A00CE01DF91CF910F91EF900895089551
:100D1000FC01DB01E081EE2319F0E13079F404C03D
:100D20005F9B0CC08CB106C080919B0087FF06C002
:100D300080919C008C9320E030E002C02FEF3FEFC9
:100D4000C9010895FC01E081EE2321F0E13031F08A
:100D500080E008955F9BFECF8CB1089580919B0049
:100D600087FFFCCF80919C000895FC01E081EE2379
:100D700019F0E13059F404C05D9BFECF6CB906C098
:100D800080919B0085FFFCCF60939C0080E090E009
:100D90000895FC01DB01E081EE2319F0E13079F4E4
:100DA00004C05F9B0CC08CB106C080919B0087FF84
:100DB00006C080919C008C9320E030E002C02FEFB1
:100DC0003FEF2F5F3F4FC9010895DC0120E030E085
:100DD00016C0FB01E20FF31FE0818C91882319F00C
:100DE000813059F404C05D9BFECFECB906C0809100
:100DF0009B0085FFFCCFE0939C002F5F3F4F2417A3
:100E0000350738F3CA0108950F931F93CF93DF93EB
:100E1000182F092FEB0180E06630710508F081E0A2
:100E200044E750E06AE871E00E948E01AE0160E0A4
:100E300070E0812F902F0E94810A812F902FDF91E7
:100E4000CF911F910F910895DA9A0895DA98089535
:100E500029B330E036952795369527952170307067
:100E6000C9010895D29A0895D2980895D99A0895FB
:100E7000D998089529B330E03695279521703070C0
:100E8000C9010895D19A0895D1980895D89A0895DE
:100E9000D898089529B330E021703070C9010895C1
:100EA000D09A0895D0980895DC9A0895DC98089512
:100EB00029B330E044E0369527954A95E1F7217053
:100EC0003070C9010895D49A0895D4980895DD9A90
:100ED0000895DD98089529B330E055E036952795BB
:100EE0005A95E1F721703070C9010895D59A089597
:100EF000D5980895DF9A0895DF98089529B3332788
:100F000027FD30952227330F221F3327C90108956B
:100F1000D79A0895D7980895DE9A0895DE9808958F
:100F200029B330E076E0369527957A95E1F7217080
:100F30003070C9010895D69A0895D6980895DD9A1B
:100F40000895DD98089529B330E0E5E036952795BA
:100F5000EA95E1F721703070C9010895D59A089596
:100F6000D59808951E9A08951E98089521B130E0ED
:100F7000F6E036952795FA95E1F721703070C901B2
:100F80000895169A089516980895969A0895969831
:100F9000089520B330E0A6E036952795AA95E1F7AD
:100FA00021703070C90108958E9A08958E98089521
:100FB000949A08959498089520B330E0B4E036955B
:100FC0002795BA95E1F721703070C90108958C9A80
:100FD00008958C980895C09A0895C098089526B3EE
:100FE00030E021703070C9010895B89A0895B8981A
:100FF0000895C79A0895C798089526B3332727FD03
:1010000030952227330F221F3327C9010895BF9A35
:101010000895BF980895969A08959698089520B3D4
:1010200030E096E0369527959A95E1F7217030707B
:10103000C90108958E9A08958E980895DB9A0895AF
:10104000DB98089529B330E043E0369527954A951B
:10105000E1F721703070C9010895D39A0895D398AB
:101060000895959A08959598089520B330E055E035
:10107000369527955A95E1F721703070C90108958A
:101080008D9A08958D980895939A08959398089548
:1010900020B330E063E0369527956A95E1F721703B
:1010A0003070C90108958B9A08958B980895929A8B
:1010B00008959298089520B330E036952795369597
:1010C000279521703070C90108958A9A08958A98E9
:1010D00008951C9A08951C98089521B130E0E4E029
:1010E00036952795EA95E1F721703070C90108958A
:1010F000149A0895149808951D9A08951D980895B6
:1011000021B130E0F5E036952795FA95E1F72170A9
:101110003070C9010895159A0895159808951E9A7A
:1011200008951E98089521B130E0A6E036952795E0
:10113000AA95E1F721703070C9010895169A0895B3
:10114000169808951F9A08951F98089521B133277E
:1011500027FD30952227330F221F3327C901089519
:10116000179A089517980895C29A0895C2980895F5
:1011700026B330E036952795369527952170307047
:10118000C9010895BA9A0895BA980895C39A08951E
:10119000C398089526B330E093E0369527959A9545
:1011A000E1F721703070C9010895BB9A0895BB988A
:1011B0000895C19A0895C198089526B330E03695F0
:1011C000279521703070C9010895B99A0895B9988A
:1011D0000895A89A0895A898089523B330E021703F
:1011E0003070C9010895A09A0895A0980895A99A09
:1011F0000895A998089523B330E036952795217076
:101200003070C9010895A19A0895A1980895AA9AE5
:101210000895AA98089523B330E03695279536951A
:10122000279521703070C9010895A29A0895A29857
:101230000895AB9A0895AB98089523B330E073E016
:10124000369527957A95E1F721703070C901089598
:10125000A39A0895A3980895AC9A0895AC98089518
:1012600023B330E0E4E036952795EA95E1F7217065
:101270003070C9010895A49A0895A4980895AD9A6C
:101280000895AD98089523B330E0F5E0369527959D
:10129000FA95E1F721703070C9010895A59A089573
:1012A000A5980895AE9A0895AE98089523B330E0B6
:1012B000A6E036952795AA95E1F721703070C9010F
:1012C0000895A69A0895A6980895AF9A0895AF989C
:1012D000089523B3332727FD30952227330F221F8C
:1012E0003327C9010895A79A0895A7980895909A59
:1012F00008959098089520B330E021703070C901AE
:101300000895889A089588980895919A08959198D3
:10131000089520B330E03695279521703070C901CB
:101320000895899A089589980895189A08951898A3
:10133000089521B130E021703070C9010895109AEC
:10134000089510980895199A08951998089521B14B
:1013500030E03695279521703070C9010895119AB3
:101360000895119808951A9A08951A98089521B128
:1013700030E0369527953695279521703070C90154
:101380000895129A089512980895929A089592983D
:10139000089520B330E0369527953695279521702E
:1013A0003070C90108958A9A08958A980895939A89
:1013B00008959398089520B330E063E0369527951B
:1013C0006A95E1F721703070C90108958B9A0895EC
:1013D0008B980895959A08959598089520B330E0D4
:1013E00075E0369527957A95E1F721703070C9013F
:1013F00008958D9A08958D980895D29AD09AD19A89
:10140000A79AA69AA59AA49AA39AA29AA19AA09AF0
:10141000BB98BA9AB99AD69AD59AB89816988E98CF
:101420008C98BF988E98D498DC98D39A8B9A8D9A82
:10143000DB9ADA9AD89AD99A0895DF93CF9300D09D
:10144000CDB7DEB781E089831A8220E030E0898160
:101450009A81019711F421E030E0C9010F900F90BB
:10146000CF91DF910895DF93CF9300D0CDB7DEB752
:101470009C0181E089831A8289819A81019719F000
:10148000822F232F382FC9010F900F90CF91DF911A
:101490000895DF93CF9300D0CDB7DEB79C0181E0F4
:1014A00089831A8289819A81019719F0822F232FCB
:1014B000382FC9010F900F90CF91DF9108958823A5
:1014C00009F460E0862F0895442309F420E06623A0
:1014D00009F420E0882309F420E0822F089568179A
:1014E000790768F4FB01DC01E40FF51FA40FB51FB9
:1014F00002C002900E9241505040D8F708950C94CB
:10150000880ADC0101C06D9341505040E0F7089516
:10151000FB01DC0102C001900D9241505040D8F710
:101520000895A1E21A2EAA1BBB1BFD010DC0AA1F24
:10153000BB1FEE1FFF1FA217B307E407F50720F03C
:10154000A21BB30BE40BF50B661F771F881F991FB7
:101550001A9469F760957095809590959B01AC0100
:0A156000BD01CF010895F894FFCFFC
:10156A0077656C636F6D6520746F206164635F6C6F
:10157A0069676874202E2E2E002E2E2F2E2E2F6392
:10158A006F6D6D6F6E2F68616C2F68616C5F61643F
:10159A00632E63006173736572743A0030313233BB
:1015AA003435363738394142434445462E2E2F2E9C
:1015BA002E2F636F6D6D6F6E2F68616C2F68616C73
:1015CA005F696E746572727570742E63002E2E2FA9
:1015DA002E2E2F636F6D6D6F6E2F68616C2F686191
:1015EA006C5F6C696768742E63002E2E2F2E2E2F67
:1015FA00636F6D6D6F6E2F68616C2F68616C5F75BC
:06160A006172742E630002
:00000001FF
