:100000000C9446000C94750B0C94750B0C94970D86
:100010000C94750B0C94750B0C94750B0C947F0B56
:100020000C9465000C94810C0C94560C0C94650097
:100030000C942B0C0C9465000C94000C0C94D50BB8
:100040000C94AA0B0C9465000C942D0D0C94580D77
:100050000C9465000C94020D0C9465000C946500E2
:100060000C9465000C9465000C94D70C0C946500FE
:100070000C9465000C94AC0C0C94830D0C948D0DB9
:100080000C9465000C9465000C94650011241FBE4F
:10009000CFEFD0E1DEBFCDBF12E0A0E0B1E0E2E9FA
:1000A000FAE300E00BBF02C007900D92A83FB10732
:1000B000D9F716E0A8EFB2E001C01D92A93DB10743
:1000C000E1F70E9496180C94471D0C94980D089522
:1000D0000F931F93CF93DF938B01EC0189819A815A
:1000E0000E9485020115110599F0F8018081918126
:1000F000079771F4C757DF4FE881F981C958D0409D
:10010000309731F0C557DF4FB80188819981099543
:10011000DF91CF911F910F9108951F93CF93DF939C
:10012000EB01242F69817A814B81FC0181819281CD
:100130000E947005182F882379F060E0CE010E949C
:100140008F17882341F0EF81F88580818770813097
:1001500011F41C8301C010E0812F90E0DF91CF915A
:100160001F910895AF92BF92CF92DF92EF92FF92CC
:100170000F931F93CF93DF938C016B01B42EA22EAC
:10018000442309F037C04BC02A2D4B2DB601F8018E
:10019000818192810E94D605282F30E021153105FA
:1001A00011F0188235C0F7018081880F0E948119F3
:1001B00090E04496F7019183808320E030E0AC0129
:1001C00012C000000000000000000000000000005D
:1001D00000000197B1F72F5F3F4FCA01821B930BBD
:1001E000181619061CF488EE93E0EBCF88818F5F18
:1001F000888308C0EC01CA57DF4F87E8E82EF12C4E
:10020000E00EF11E8881833008F4BECF20E030E09C
:10021000F801EA57FF4F8081833018F0108220E008
:1002200030E0C901DF91CF911F910F91FF90EF90C6
:10023000DF90CF90BF90AF900895CF93DF93EC0104
:10024000DB01242F1196ED91FC911297818192810F
:100250008F7D81831196ED91FC91129792831D966B
:10026000ED91FC911E97309739F08FEF80831D96AA
:10027000ED91FC911E97818311966D917C9112975F
:1002800014964C91CE010E94B200DF91CF91089557
:10029000FB01242F6181728144810E94B200089584
:1002A000FC01818192810E94600608952F923F9205
:1002B0004F925F926F927F928F929F92AF92BF9276
:1002C000CF92DF92EF92FF920F931F93DF93CF9322
:1002D000CDB7DEB73C012B01942E1901FC017283CE
:1002E0006183F482E38289E890E0680E791EF3016D
:1002F000C192D1923F01B182A08285E79FEF680E43
:10030000791EF301158286E890E0680E791EF301EC
:1003100011923F018AE090E09183808386E090E033
:10032000680E791EF301808283E79FEF680E791EC5
:10033000CB010E944904C2010E946104692DC201DF
:100340000E94F903B101C2010E94F202B801C20188
:100350000E941203C2010E94F804C301CF91DF91F1
:100360001F910F91FF90EF90DF90CF90BF90AF90D3
:100370009F908F907F906F905F904F903F902F90C5
:100380000895EF92FF920F931F93F82EE92E8B01A1
:10039000AB0160E070E00E949F1C80E00E38110508
:1003A00008F081E046E450E060E071E00E94DF0187
:1003B0008F2D9E2D1F910F91FF90EF900895CF925A
:1003C000DF92EF92FF920F931F938B01882309F026
:1003D00092C0C52EC2946FE0C6223FE0D32ED52234
:1003E000CA0124E0969587952A95E1F79FE0E92ECA
:1003F000E8228FE0F82EF422F89467E070E08DE1B7
:1004000091E00E94F409F80101900020E9F731978A
:10041000E01BF10B6E2F70E0C8010E94F40988E226
:100420000E94DB0980E30E94DB0988E70E94DB0968
:100430008C2D0E943D0A0E94DB098D2D0E943D0AF1
:100440000E94DB098E2D0E943D0A0E94DB098F2D40
:100450000E943D0A0E94DB0989E20E94DB0981E0DB
:100460000E94EC0D24EF31E00DC000000000000000
:10047000000000000000000000000197B1F72150CB
:10048000304019F088EE93E0F0CF81E00E94C50D76
:1004900082E00E94EC0D24EF31E00DC0000000006E
:1004A0000000000000000000000000000197B1F70C
:1004B0002150304019F088EE93E0F0CF82E00E94A6
:1004C000C50D84E00E94EC0D24EF31E00DC000006A
:1004D0000000000000000000000000000000019784
:1004E000B1F72150304019F088EE93E0F0CF84E06E
:1004F0000E94C50D81CF1F910F91FF90EF90DF906B
:10050000CF900895FC01818108950895FC01E8577A
:10051000FF4F80810895FC01E757FF4F80818F775F
:10052000089520E0FC01E757FF4F808187FD21E01F
:10053000822F08950895FC018081882349F48AB7A9
:1005400080618ABF8AB780628ABF89B7806489BFA9
:100550000895FC018081882319F489B7807489BFCC
:10056000089508950895FC0144815581BC0187E0F8
:1005700090E00E94B70A0895EF92FF920F931F93A5
:10058000CF93DF93EB01E42E122F032FFFB6F894E5
:100590000E9493139E0120682FB9779BFECF8FB1E5
:1005A000D695C7959E01207C2FB9779BFECF8FB142
:1005B000812F902F9C01F90190E007C080818FB9B5
:1005C000779BFECF8FB19F5F31969E15B8F30E9447
:1005D0009113FFBE81E0DF91CF911F910F91FF90AA
:1005E000EF9008950F931F93DF93CF9300D0CDB773
:1005F000DEB78C01CB017A8369830E94D9159A8377
:1006000089839E012F5F3F4F42E068E671E0C80199
:100610000E94BC0281E00F900F90CF91DF911F915B
:100620000F9108950F931F93DF93CF9300D0CDB711
:10063000DEB78C01CB017A8369830E94D9159A8336
:1006400089839E012F5F3F4F42E06AE671E0C80157
:100650000E94BC0281E00F900F90CF91DF911F911B
:100660000F910895EF92FF920F931F93CF93DF9313
:10067000EB01E42E122F032FFFB6F8940E94931380
:100680009E0120682FB9779BFECF8FB1D695C79575
:100690009E01207E2FB9779BFECF8FB1812F902FA7
:1006A0009C01F90190E006C01FB8779BFECF8FB187
:1006B00081939F5F9E15C0F30E949113FFBE81E05E
:1006C000DF91CF911F910F91FF90EF900895DF93ED
:1006D000CF9300D0CDB7DEB77A8369839E012F5FB9
:1006E0003F4F42E068E671E00E94320381E00F90E4
:1006F0000F90CF91DF9108959B0142E06AE671E08F
:100700000E94320381E00895EF92FF920F931F93AE
:10071000162FFFB6F8940E94931310641FB9779BAD
:10072000FECF8FB11FB8779BFECF8FB11FB8779BDD
:10073000FECFEFB0182F00E00E949113FFBEFF2400
:10074000E02AF12AC7011F910F91FF90EF900895C1
:10075000DF92EF92FF920F931F93162FE42E052F37
:10076000DFB6F8940E9493131FB9779BFECFFFB0BA
:100770001F3040F00FB9779BFECF8FB1EFB8779B5A
:10078000FECF8FB1DFBE0E9491138F2D1F910F916D
:10079000FF90EF90DF9008956530C9F0663038F42F
:1007A000623061F0633081F06130E9F40AC0673093
:1007B000A1F0673078F06830B1F412C047EE50EA2B
:1007C00014C043EE50EA11C04BEE50EA0EC043EFA6
:1007D00050EA0BC047EF50EA08C04BEF50EA05C0A3
:1007E0004FEF50EA02C04FEE50EA65E10E94A803C5
:1007F00008951F93CF93DF93EC01162F90E0862F7F
:100800008B50803108F491E04AE955E065E271E0EF
:10081000892F0E94DF01812F90E00B97AC014B598B
:100820005E4B880F991F880F991F480F591FC55697
:10083000DF4F59834883CB59D04068E1CE010E94F5
:10084000A80381E0DF91CF911F9108951F93CF936B
:10085000DF93EC01162F61E10E948403AC011123A8
:1008600019F04061506101C0406161E1CE010E9418
:10087000A803DF91CF911F910895FC01E357FF4F2B
:1008800040815181577F5183408361E10E94A803D9
:100890000895FC01E357FF4F408151815860518317
:1008A000408361E10E94A8030895FC01E357FF4FD4
:1008B000408151814F7E5183408361E10E94A803B2
:1008C0000895FC01E357FF4F4081518140615183FE
:1008D000408361E10E94A80308950F931F93162F90
:1008E0000FB7F8940E9493131FB9779BFECF1FB1E7
:1008F0000E9491130FBF812F1F910F9108956DE0FA
:100900000E946D0408956CE00E946D0408956AE0F1
:100910000E946D04089569E00E946D0408950F938C
:100920001F938C0168E00E946D0468E0C8010E947A
:100930006D0481E01F910F91089566E00E946D049F
:1009400081E0089565E00E946D04089564E00E94CE
:100950006D04089563E00E946D04089562E00E94B2
:100960006D040895CF93DF93EC0160E0CE010E9407
:100970006D0486FFFACFDF91CF91089567E00E9462
:100980006D0481E008950E94BE0408951F93CF93E3
:10099000DF93EC0161E00E946D0410E015C00000DF
:1009A00000000000000000000000000000000197AF
:1009B000B1F760E0CE010E946D0486FF02C081E0C5
:1009C00007C01F5F183C19F084E690E0E8CF80E094
:1009D000DF91CF911F9108950E94C604089564E0AD
:1009E0000E946D04089564E00E946D0481E0089502
:1009F00063E00E946D0481E00895EF92FF920F93EF
:100A00001F93CF93DF93EC017B01142F0E94B2045C
:100A10000FB7F8940E9493138FE78FB9779BFECF9F
:100A20008FB1C657DF4F8883CA58D0401FB8779B15
:100A3000FECF8FB1853028F41FB8779BFECF8FB1E2
:100A40000AC087FF0AC068E0CE010E946D0468E01A
:100A5000CE010E946D0410E012C0811708F4182F17
:100A6000F701808391E009C01FB8779BFECF8FB15B
:100A7000F701E90FF11D80839F5F1917A8F70E9406
:100A800091130FBF812FDF91CF911F910F91FF9095
:100A9000EF9008950E94471388E097E0000000005F
:100AA0000000000000000000000000000197B1F706
:100AB00081E008950E944A0508950E94451388E048
:100AC00097E00000000000000000000000000000AF
:100AD00000000197B1F781E008950E945D05089537
:100AE000DF92EF92FF920F931F93CF93DF93EC016E
:100AF0007B018981813011F4198204C0882311F0AF
:100B0000FF244BC0DFB6F8948F81882321F18F81B9
:100B100090E0481708F091E048EB53E065E271E09F
:100B2000892F0E94DF014F818E01085F1F4F50E027
:100B3000B801C7010E948D1CFF801F820E9B2CC034
:100B400020E040E8B801CE010E94FD048F838F8130
:100B5000863010F10BC00E9B1EC020E0B701CE0105
:100B60000E94FD04F82E85E08F15A8F4EF81F0E0D7
:100B70003297EC0FFD1F8085C857DF4F8883C85818
:100B8000D040EF81F0E03197EC0FFD1F8085C75713
:100B9000DF4F888301C0FF24DFBE8F2DDF91CF910F
:100BA0001F910F91FF90EF90DF900895CF92DF9209
:100BB000EF92FF920F931F93CF93DF93EC016B01A2
:100BC000142F81E0898320FF04C0FB0181818062B2
:100BD00003C0FB0181818F7D8183812F85508B37FD
:100BE00010F010E033C00FB7F8940E9493138EE317
:100BF0008FB9779BFECF8FB1C657DF4F8883CA5816
:100C0000D04011501FB91F5F779BFECF8FB1F60107
:100C100091E007C081818FB9779BFECF8FB19F5F35
:100C200031961917B8F70E9491130FBF0E946F13E6
:100C3000892BE1F364E0CE010E946D040E948213CF
:100C40000197E1F70E9482130197E1F3E12EFF245F
:100C50001982E114F10439F1F601818185FF23C085
:100C60001F8200E010E038E0C32ED12CCC0EDD1E38
:100C700024C0000000000000000000000000000090
:100C800000000197B1F720E040E8B601CE010E94D4
:100C90007005882341F40F5F1F4FF3E00E3F1F07DD
:100CA00061F4EE24FF248E2DDF91CF911F910F91DF
:100CB000FF90EF90DF90CF9008958AE090E0D9CF39
:100CC000FC018081882319F489B7807489BF87E08B
:100CD0000E942B0B08950E94600608952F923F9268
:100CE0004F925F926F927F928F929F92AF92BF923C
:100CF000CF92DF92EF92FF920F931F93DF93CF93E8
:100D000000D000D000D0CDB7DEB7FC011082118238
:100D100053834283358324830683E857FF4F119220
:100D200011921082EA58F040FE83ED8317820E94F0
:100D30007D140E9468140E948B140E9441130E942B
:100D400054130E949B130E9469130E947C130E94FB
:100D50008F130E94AF131FB7F8940E948B140E9448
:100D60007D140E946814709A6C9A6B986A986998BE
:100D700068986E9A1FBF8D819E810E945D050E94BA
:100D8000341384E690E00000000000000000000042
:100D90000000000000000197B1F70E94321384E6C2
:100DA00090E00000000000000000000000000000D3
:100DB00000000197B1F78D819E810E94C6048823AF
:100DC00009F42DC082E00E94EC0D24E630E00DC055
:100DD0000000000000000000000000000000000013
:100DE0000197B1F72150304019F088EE93E0F0CF31
:100DF00082E00E94C50D28EE33E00EC00000000026
:100E00000000000000000000000000000197B1F7A2
:100E10002150304009F42FC088EE93E0EFCF84E0FA
:100E20000E94EC0D24E630E00DC000000000000040
:100E3000000000000000000000000197B1F7215001
:100E4000304019F088EE93E0F0CF84E00E94C50DA9
:100E500028EE33E00DC0000000000000000000009C
:100E60000000000000000197B1F72150304019F058
:100E700088EE93E0F0CF0D811E8105571F4F20E0D3
:100E800038EFF80131832083ADE8EA2EF12C8D8113
:100E90009E81E80EF91E82EE92E0F7019183808335
:100EA000FFE8CF2ED12C8D819E81C80ED91E80E007
:100EB00095E0F60191838083E1E9AE2EB12C8D811E
:100EC0009E81A80EB91E80E890EEF5019183808383
:100ED00073E9872E912C8D819E81880E991E8FE05B
:100EE00097EAF4019183808365E9662E712C8D81E8
:100EF0009E81680E791E8FEF90E6F30191838083C7
:100F000057E9452E512C8D819E81480E591E85EE44
:100F100092E1F2019183808349E9242E312C8D8165
:100F20009E81280E391E86E59AE0F1019183808327
:100F30008D819E8185569F4F9A83898385E691E4B2
:100F4000E981FA81918380838D819E8183569F4FB1
:100F50009C838B8384EC91E0EB81FC819183808383
:100F60008D819E8181569F4FFC01119211921192A9
:100F700011928FE790E08193919311821082E55A4C
:100F8000F040FE83ED83A90160E1CF010E94A80338
:100F900060E18D819E810E948403F801208131816E
:100FA0008217930709F013C1F7014081518161E174
:100FB0008D819E810E94A80361E18D819E810E94A6
:100FC0008403F701208131818217930709F0FFC064
:100FD000F6014081518162E18D819E810E94A803CA
:100FE00062E18D819E810E948403F601208131811E
:100FF0008217930709F0EBC0F5014081518163E14D
:101000008D819E810E94A80363E18D819E810E9453
:101010008403F501208131818217930709F0D7C03D
:10102000F4014081518164E18D819E810E94A80379
:1010300064E18D819E810E948403F40120813181CD
:101040008217930709F0C3C0F3014081518165E124
:101050008D819E810E94A80365E18D819E810E9401
:101060008403F301208131818217930709F0AFC017
:10107000F2014081518166E18D819E810E94A80329
:1010800066E18D819E810E948403F201208131817D
:101090008217930709F09BC0F1014081518167E1FC
:1010A0008D819E810E94A80367E18D819E810E94AF
:1010B0008403F101208131818217930709F087C0F1
:1010C000E981FA814081518168E18D819E810E9490
:1010D000A80368E18D819E810E948403E981FA81E1
:1010E000208131818217930709F071C0EB81FC8167
:1010F0004081518169E18D819E810E94A80369E14F
:101100008D819E810E948403EB81FC81208131814D
:101110008217930709F05BC00D811E8101561F4F96
:10112000F801408151816AE18D819E810E94A8036E
:101130006AE18D819E810E948403F80120813181C2
:101140008217930709F043C00D811E810D551F4F73
:10115000F801408151816CE18D819E810E94A8033C
:101160006CE18D819E810E948403F8012081318190
:101170008217930761F50D811E810B551F4FF801F2
:10118000408151816DE18D819E810E94A8036DE1B6
:101190008D819E810E948403F80120813181821714
:1011A0009307A9F469E08D819E810E946D0468E037
:1011B0008D819E810E946D0468E08D819E810E94D8
:1011C0006D0482E00E94EC0D24E630E013C084E060
:1011D0000E94EC0D28EE33E034C000000000000057
:1011E000000000000000000000000197B1F721504E
:1011F000304019F088EE93E0F0CF82E00E94C50DF8
:1012000024E630E00EC000000000000000000000F6
:101210000000000000000197B1F72150304009F4B0
:1012200029C088EE93E0EFCF00000000000000002E
:1012300000000000000000000197B1F7215030408D
:1012400019F088EE93E0F0CF84E00E94C50D28EEFF
:1012500033E00DC0000000000000000000000000AE
:10126000000000000197B1F72150304019F088EEDE
:1012700093E0F0CF6BE08D819E810E94F9038D8118
:101280009E810E94490461E070E08D819E810E94F0
:10129000F20261E070E08D819E810E9412038D81D7
:1012A0009E810E9455048D819E810E94F8048D814B
:1012B0009E810E94B2044D815E816BE879E087E0F7
:1012C0000E94170BED81FE818081882349F48AB743
:1012D00080618ABF8AB780628ABF89B7806489BF0C
:1012E0008D819E8126960FB6F894DEBF0FBECDBFCE
:1012F000CF91DF911F910F91FF90EF90DF90CF90F2
:10130000BF90AF909F908F907F906F905F904F9025
:101310003F902F900895CF93DF93EC010E94A31389
:10132000892B59F40E9B09C068E0CE010E946D0420
:1013300068E0CE010E946D0414C0EA81FB81309701
:1013400031F060E070E08C819D8109950AC08F8149
:10135000BE01685F7F4F20E040E8CE010E94FD049F
:101360008F83DF91CF9108950F931F93CF93DF93D6
:10137000182F092FEB0180E0673A710508F081E032
:101380004DE450E065E271E00E94DF01AE0160E0F3
:1013900070E0812F902F0E949F1C812F902FDF9152
:1013A000CF911F910F9108951092F70508955F9BBB
:1013B000FECF8CB108955D9BFECF8CB90895E82FC8
:1013C000E295EF70F0E0ED5BFE4FE0815D9BFECFBC
:1013D000ECB9E82FF0E0EF70F070ED5BFE4F80812C
:1013E0005D9BFECF8CB9089520E030E009C0FC0180
:1013F000E20FF31FE0815D9BFECFECB92F5F3F4F03
:1014000026173707A0F3089520E030E050E21DC012
:10141000FC01E20FF31F4081E42FE295EF70F0E052
:10142000ED5BFE4FE0815D9BFECFECB9E42FF0E079
:10143000EF70F070ED5BFE4FE0815D9BFECFECB98D
:101440005D9BFECF5CB92F5F3F4F2617370700F338
:1014500008958091F705482F50E0E8EFF5E020E08F
:1014600030E007C090815D9BFECF9CB92F5F3F4F5E
:10147000319624173507B0F30895E82FF0E0EF70A8
:10148000F070ED5BFE4F80810895CF93DF93DC0118
:10149000E091F70540E450E04E1B5109EB0146177F
:1014A000570708F4EA018E2F90E0AE01BD01885085
:1014B0009A4F0E948D1C8091F7058C0F8093F70541
:1014C000CE01DF91CF910895DC010D900020E9F766
:1014D0001197A81BB90B20E030E01AC0FC01E20F05
:1014E000F31F4081E42FE295EF70F0E0ED5BFE4FDB
:1014F000E0815D9BFECFECB9E42FF0E0EF70F0707F
:10150000ED5BFE4FE0815D9BFECFECB92F5F3F4F5F
:101510002A173B0718F308958091F802882381F475
:1015200081E4E7EFF5E0DF011D928A95E9F7109875
:10153000119A8CE089B988E18AB981E08093F80238
:1015400008959093FB028093FA027093FD026093DA
:10155000FC020895BC01E091FA02F091FB02309781
:1015600029F08091FC029091FD0209950895DF9386
:10157000CF93CDB7DEB728970FB6F894DEBF0FBE76
:10158000CDBF9C01E091FA02F091FB023097A9F0E7
:101590004115510521F44091FC025091FD025887FC
:1015A0004F838091FC029091FD027E836D833A838C
:1015B0002983BE016F5F7F4F099528960FB6F89477
:1015C000DEBF0FBECDBFCF91DF9108951092F9021B
:1015D0009093FB028093FA027093FD026093FC02E9
:1015E00080EAE8E3F6E0DF011D928A95E9F70895C5
:1015F000AC018830910550F429B781E090E002C039
:10160000880F991F4A95E2F7282B29BF0895AC014E
:101610008830910558F429B781E090E002C0880F26
:10162000991F4A95E2F78095822389BF0895282F54
:1016300030E02F713070F901EE0FFF1FEE0FFF1F2A
:10164000E20FF31FE85CF94F808372836183548358
:101650004383C9010895282F30E02F713070F901BC
:10166000EE0FFF1FEE0FFF1FE20FF31FE85CF94FB5
:1016700010821282118214821382C9010895DB0143
:101680009A01482F50E04F715070FA01EE0FFF1F82
:10169000EE0FFF1FE40FF51FE85CF94F8181928187
:1016A0008D939C9383819481D9018D939C938181A7
:1016B0009281892B11F44FEF5FEFCA01089590E0FA
:1016C0008F719070FC01EE0FFF1FEE0FFF1FE80FF0
:1016D000F91FE85CF94F218132812115310521F094
:1016E00083819481F901099508951F920F920FB695
:1016F0000F9211240F900FBE0F901F9018951F92FC
:101700000F920FB60F920BB60F9211242F933F93A7
:101710004F935F936F937F938F939F93AF93BF93F9
:10172000EF93FF9360E070E087E00E945F0BFF9112
:10173000EF91BF91AF919F918F917F916F915F9149
:101740004F913F912F910F900BBE0F900FBE0F90B6
:101750001F9018951F920F920FB60F920BB60F9213
:1017600011242F933F934F935F936F937F938F93A6
:101770009F93AF93BF93EF93FF9360E070E080E19E
:101780000E945F0BFF91EF91BF91AF919F918F915D
:101790007F916F915F914F913F912F910F900BBE71
:1017A0000F900FBE0F901F9018951F920F920FB6BB
:1017B0000F920BB60F9211242F933F934F935F9389
:1017C0006F937F938F939F93AF93BF93EF93FF9309
:1017D00060E070E08FE00E945F0BFF91EF91BF919E
:1017E000AF919F918F917F916F915F914F913F91B9
:1017F0002F910F900BBE0F900FBE0F901F9018955A
:101800001F920F920FB60F920BB60F9211242F93C7
:101810003F934F935F936F937F938F939F93AF9378
:10182000BF93EF93FF9360E070E08EE00E945F0B48
:10183000FF91EF91BF91AF919F918F917F916F91A8
:101840005F914F913F912F910F900BBE0F900FBE64
:101850000F901F9018951F920F920FB60F920BB614
:101860000F9211242F933F934F935F936F937F9326
:101870008F939F93AF93BF93EF93FF9360E070E0DC
:101880008CE00E945F0BFF91EF91BF91AF919F9110
:101890008F917F916F915F914F913F912F910F9019
:1018A0000BBE0F900FBE0F901F9018951F920F92B6
:1018B0000FB60F920BB60F9211242F933F934F93B5
:1018C0005F936F937F938F939F93AF93BF93EF93A8
:1018D000FF9360E070E08AE00E945F0BFF91EF9160
:1018E000BF91AF919F918F917F916F915F914F9138
:1018F0003F912F910F900BBE0F900FBE0F901F9036
:1019000018951F920F920FB60F920BB60F921124DB
:101910002F933F934F935F936F937F938F939F93F7
:10192000AF93BF93EF93FF9360E070E089E00E9474
:101930005F0BFF91EF91BF91AF919F918F917F913D
:101940006F915F914F913F912F910F900BBE0F9030
:101950000FBE0F901F9018951F920F920FB60F9207
:101960000BB60F9211242F933F934F935F936F9376
:101970007F938F939F93AF93BF93EF93FF9360E019
:1019800070E08DE10E945F0BFF91EF91BF91AF91ED
:101990009F918F917F916F915F914F913F912F9187
:1019A0000F900BBE0F900FBE0F901F9018951F92B7
:1019B0000F920FB60F920BB60F9211242F933F93F5
:1019C0004F935F936F937F938F939F93AF93BF9347
:1019D000EF93FF9360E070E08AE10E945F0BFF915C
:1019E000EF91BF91AF919F918F917F916F915F9197
:1019F0004F913F912F910F900BBE0F900FBE0F9004
:101A00001F9018951F920F920FB60F920BB60F9260
:101A100011242F933F934F935F936F937F938F93F3
:101A20009F93AF93BF93EF93FF9360E070E085E1E6
:101A30000E945F0BFF91EF91BF91AF919F918F91AA
:101A40007F916F915F914F913F912F910F900BBEBE
:101A50000F900FBE0F901F9018951F920F920FB608
:101A60000F920BB60F9211242F933F934F935F93D6
:101A70006F937F938F939F93AF93BF93EF93FF9356
:101A800060E070E082E10E945F0BFF91EF91BF91F7
:101A9000AF919F918F917F916F915F914F913F9106
:101AA0002F910F900BBE0F900FBE0F901F901895A7
:101AB0001F920F920FB60F920BB60F9211242F9315
:101AC0003F934F935F936F937F938F939F93AF93C6
:101AD000BF93EF93FF9360E070E083E10E945F0BA0
:101AE000FF91EF91BF91AF919F918F917F916F91F6
:101AF0005F914F913F912F910F900BBE0F900FBEB2
:101B00000F901F9018951F920F920FB60F921124ED
:101B10000F900FBE0F901F9018951F920F920FB647
:101B20000F9211240F900FBE0F901F9018951895CB
:101B30001F920F920FB60F920BB60F9211242F9394
:101B40003F934F935F936F937F938F939F93AF9345
:101B5000BF93EF93FF934EE751E063E571E080E0C0
:101B60000E94DF01FF91EF91BF91AF919F918F9103
:101B70007F916F915F914F913F912F910F900BBE8D
:101B80000F900FBE0F901F901895282F80FF06C052
:101B9000DA9A8091FE0281608093FE0221FF06C0E6
:101BA000D99A8091FE0282608093FE0222FF06C0D5
:101BB000D89A8091FE0284608093FE02089587E0A7
:101BC0000E94C50D08951092FE02D09AD19AD29A21
:101BD00087E00E94C50D0895282F80FF06C0DA987F
:101BE0008091FE028E7F8093FE0221FF06C0D9986D
:101BF0008091FE028D7F8093FE0222FF06C0D8985E
:101C00008091FE028B7F8093FE020895662319F077
:101C10000E94C50D08950E94EC0D0895282F80FFA5
:101C20000BC09091FE0290FF03C0DA989E7F02C025
:101C3000DA9A91609093FE0221FF0BC09091FE0210
:101C400091FF03C0D9989D7F02C0D99A926090936A
:101C5000FE0222FF0DC08091FE0282FF05C0D898CF
:101C60008B7F8093FE020895D89A84608093FE0251
:101C70000895FF920F931F93CF93DF93F82E8B015C
:101C8000EA014115510511F4CFEFDFEF87E00E9423
:101C9000C50D17C08F2D0E940E0E98010EC088EE44
:101CA00093E00000000000000000000000000000C1
:101CB00000000197B1F721503040121613067CF353
:101CC0002197209739F7DF91CF911F910F91FF90C6
:101CD000089560E070E080E090E00E94E60A0E94D3
:101CE000A31508950E94690E0895FC016783568329
:101CF000458320870895FF920F931F93CF93DF931F
:101D0000EC018B01F42E80E090E020E43FE140E024
:101D100050E00E94AF1C40E050E0AFE0B0E0E1E0F6
:101D2000F0E09D01241B350BCF01022E02C0880F6D
:101D3000991F0A94E2F786239723892B31F44F5F8A
:101D40005F4F4031510569F749C01C830B83F8860A
:101D50008881882321F0823009F040C014C02C30E3
:101D6000310510F087E013C02A30310510F086E00D
:101D700018C02830310510F084E01BC02530310533
:101D800048F182E020C02C30310538F085E08F83A7
:101D9000872F869586958D8306C02A30310528F0D9
:101DA00084E08F837D831E8219C02830310540F086
:101DB00083E08F8396E0769567959A95E1F70CC05E
:101DC0002530310538F08F8383E0769567958A95C5
:101DD000E1F702C081E08F837E836D83DF91CF9135
:101DE0001F910F91FF900895FC01808980FF1BC017
:101DF0008081813049F0813028F0823059F0833081
:101E000091F40CC082E007C080E187BF86B7806193
:101E100086BF089580E886BF87BF089580E18093DC
:101E20007C0080937D000895FC018081813081F0E9
:101E3000813028F08230B9F0833071F51DC0858182
:101E400081BF88E083BF83B79781892B83BF24C07C
:101E50008FE590E09BBD8ABD1FBC88E08EBD8EB52E
:101E600085608EBD19C0858183BD88E085BD85B53F
:101E70009781892B85BD10C08FE590E090938700F6
:101E80008093860010928B0088E080938A00809176
:101E90008A00856080938A00808980FF03C0CF011B
:101EA0000E94F40E08950F931F938C010E947B0EE5
:101EB000C8010E94140F1F910F910895FC018089A1
:101EC00080FF16C08081813039F0813040F082304F
:101ED00031F0833069F407C087B78F7E02C087B7BF
:101EE0008D7F87BF089580917D008F7E80937D00D8
:101EF0000895CF93DF93EC01888980FF03C0CE0162
:101F00000E945E0F8881813059F0813028F0823044
:101F100059F0833091F40CC083B7887F83BF0DC024
:101F20008EB5887F8EBD09C085B5887F85BD05C00B
:101F300080918A00887F80938A00DF91CF910895F5
:101F40000E945E0F0895FC01728761875487438762
:101F50000895FC0161830895FC0165870895089543
:101F600080E090E00895FC01268537852095309526
:101F700017861686C9010895FC01E081E13081F0E1
:101F8000E13030F0E230A9F0E330C9F090E022C057
:101F900086B7982F927081FF1DC086B7826007C0F8
:101FA00086B7982F907184FF15C086B7806186BF71
:101FB00011C096B7907871F086B78068F8CF80919D
:101FC0007C00982F907184FF05C080917C00806117
:101FD00080937C00892F089588EE93E00895FC019A
:101FE000218532852115310531F060E070E083856F
:101FF0009485F90109950895CF93DF93EC010E9430
:10200000790F888980FF13C08881813049F0813041
:1020100028F0823039F0833051F406C08FE005C0DB
:102020008CE003C089E001C08AE10E942B0BDF91A4
:10203000CF9108950F93CF93DF93EC0168835A8774
:1020400049873C872B87088B00FF1EC0613061F0F9
:10205000613028F0623069F06330B1F40FC0AC0138
:102060006FEE7FE08FE00EC0AC016FEE7FE08CE0A2
:1020700009C0AC016FEE7FE089E004C0AC016FEEF7
:102080007FE08AE10E94170BCE01DF91CF910F9183
:102090000895FF920F931F93082FF92E162F80E0BB
:1020A000613108F081E046E750E064E771E00E94AA
:1020B000DF01412F50E060E070E0802F9F2D0E94F3
:1020C0009F1C802F9F2D1F910F91FF900895DC0181
:1020D0009091F902992309F4F89416968C91169729
:1020E0002FE730E0281B31091216130674F41696F8
:1020F0008C911697FD01E80FF11D618716968C9162
:1021000016978F5F16968C93169717968C91179744
:10211000882379F48C91882319F0813051F404C01C
:102120005D9BFECF559A05C080919A008062809396
:102130009A009093F902992309F4789412161306E1
:102140001CF02FEF3FEF02C020E030E0C9010895FE
:10215000DC0118962C9118978FE790E0821B91096B
:102160001816190684F418968C9118979CB1FD01E5
:10217000E80FF11DE857FF4F908318968C91189740
:102180008F5F18968C930895DC0117969C91179792
:1021900016968C911697981778F417968C91179736
:1021A000FD01E80FF11D81858CB917968C91179769
:1021B0008F5F17968C930895559816961C921697D4
:1021C00017961C920895DC0118962C9118978FE7AA
:1021D00090E0821B9109181619068CF418968C91C0
:1021E000189790919C00FD01E80FF11DE857FF4FF3
:1021F000908318968C9118978F5F18968C930895FA
:10220000DC0117969C91179716968C911697981744
:1022100080F417968C911797FD01E80FF11D8185C9
:1022200080939C0017968C9117978F5F17968C93CD
:102230000895559816961C92169717961C92089515
:10224000BF92CF92DF92EF92FF920F931F93CF93A3
:10225000DF938C016B017A01B22E8091F902882301
:1022600009F4F8948F5F8093F902F80186814FE7B3
:1022700050E09A01281B31092E153F0528F486816C
:10228000EA01C81BD10901C0E7011C161D0674F440
:10229000F801868190E00996AE01B601800F911F8A
:1022A0000E948D1CF80186818C0F8683F80187813E
:1022B000882379F48081882319F0813051F404C097
:1022C0005D9BFECF559A05C080919A0080628093F5
:1022D0009A008091F90281508093F902882309F4D1
:1022E0007894B0FC16C0F80186818823E1F7CE15FA
:1022F000DF0580F4A7014C1B5D0BCC0DDD1D2B2DE4
:10230000BE01C8010E942011F80186818823E1F7EF
:1023100001C07E01C701DF91CF911F910F91FF9006
:10232000EF90DF90CF90BF900895EF92FF920F93C0
:102330001F93CF93DF93EC019B018091F9028823D7
:1023400009F4F8948F5F8093F902888590E08417F0
:10235000950720F48885082F10E001C08A01011537
:102360001105D1F088E8E82EF12CEC0EFD1EA80135
:10237000B701C9010E948D1C8885801B88878885CC
:10238000882351F04885B80168577F4F6C0F7D1F37
:1023900050E0C7010E948D1C8091F902815080930A
:1023A000F902882309F47894C801DF91CF911F9135
:1023B0000F91FF90EF900895CF93DF93DC01EB0135
:1023C0008091F902882309F4F8948F5F8093F902D1
:1023D00018968C911897882319F42FEF3FEF18C0A7
:1023E000FD01E857FF4F8081888318968C911897DC
:1023F000815018968C93189718964C911897A75758
:10240000BF4F50E0BD01CF010E948D1C20E030E0A5
:102410008091F90281508093F902882309F478941D
:10242000C901DF91CF910895DF93CF930F92CDB77C
:10243000DEB7FC0180858823E9F31982BE016F5F56
:102440007F4FCF010E94DC1189810F90CF91DF91E6
:102450000895FC0110861682E081EE2319F0E13028
:1024600071F407C08EE10E942B0B8FE10E942B0BB1
:1024700008958EE10E942B0B8FE10E942B0B089593
:102480000E9429120895EF920F93CF93DF93EC01EE
:1024900068835A8349832B830C83ED821E821F82BB
:1024A0001886C95FDE4F1992199219821882C95095
:1024B000D140662329F06130F9F0C0E0D0E043C09C
:1024C0001098119A86E94030580729F04050514E33
:1024D00029F488E001C08CE089B901C019B888E905
:1024E0008AB9AE0168EA70E182E10E94170BAE0181
:1024F00064EC70E183E125C09A0140E050E094E093
:10250000220F331F441F551F9A95D1F760E072E1E7
:102510008AE790E00E94EE1C2150109298002093D0
:10252000990088E980939A0086E080939D00AE012F
:1025300063EE70E18EE10E94170BAE0160E071E185
:102540008FE10E94170BCE01DF91CF910F91EF9099
:1025500008950F931F93CF93DF93182F092FEB014B
:1025600080E091E06B30790708F081E044E750E0CB
:1025700061E971E00E94DF01AE0160E070E0812F4F
:10258000902F0E949F1C812F902FDF91CF911F9140
:102590000F910895DA9A0895DA98089529B330E0F2
:1025A000369527953695279521703070C901089585
:1025B000D29A0895D2980895D99A0895D9980895ED
:1025C00029B330E03695279521703070C901089500
:1025D000D19A0895D1980895D89A0895D8980895D1
:1025E00029B330E021703070C9010895D09A089560
:1025F000D0980895DC9A0895DC98089529B330E0C6
:1026000044E0369527954A95E1F721703070C9016D
:102610000895D49A0895D4980895DD9A0895DD9880
:10262000089529B330E055E0369527955A95E1F79E
:1026300021703070C9010895D59A0895D5980895EC
:10264000DF9A0895DF98089529B3332727FD309541
:102650002227330F221F3327C9010895D79A0895DF
:10266000D7980895DE9A0895DE98089529B330E04A
:1026700076E0369527957A95E1F721703070C9019B
:102680000895D69A0895D6980895DD9A0895DD980C
:10269000089529B330E0E5E036952795EA95E1F70E
:1026A00021703070C9010895D59A0895D59808957C
:1026B0001E9A08951E98089521B130E0F6E03695EF
:1026C0002795FA95E1F721703070C9010895169A9F
:1026D000089516980895969A08959698089520B3A7
:1026E00030E0A6E036952795AA95E1F72170307085
:1026F000C90108958E9A08958E980895949A089520
:102700009498089520B330E0B4E036952795BA95B3
:10271000E1F721703070C90108958C9A08958C9862
:102720000895C09A0895C098089526B330E02170A6
:102730003070C9010895B89A0895B8980895C79A55
:102740000895C798089526B3332727FD309522278B
:10275000330F221F3327C9010895BF9A0895BF98E8
:102760000895969A08959698089520B330E096E0DB
:10277000369527959A95E1F721703070C901089533
:102780008E9A08958E980895DB9A0895DB9808959F
:1027900029B330E043E0369527954A95E1F721705B
:1027A0003070C9010895D39A0895D3980895959AE1
:1027B00008959598089520B330E055E03695279513
:1027C0005A95E1F721703070C90108958D9A0895E6
:1027D0008D980895939A08959398089520B330E0C2
:1027E00063E0369527956A95E1F721703070C9014D
:1027F00008958B9A08958B980895929A08959298C7
:10280000089520B330E036952795369527952170A9
:102810003070C90108958A9A08958A9808951C9A7B
:1028200008951C98089521B130E0E4E0369527958D
:10283000EA95E1F721703070C9010895149A08955E
:10284000149808951D9A08951D98089521B130E0B7
:10285000F5E036952795FA95E1F721703070C901BA
:102860000895159A0895159808951E9A08951E982A
:10287000089521B130E0A6E036952795AA95E1F7B5
:1028800021703070C9010895169A08951698089518
:102890001F9A08951F98089521B1332727FD309579
:1028A0002227330F221F3327C9010895179A08954D
:1028B00017980895C29A0895C298089526B330E0F3
:1028C000369527953695279521703070C901089562
:1028D000BA9A0895BA980895C39A0895C398089526
:1028E00026B330E093E0369527959A95E1F721706D
:1028F0003070C9010895BB9A0895BB980895C19A94
:102900000895C198089526B330E036952795217033
:102910003070C9010895B99A0895B9980895A89A90
:102920000895A898089523B330E021703070C9014C
:102930000895A09A0895A0980895A99A0895A9982D
:10294000089523B330E03695279521703070C90182
:102950000895A19A0895A1980895AA9A0895AA9809
:10296000089523B330E03695279536952795217045
:102970003070C9010895A29A0895A2980895AB9A5B
:102980000895AB98089523B330E073E0369527950A
:102990007A95E1F721703070C9010895A39A0895DE
:1029A000A3980895AC9A0895AC98089523B330E0A5
:1029B000E4E036952795EA95E1F721703070C9017A
:1029C0000895A49A0895A4980895AD9A0895AD988D
:1029D000089523B330E0F5E036952795FA95E1F7B1
:1029E00021703070C9010895A59A0895A598089599
:1029F000AE9A0895AE98089523B330E0A6E03695D8
:102A00002795AA95E1F721703070C9010895A69A1B
:102A10000895A6980895AF9A0895AF98089523B39E
:102A2000332727FD30952227330F221F3327C90173
:102A30000895A79A0895A7980895909A0895909850
:102A4000089520B330E021703070C9010895889A4C
:102A5000089588980895919A08959198089520B3BB
:102A600030E03695279521703070C9010895899A14
:102A7000089589980895189A08951898089521B18D
:102A800030E021703070C9010895109A08951098AF
:102A90000895199A08951998089521B130E036954E
:102AA000279521703070C9010895119A08951198E1
:102AB00008951A9A08951A98089521B130E036952C
:102AC00027953695279521703070C9010895129A7F
:102AD000089512980895929A08959298089520B3AF
:102AE00030E0369527953695279521703070C901CD
:102AF00008958A9A08958A980895939A08959398C4
:102B0000089520B330E063E0369527956A95E1F7A4
:102B100021703070C90108958B9A08958B9808959B
:102B2000959A08959598089520B330E075E036950C
:102B300027957A95E1F721703070C90108958D9A33
:102B400008958D980895D29AD09AD19AA79AA69A64
:102B5000A59AA49AA39AA29AA19AA09ABB98BA9A63
:102B6000B99AD69AD59AB89816988E988C98BF9894
:102B70008E98D498DC98D39A8B9A8D9ADB9ADA9AAD
:102B8000D89AD99A0895DF93CF9300D0CDB7DEB706
:102B900081E089831A8220E030E089819A8101975F
:102BA00011F421E030E0C9010F900F90CF91DF9137
:102BB0000895DF93CF9300D0CDB7DEB79C0181E0BD
:102BC00089831A8289819A81019719F0822F232F94
:102BD000382FC9010F900F90CF91DF910895DF93A7
:102BE000CF9300D0CDB7DEB79C0181E089831A82F4
:102BF00089819A81019719F0822F232F382FC901DB
:102C00000F900F90CF91DF910895882309F460E031
:102C1000862F0895442309F420E0662309F420E078
:102C2000882309F420E0822F0895FC01A181B2815C
:102C30001C92148284E086830895FC01148215821C
:102C400084E0868310861782128611861486138686
:102C500016861586108A1786128A118A148A138A94
:102C6000168A158A108E178A128E118E148E138E64
:102C7000168E158E178E11A210A213A212A214A2E4
:102C800016A215A20895DC011196ED91FC91129700
:102C900080818F5F14968C931497FB01808311962B
:102CA0008C91119712969C910895CF92DF92EF929A
:102CB000FF920F931F93CF93DF938C01C62ED42ED8
:102CC0007901DC011196CD91DC911297662369F0B0
:102CD00050E060E070E0CE010E949F1CDA94D88240
:102CE000D394E982FA82B8011BC0442311F4D8803E
:102CF000D3948D2D85508A3710F4B80105C0188201
:102D0000F801148260E070E0D8011196ED91FC9119
:102D10001297928180E02181E22EFF24E82AF92A8D
:102D20006115710509F4ADC0F801D4828E2D87704C
:102D300086832196D087C7832296D287C18723971F
:102D4000CC2009F4A8C01B82A6C02496D8011C96EA
:102D5000DC93CE931B9724971E961C921E921D9770
:102D600050961C921E921F9756E0A8C02496F80118
:102D7000D487C3872296D687C5872697108A178659
:102D800058E09CC02496D8011C96DC93CE931B97E8
:102D90001E961C921E921D9722965096DC93CE93FF
:102DA0001F9726975EE08AC0F801128A118A148A5A
:102DB000138A168A158A94C0CE01850F911DD801F9
:102DC00052969C938E935197252F2E5FCE01820FA2
:102DD000911D54969C938E9353975C5F56961C92CC
:102DE0001E9255977DC0CE01850F911DF801928BE3
:102DF000818B5E5F148A138ACE01850F911D968B9D
:102E0000858B585F6DC0CE01850F911DD8015896F6
:102E10009C938E9357975E5F5A961C921E92599779
:102E20005C961C921E925B975E961C921E925D971A
:102E30005F961C925F97CE01850F911D93969C9390
:102E40008E93929761C0CE01850F911DF80110C03D
:102E5000D80193961C921E92929756C0CE01850F70
:102E6000911DF80191A380A35F5FCE01850F911D95
:102E700093A382A349C084E0D80116968C9360E0A6
:102E800070E0CB01DF91CF911F910F91FF90EF90F8
:102E9000DF90CF900895C70180709C70892F99278B
:102EA000869586958230910509F460CF833091052F
:102EB00009F468CF892B09F448CFE1CFC70184E03A
:102EC000989F812D992711248230910509F474CFA0
:102ED0008330910509F487CF892B09F465CFCFCFD3
:102EE0009701277030702130310509F4ACCF2130C3
:102EF000310508F488CF2230310509F4A9CF2330F9
:102F0000310509F0B8CFAACF9D2D9250892F851B8E
:102F1000F80184A3C90FD11DD6A3C5A3B2CF0F93C7
:102F2000FC01462F058120E030E060E00E9455164C
:102F300020E0892B09F021E0822F0F9108950F9353
:102F40001F93CF93DF938C01EB01FC0184818C8371
:102F500085818D8386818E8318861F821A861986C5
:102F60001C861B861E861D86188A1F861A8A198A49
:102F70001C8A1B8A1E8A1D8A188E1F8A1A8E198E19
:102F80001C8E1B8E1E8E1D8E1F8E19A218A21BA2B8
:102F90001AA21CA21EA21DA220E09B818481981768
:102FA00008F021E04DE052E06DEA71E0822F0E94CE
:102FB000DF01F8014481442359F06181728150E0BE
:102FC00089819A810E948D1C6C81CE010E948F178D
:102FD000F8018481DF91CF911F910F9108950F9394
:102FE0001F93CF93DF93EC018B01FB0184818C83D2
:102FF00085818D8386818E8318861F821A86198625
:103000001C861B861E861D86188A1F861A8A198AA8
:103010001C8A1B8A1E8A1D8A188E1F8A1A8E198E78
:103020001C8E1B8E1E8E1D8E1F8E19A218A21BA217
:103030001AA21CA21EA21DA220E09B8184819817C7
:1030400008F021E044ED51E06DEA71E0822F0E942A
:10305000DF014C81442361F0F8016181728150E00D
:1030600089819A810E948D1C6C81CE010E948F17EC
:103070008C81DF91CF911F910F9108950F93FC01E7
:103080009A010581462F61E00E94551620E0892BA8
:1030900009F021E0822F0F910895CF92DF92EF92F5
:1030A000FF920F931F93CF93DF93EC017B016A0193
:1030B000022F009719F480E090E007C080E090E0D4
:1030C0006832710510F081E090E04BE150E06DEA6C
:1030D00071E00E94DF01A70160E070E0CE010E9474
:1030E0009F1CFE01E882B796FA83E983B7974E2DBD
:1030F00047524B831C8284E08E830D83C114D1041C
:1031000051F08C2D87708E83960161E0CF010E9473
:103110005516FC0101C08E83CF01DF91CF911F9125
:103120000F91FF90EF90DF90CF9008952F923F92F4
:103130004F925F926F927F928F92AF92BF92CF9297
:10314000DF92EF92FF920F931F93CF93DF930E9432
:10315000690E0E94A31588E10FB6F89481BD11BCD9
:103160000FBE0E94E30D81E00E94EC0D60E076E965
:1031700080E00E948C0A67EA70E08FEF92E00E9484
:10318000B4095C016BE071E086EA93E00E94A91249
:103190006C016EE870E081EB94E00E94C1011C01BB
:1031A00061E18FE395E00E9449102C01EE2401E0DB
:1031B00028E040E056E960E0C6010E94431220E0AA
:1031C0004DE150E06EEC71E0C6010E94201100E07C
:1031D00020E030E040E050E060E0C5010E946E0673
:1031E0003C018824AA24BB24CC24DD24720101E004
:1031F00010E021E030E04BE0BC01C1010E9456012B
:103200007C01C3010E946104C3010E94490420E0C3
:1032100040E050E067EA70E080E595E00E944D18DC
:10322000EC01789440E0BE01C7010E948D008093BC
:10323000D8068823B9F38C81882309F43FC08EE334
:103240000E94DB091C81812F82958F700E943D0AAC
:103250000E94DB09812F8F700E943D0A0E94DB09CA
:1032600060E0CE010E948F178823C9F4E985FA85B2
:103270001081812F82958F700E943D0A0E94DB0988
:10328000812F8F700E943D0A0E94DB098AE30E9411
:10329000DB09E981FA81608170E0CF010AC088E52D
:1032A0000E94DB098AE30E94DB096C8170E089815E
:1032B0009A810E94F4098AE00E94DB0981E00E9461
:1032C0000E0EB0CF9093EF018093EE010895089514
:1032D0002091EE013091EF0181E897E6AC01249F47
:1032E000C001259F900D349F900D11248E5C9A4E45
:1032F0009093EF018093EE016FEF7FE70E94DA1C5D
:1033000008951F93182F0E946819612F0E94CE1CE8
:10331000892F1F9108950E9468190895EF92FF92D6
:103320000F931F937B018C010E946819892B19F060
:1033300021E030E007C00E946819009711F081E099
:1033400090E09C01B901882777FD8095982FA8010E
:1033500097010E94EE1C1F910F91FF90EF9008952E
:103360000E946819A0E0B0E0BC01CD010E94781A6B
:1033700020E03EEF4FEF56E40E94CE1908950E94E0
:103380006819A0E0B0E0BC01CD010E94781A20E0ED
:103390003EEF4FEF56E40E94CE190895A8E1B0E049
:1033A000E4EDF9E10C94181D69837A838B839C8387
:1033B0002D833E834F835887B9E0EB2EF12CEC0E22
:1033C000FD1EB701CE0101960E94151C8E010F5EF5
:1033D0001F4FB801CE0105960E94151C2985223089
:1033E00008F47CC03989323010F4B8017AC08A857B
:1033F0009A8989278A87243011F0223031F42317E3
:1034000009F06CC060EF71E06CC0343039F41D8697
:103410001E861F86188A1C861B8604C0323021F443
:1034200084E08987B7015DC02B853C858B899C89A9
:10343000281B390B3C872B87ED84FE840F85188968
:10344000AD88BE88CF88D88CEA14FB040C051D0516
:1034500040F4EE0CFF1C001F111F215030403C8730
:103460002B8720E030E040E050E080E090E0A0E0FA
:10347000B0E46FE170E0EA14FB040C051D0540F0B8
:10348000282B392B4A2B5B2BEA18FB080C091D094A
:10349000B695A79597958795EE0CFF1C001F111FF9
:1034A0006150704041F7DA01C9018F779070A070C8
:1034B000B07080349105A105B10561F427FD0AC003
:1034C000E114F1040105110529F0205C3F4F4F4F35
:1034D0005F4F20782D873E874F87588BBE01675FEF
:1034E0007F4FCB010E94401B6896EAE00C94341D8C
:1034F000A8E0B0E0EEE7FAE10C941A1D7B018C0124
:10350000611571058105910519F482E0898360C018
:1035100083E089838EE1C82ED12CDC82CB82ED82C0
:10352000FE820F831887C801B7010E94F11ABC01FF
:103530006150704077FF39C0EE27FF27E61BF70B7D
:1035400020E030E040E050E081E090E0A0E0B0E03A
:103550000E2E04C0880F991FAA1FBB1F0A94D2F712
:103560000197A109B1098E219F21A023B1230097C2
:10357000A105B10521F021E030E040E050E004C0B9
:1035800016950795F794E794EA95D2F72E293F29E7
:10359000402B512B2D833E834F8358878EE190E043
:1035A000861B970B9C838B8313C06115710581F07B
:1035B000062E04C0EE0CFF1C001F111F0A94D2F748
:1035C000ED82FE820F831887C61AD70ADC82CB826F
:1035D0001A82CE0101960E94401B2896E8E00C94C6
:1035E000361DEF92FF920F931F937B018C0180E0B9
:1035F000E81680E0F80681E0080780E0180788F404
:103600008FEFE816F1040105110531F028F088E08C
:1036100090E0A0E0B0E017C080E090E0A0E0B0E073
:1036200012C080E0E81680E0F80680E0080781E03C
:10363000180728F088E190E0A0E0B0E004C080E145
:1036400090E0A0E0B0E020E230E040E050E0281B55
:10365000390B4A0B5B0B04C016950795F794E7945A
:103660008A95D2F7F701E850FE4F8081281B310977
:1036700041095109C9011F910F91FF90EF900895E1
:10368000DF92EF92FF920F931F93FC01E480F5808D
:1036900006811781D1808081823048F480E090E0FB
:1036A000A0E1B0E0E82AF92A0A2B1B2BA5C0843040
:1036B00009F49FC0823021F4EE24FF24870105C065
:1036C000E114F1040105110519F4E0E0F0E096C001
:1036D000628173819FEF623879070CF05BC022E84A
:1036E0003FEF261B370B2A3131052CF020E030E06C
:1036F00040E050E02AC0B801A701022E04C0769530
:103700006795579547950A94D2F781E090E0A0E03D
:10371000B0E004C0880F991FAA1FBB1F2A95D2F7DB
:103720000197A109B1098E219F21A023B123009700
:10373000A105B10521F081E090E0A0E0B0E09A01A0
:10374000AB01282B392B4A2B5B2BDA01C9018F7770
:103750009070A070B07080349105A105B10539F466
:1037600027FF09C0205C3F4F4F4F5F4F04C0215CD3
:103770003F4F4F4F5F4FE0E0F0E02030A0E03A07CE
:10378000A0E04A07A0E45A0710F0E1E0F0E0790178
:103790008A0127C06038710564F5FB01E158FF4FCD
:1037A000D801C7018F779070A070B07080349105F8
:1037B000A105B10539F4E7FE0DC080E490E0A0E07A
:1037C000B0E004C08FE390E0A0E0B0E0E80EF91EA6
:1037D0000A1F1B1F17FF05C016950795F794E7945E
:1037E000319687E016950795F794E7948A95D1F777
:1037F00005C0EE24FF248701EFEFF0E06E2F679500
:1038000066276795902F9F77D794DD24D7948E2FC6
:103810008695492F462B582F5D29B701CA011F9164
:103820000F91FF90EF90DF900895FC01DB01408144
:1038300051812281622F6F7770E0221F2227221F81
:103840009381892F880F822B282F30E0991F992789
:10385000991F11969C93119721153105A9F54115D2
:1038600051056105710511F482E037C082E89FEFD0
:1038700013969C938E9312979A01AB0167E0220FE7
:10388000331F441F551F6A95D1F783E08C930DC0F9
:10389000220F331F441F551F12968D919C91139731
:1038A000019713969C938E931297203080E03807EF
:1038B00080E0480780E4580758F314962D933D9311
:1038C0004D935C93179708952F3F310579F4411577
:1038D00051056105710519F484E08C93089564FF26
:1038E00003C081E08C9312C01C9210C02F5730404F
:1038F00013963C932E93129783E08C9387E0440FAA
:10390000551F661F771F8A95D1F7706414964D93E3
:103910005D936D937C93179708956817790768F402
:10392000FB01DC01E40FF51FA40FB51F02C00290DC
:103930000E9241505040D8F708950C94A61CDC011B
:1039400001C06D9341505040E0F70895FB01DC0148
:1039500002C001900D9241505040D8F70895629FE7
:10396000D001739FF001829FE00DF11D649FE00D77
:10397000F11D929FF00D839FF00D749FF00D659FD8
:10398000F00D9927729FB00DE11DF91F639FB00DD7
:10399000E11DF91FBD01CF0111240895991B79E0A4
:1039A00004C0991F961708F0961B881F7A95C9F7CF
:1039B00080950895AA1BBB1B51E107C0AA1FBB1F1E
:1039C000A617B70710F0A61BB70B881F991F5A95AB
:1039D000A9F780959095BC01CD010895A1E21A2E1A
:1039E000AA1BBB1BFD010DC0AA1FBB1FEE1FFF1FA3
:1039F000A217B307E407F50720F0A21BB30BE40BF3
:103A0000F50B661F771F881F991F1A9469F7609539
:103A10007095809590959B01AC01BD01CF010895F3
:103A20002F923F924F925F926F927F928F929F92CE
:103A3000AF92BF92CF92DF92EF92FF920F931F93BC
:103A4000CF93DF93CDB7DEB7CA1BDB0B0FB6F8946D
:103A5000DEBF0FBECDBF09942A88398848885F84AD
:103A60006E847D848C849B84AA84B984C884DF801E
:103A7000EE80FD800C811B81AA81B981CE0FD11D02
:103A80000FB6F894DEBF0FBECDBFED010895F894D8
:023A9000FFCF66
:103A92002E2E2F2E2E2F636F6D6D6F6E2F7376630A
:103AA2002F7376635F616C6F68612E63006173735D
:103AB2006572743A002E2E2F2E2E2F636F6D6D6F4E
:103AC2006E2F68616C2F68616C5F636332343230D1
:103AD2002E63003031323334353637383941424380
:103AE2004445462E2E2F2E2E2F636F6D6D6F6E2F37
:103AF20068616C2F68616C5F696E74657272757053
:103B0200742E63002E2E2F2E2E2F636F6D6D6F6E0F
:103B12002F68616C2F68616C5F74696D65722E63CA
:103B2200002E2E2F2E2E2F636F6D6D6F6E2F6861FC
:103B32006C2F68616C5F756172742E63002E2E2F7C
:103B42002E2E2F636F6D6D6F6E2F72746C2F7274C9
:103B52006C5F6F70656E6672616D652E630077656E
:103B62006C636F6D6520746F20616C6F6861207289
:103B720065637620746573742E2E2E00FF7FA3B6C4
:103B82000000000000000000000102020303030322
:103B920004040404040404040505050505050505DB
:103BA20005050505050505050606060606060606BB
:103BB20006060606060606060606060606060606A3
:103BC200060606060606060607070707070707078B
:103BD2000707070707070707070707070707070773
:103BE2000707070707070707070707070707070763
:103BF2000707070707070707070707070707070753
:103C0200070707070707070708080808080808083A
:103C12000808080808080808080808080808080822
:103C22000808080808080808080808080808080812
:103C32000808080808080808080808080808080802
:103C420008080808080808080808080808080808F2
:103C520008080808080808080808080808080808E2
:103C620008080808080808080808080808080808D2
:103C720008080808080808080808080808080808C2
:083C82000808080808080808FA
:00000001FF
