:100000000C9446000C941A040C941A040C943C06AC
:100010000C941A040C941A040C941A040C942404DE
:100020000C9465000C9426050C94FB040C9465005C
:100030000C94D0040C9465000C94A5040C947A04E0
:100040000C944F040C9465000C94D2050C94FD059F
:100050000C9465000C94A7050C9465000C94650045
:100060000C9465000C9465000C947C050C94650060
:100070000C9465000C9451050C9428060C943206DF
:100080000C9465000C9465000C94650011241FBE4F
:10009000CFEFD0E1DEBFCDBF11E0A0E0B1E0E6EFF1
:1000A000FAE100E00BBF02C007900D92AA3EB10733
:1000B000D9F714E0AAEEB1E001C01D92A730B10754
:1000C000E1F70E9467000C94790D0C943D06CF92E5
:1000D000DF92EF92FF920F931F93CF93DF930E94D3
:1000E0007D070E94C30C88E10FB6F89481BD11BC56
:1000F0000FBE0E94880687E00E946A0624EF31E066
:100100000DC0000000000000000000000000000022
:1001100000000197B1F72150304019F088EE93E0CC
:10012000F0CF81E00E94910680E060E076E90E94D5
:1001300031038CEF92E067E20E94B8017C0183E218
:1001400093E063E070E00E945D07EC0181EF91E0D5
:100150006BE071E00E94C9096C01C70160E040E0FA
:1001600050E020E030E000E00E945901CE0160E064
:10017000A7010E944407C60160E040E056E928E07C
:1001800001E0EE240E946409C60160E071E044E1F0
:1001900050E020E00E9442088EE30E948002CE01DF
:1001A0000E940E078C01812F82958F700E94E202BF
:1001B0000E948002812F8F700E94E2020E948002C2
:1001C000C80124E0969587952A95E1F78F700E94E3
:1001D000E2020E948002802F8F700E94E2020E9441
:1001E000800228EE33E00EC0000000000000000096
:1001F00000000000000000000197B1F721503040DE
:1002000009F4CACF88EE93E0EFCF0895FC01808116
:10021000882329F481E087B986B1876E86B908956D
:10022000FC018081882309F4349A0895FC01DB01E4
:100230008081882319F020E030E01FC081E087B979
:1002400086B1876E86B92AE030E00DC0000000005C
:100250000000000000000000000000000197B1F75E
:100260002150304019F088EE93E0F0CF84B18C93A8
:1002700085B111968C9321E030E0C9010895FC010D
:1002800084B1878385B18781878381E086832281DA
:1002900033812115310521F084819581F90109957A
:1002A0000895FC018081882319F485E10E94D00320
:1002B00008950F931F93CF93DF93EC01162F809136
:1002C000EB01882309F4F8948F5F8093EB01188386
:1002D0005B834A833D832C8309831E82133061F143
:1002E000143028F4113041F1123098F409C015305F
:1002F00019F11530B8F01630F9F0173059F51CC067
:100300000E94510B0E94420B86B1867886B917B8BD
:100310001BC00E94510B0E94420B86B1867886B9A1
:1003200082E008C00E94510B0E94420B86B1867881
:1003300086B984E087B908C00E94510B0E94420B25
:1003400086B1867886B917B985E16FE371E0AE01B1
:100350000E94BC038091EB0181508093EB018823C4
:1003600009F47894CE01DF91CF911F910F910895F8
:10037000FF920F931F93082FF92E162F80E06732FC
:1003800008F081E065E171E04BE250E00E94D601A7
:10039000802F9F2D60E070E0412F50E00E94470DBC
:1003A000802F9F2D1F910F91FF900895CF92DF9284
:1003B000EF92FF920F931F938B01882309F092C055
:1003C000C52EC2946FE0C6223FE0D32ED522CA01CB
:1003D00024E0969587952A95E1F79FE0E92EE8229B
:1003E0008FE0F82EF422F89481E491E067E070E069
:1003F0000E949902D8010D900020E9F71197A01BE7
:10040000B10BC8016A2F70E00E94990288E20E9435
:10041000800280E30E94800288E70E9480028C2D87
:100420000E94E2020E9480028D2D0E94E2020E9440
:1004300080028E2D0E94E2020E9480028F2D0E9477
:10044000E2020E94800289E20E94800281E00E9412
:10045000910624EF31E00DC0000000000000000014
:1004600000000000000000000197B1F7215030406B
:1004700019F088EE93E0F0CF81E00E946A0682E0F6
:100480000E94910624EF31E00DC000000000000042
:10049000000000000000000000000197B1F72150AB
:1004A000304019F088EE93E0F0CF82E00E946A06B7
:1004B00084E00E94910624EF31E00DC000000000AE
:1004C0000000000000000000000000000197B1F7EC
:1004D0002150304019F088EE93E0F0CF84E00E9484
:1004E0006A0681CF1F910F91FF90EF90DF90CF9020
:1004F00008951092260308955F9BFECF8CB1089556
:100500005D9BFECF8CB90895E82FE295EF70F0E087
:10051000E75BFE4FE0815D9BFECFECB9E82FF0E09A
:10052000EF70F070E75BFE4F80815D9BFECF8CB972
:10053000089520E030E009C0FC01E20FF31FE081E4
:100540005D9BFECFECB92F5F3F4F26173707A0F317
:10055000089520E030E050E21DC0FC01E20FF31FDF
:100560004081E42FE295EF70F0E0E75BFE4FE08121
:100570005D9BFECFECB9E42FF0E0EF70F070E75B2D
:10058000FE4FE0815D9BFECFECB95D9BFECF5CB979
:100590002F5F3F4F2617370700F3089580912603FA
:1005A000482F50E0E7E2F3E020E030E007C0908120
:1005B0005D9BFECF9CB92F5F3F4F319624173507C7
:1005C000B0F30895E82FF0E0EF70F070E75BFE4FB6
:1005D00080810895CF93DF93DC01E091260340E40E
:1005E00050E04E1B5109EB014617570708F4EA018A
:1005F0008E2F90E0895D9C4FBD01AE010E94350DAC
:10060000809126038C0F80932603CE01DF91CF913A
:100610000895DC010D900020E9F71197A81BB90B94
:1006200020E030E01AC0FC01E20FF31F4081E42F0C
:10063000E295EF70F0E0E75BFE4FE0815D9BFECF5F
:10064000ECB9E42FF0E0EF70F070E75BFE4FE08173
:100650005D9BFECFECB92F5F3F4F2A173B0718F386
:1006600008958091EA01882381F481E4E6E2F3E0D1
:10067000DF011D928A95E9F71098119A8CE089B9EB
:1006800088E18AB981E08093EA0108959093ED01B1
:100690008093EC017093EF016093EE010895BC012B
:1006A000E091EC01F091ED01309729F08091EE019D
:1006B0009091EF0109950895DF93CF93CDB7DEB701
:1006C00028970FB6F894DEBF0FBECDBF9C01E09116
:1006D000EC01F091ED013097A9F04115510521F49D
:1006E0004091EE015091EF0158874F838091EE01C8
:1006F0009091EF017E836D833A832983BE016F5F02
:100700007F4F099528960FB6F894DEBF0FBECDBF78
:10071000CF91DF9108951092EB019093ED018093BA
:10072000EC017093EF016093EE0180EAE7E6F3E0FD
:10073000DF011D928A95E9F70895AC018830910593
:1007400050F429B781E090E002C0880F991F4A95C4
:10075000E2F7282B29BF0895AC018830910558F4A1
:1007600029B781E090E002C0880F991F4A95E2F70F
:100770008095822389BF0895282F30E02F71307033
:10078000F901EE0FFF1FEE0FFF1FE20FF31FE959F4
:10079000FC4F80837283618354834383C90108952E
:1007A000282F30E02F713070F901EE0FFF1FEE0F90
:1007B000FF1FE20FF31FE959FC4F108212821182D2
:1007C00014821382C9010895DB019A01482F50E079
:1007D0004F715070FA01EE0FFF1FEE0FFF1FE40F75
:1007E000F51FE959FC4F818192818D939C93838100
:1007F0009481D9018D939C9381819281892B11F4ED
:100800004FEF5FEFCA01089590E08F719070FC0187
:10081000EE0FFF1FEE0FFF1FE80FF91FE959FC4F06
:10082000218132812115310521F083819481F901E3
:10083000099508951F920F920FB60F9211240F90F1
:100840000FBE0F901F9018951F920F920FB60F9228
:100850000BB60F9211242F933F934F935F936F9397
:100860007F938F939F93AF93BF93EF93FF9387E013
:1008700060E070E00E940404FF91EF91BF91AF919E
:100880009F918F917F916F915F914F913F912F91A8
:100890000F900BBE0F900FBE0F901F9018951F92D8
:1008A0000F920FB60F920BB60F9211242F933F9316
:1008B0004F935F936F937F938F939F93AF93BF9368
:1008C000EF93FF9380E160E070E00E940404FF91E9
:1008D000EF91BF91AF919F918F917F916F915F91B8
:1008E0004F913F912F910F900BBE0F900FBE0F9025
:1008F0001F9018951F920F920FB60F920BB60F9282
:1009000011242F933F934F935F936F937F938F9314
:100910009F93AF93BF93EF93FF938FE060E070E0FE
:100920000E940404FF91EF91BF91AF919F918F912D
:100930007F916F915F914F913F912F910F900BBEDF
:100940000F900FBE0F901F9018951F920F920FB629
:100950000F920BB60F9211242F933F934F935F93F7
:100960006F937F938F939F93AF93BF93EF93FF9377
:100970008EE060E070E00E940404FF91EF91BF916F
:10098000AF919F918F917F916F915F914F913F9127
:100990002F910F900BBE0F900FBE0F901F901895C8
:1009A0001F920F920FB60F920BB60F9211242F9336
:1009B0003F934F935F936F937F938F939F93AF93E7
:1009C000BF93EF93FF938CE060E070E00E9404041B
:1009D000FF91EF91BF91AF919F918F917F916F9117
:1009E0005F914F913F912F910F900BBE0F900FBED3
:1009F0000F901F9018951F920F920FB60F920BB683
:100A00000F9211242F933F934F935F936F937F9394
:100A10008F939F93AF93BF93EF93FF938AE060E030
:100A200070E00E940404FF91EF91BF91AF919F91FC
:100A30008F917F916F915F914F913F912F910F9087
:100A40000BBE0F900FBE0F901F9018951F920F9224
:100A50000FB60F920BB60F9211242F933F934F9323
:100A60005F936F937F938F939F93AF93BF93EF9316
:100A7000FF9389E060E070E00E940404FF91EF9131
:100A8000BF91AF919F918F917F916F915F914F91A6
:100A90003F912F910F900BBE0F900FBE0F901F90A4
:100AA00018951F920F920FB60F920BB60F9211244A
:100AB0002F933F934F935F936F937F938F939F9366
:100AC000AF93BF93EF93FF938DE160E070E00E94DE
:100AD0000404FF91EF91BF91AF919F918F917F910E
:100AE0006F915F914F913F912F910F900BBE0F909F
:100AF0000FBE0F901F9018951F920F920FB60F9276
:100B00000BB60F9211242F933F934F935F936F93E4
:100B10007F938F939F93AF93BF93EF93FF938AE15C
:100B200060E070E00E940404FF91EF91BF91AF91EB
:100B30009F918F917F916F915F914F913F912F91F5
:100B40000F900BBE0F900FBE0F901F9018951F9225
:100B50000F920FB60F920BB60F9211242F933F9363
:100B60004F935F936F937F938F939F93AF93BF93B5
:100B7000EF93FF9385E160E070E00E940404FF9131
:100B8000EF91BF91AF919F918F917F916F915F9105
:100B90004F913F912F910F900BBE0F900FBE0F9072
:100BA0001F9018951F920F920FB60F920BB60F92CF
:100BB00011242F933F934F935F936F937F938F9362
:100BC0009F93AF93BF93EF93FF9382E160E070E058
:100BD0000E940404FF91EF91BF91AF919F918F917B
:100BE0007F916F915F914F913F912F910F900BBE2D
:100BF0000F900FBE0F901F9018951F920F920FB677
:100C00000F920BB60F9211242F933F934F935F9344
:100C10006F937F938F939F93AF93BF93EF93FF93C4
:100C200083E160E070E00E940404FF91EF91BF91C6
:100C3000AF919F918F917F916F915F914F913F9174
:100C40002F910F900BBE0F900FBE0F901F90189515
:100C50001F920F920FB60F9211240F900FBE0F909C
:100C60001F9018951F920F920FB60F9211240F909C
:100C70000FBE0F901F90189518951F920F920FB6E8
:100C80000F920BB60F9211242F933F934F935F93C4
:100C90006F937F938F939F93AF93BF93EF93FF9344
:100CA00080E069E571E046E951E00E94D601FF91DC
:100CB000EF91BF91AF919F918F917F916F915F91D4
:100CC0004F913F912F910F900BBE0F900FBE0F9041
:100CD0001F901895282F80FF06C0DA9A8091F001A6
:100CE00081608093F00121FF06C0D99A8091F001C4
:100CF00082608093F00122FF06C0D89A8091F001B3
:100D000084608093F001089587E00E946A06089548
:100D10001092F001D09AD19AD29A87E00E946A0686
:100D20000895282F80FF06C0DA988091F0018E7F09
:100D30008093F00121FF06C0D9988091F0018D7F4A
:100D40008093F00122FF06C0D8988091F0018B7F3C
:100D50008093F0010895662319F00E946A060895B1
:100D60000E9491060895282F80FF0BC09091F001FA
:100D700090FF03C0DA989E7F02C0DA9A9160909348
:100D8000F00121FF0BC09091F00191FF03C0D998B1
:100D90009D7F02C0D99A92609093F00122FF0DC00E
:100DA0008091F00182FF05C0D8988B7F8093F0017D
:100DB0000895D89A84608093F0010895FF920F936C
:100DC0001F93CF93DF93F82E8B01EA014115510554
:100DD00011F4CFEFDFEF87E00E946A0617C08F2D76
:100DE0000E94B30698010EC088EE93E00000000058
:100DF0000000000000000000000000000197B1F7B3
:100E000021503040121613067CF32197209739F7B2
:100E1000DF91CF911F910F91FF900895EF92FF9274
:100E20000F931F93DF93CF9300D0CDB7DEB78C0124
:100E30001A821982FC01818192810E9406017E0141
:100E40000894E11CF11CF80181819281B70142E014
:100E500020E00E9416018823B1F389819A810F90C6
:100E60000F90CF91DF911F910F91FF90EF90089518
:100E7000FC01818192810E9451010895FC018181D0
:100E800092810E9451010895EF92FF920F937C018D
:100E9000FA01DC016C9312965C934E931197CA0190
:100EA000608140E050E020E030E000E00E94590125
:100EB000C7010F91FF90EF9008950F931F93CF9369
:100EC000DF93182F092FEB0180E06330710508F0E4
:100ED00081E06BE871E04EE250E00E94D601812F84
:100EE000902F60E070E0AE010E94470D812F902F9F
:100EF000DF91CF911F910F91089580E090E060E025
:100F000070E00E948B030E94C30C08950E947D072D
:100F10000895DC019091EB01992309F4F894169659
:100F20008C9116972FE730E0281B31091216130613
:100F300074F416968C911697FD01E80FF11D6187E8
:100F400016968C9116978F5F16968C931697179618
:100F50008C911797882379F48C91882319F081302C
:100F600051F404C05D9BFECF559A05C080919A0054
:100F7000806280939A009093EB01992309F478940E
:100F8000121613061CF02FEF3FEF02C020E030E0F6
:100F9000C9010895DC0118962C9118978FE790E00D
:100FA000821B91091816190684F418968C911897CB
:100FB0009CB1FD01E80FF11DE857FF4F9083189693
:100FC0008C9118978F5F18968C930895DC01179673
:100FD0009C91179716968C911697981778F41796F8
:100FE0008C911797FD01E80FF11D81858CB917963B
:100FF0008C9117978F5F17968C9308955598169636
:101000001C92169717961C920895DC0118962C9145
:1010100018978FE790E0821B9109181619068CF437
:1010200018968C91189790919C00FD01E80FF11D86
:10103000E857FF4F908318968C9118978F5F1896FA
:101040008C930895DC0117969C91179716968C91B6
:101050001697981780F417968C911797FD01E80F53
:10106000F11D818580939C0017968C9117978F5F57
:1010700017968C930895559816961C921697179666
:101080001C920895BF92CF92DF92EF92FF920F933E
:101090001F93CF93DF938C016B017A01B22E809165
:1010A000EB01882309F4F8948F5F8093EB01F8013A
:1010B00086814FE750E09A01281B31092E153F0524
:1010C00028F48681EA01C81BD10901C0E7011C167A
:1010D0001D0674F4F801868190E00996800F911F37
:1010E000B601AE010E94350DF80186818C0F868312
:1010F000F8018781882379F48081882319F0813071
:1011000051F404C05D9BFECF559A05C080919A00B2
:10111000806280939A008091EB0181508093EB0173
:10112000882309F47894B0FC16C0F80186818823DE
:10113000E1F7CE15DF0580F4A7014C1B5D0BC8015C
:10114000CC0DDD1DBE012B2D0E944208F8018681C9
:101150008823E1F701C07E01C701DF91CF911F9184
:101160000F91FF90EF90DF90CF90BF900895EF9296
:10117000FF920F931F93CF93DF93EC018091EB01CC
:10118000882309F4F8948F5F8093EB01888590E0C1
:101190008417950720F48885082F10E001C08A0184
:1011A00001151105D1F088E8E82EF12CEC0EFD1E9A
:1011B000CB01B701A8010E94350D8885801B888767
:1011C0008885882351F0B80168577F4F6C0F7D1FC9
:1011D0004885C70150E00E94350D8091EB01815098
:1011E0008093EB01882309F47894C801DF91CF91B3
:1011F0001F910F91FF90EF900895CF93DF93DC0143
:10120000EB018091EB01882309F4F8948F5F8093C0
:10121000EB0118968C911897882319F42FEF3FEF64
:1012200018C0FD01E857FF4F8081888318968C9184
:101230001897815018968C93189718964C91189778
:10124000CF01A757BF4FBD0150E00E94350D20E0F0
:1012500030E08091EB0181508093EB01882309F409
:101260007894C901DF91CF910895DF93CF930F92C6
:10127000CDB7DEB7FC0180858823E9F31982CF0161
:10128000BE016F5F7F4F0E94FD0889810F90CF9153
:10129000DF910895FC0110861682E081EE2319F09B
:1012A000E13071F407C08EE10E94D0038FE10E940B
:1012B000D00308958EE10E94D0038FE10E94D003F5
:1012C00008950E944A090895EF920F93CF93DF93F8
:1012D000EC0168835A8349832B830C83ED821E8241
:1012E0001F821886C95FDE4F1992199219821882DF
:1012F000C950D140662329F06130F1F0C0E0D0E060
:1013000042C01098119A86E94030580729F04050A1
:10131000514E29F488E001C08CE089B901C019B8A8
:1013200088E98AB982E16AEC77E0AE010E94BC03E9
:1013300083E166EE77E024C09A0140E050E094E05B
:10134000220F331F441F551F9A95D1F760E072E1B9
:101350008AE790E00E94570D215010929800209348
:10136000990088E980939A0086E080939D008EE141
:1013700065E078E0AE010E94BC038FE162E278E0B4
:10138000AE010E94BC03CE01DF91CF910F91EF908F
:1013900008950F931F93CF93DF93182F092FEB011D
:1013A00080E091E06B30790708F081E06DEB71E04F
:1013B00041E750E00E94D601812F902F60E070E05D
:1013C000AE010E94470D812F902FDF91CF911F9189
:1013D0000F910895DA9A0895DA98089529B330E0C4
:1013E000369527953695279521703070C901089557
:1013F000D29A0895D2980895D99A0895D9980895BF
:1014000029B330E03695279521703070C9010895D1
:10141000D19A0895D1980895D89A0895D8980895A2
:1014200029B330E021703070C9010895D09A089531
:10143000D0980895DC9A0895DC98089529B330E097
:1014400044E0369527954A95E1F721703070C9013F
:101450000895D49A0895D4980895DD9A0895DD9852
:10146000089529B330E055E0369527955A95E1F770
:1014700021703070C9010895D59A0895D5980895BE
:10148000DF9A0895DF98089529B3332727FD309513
:101490002227330F221F3327C9010895D79A0895B1
:1014A000D7980895DE9A0895DE98089529B330E01C
:1014B00076E0369527957A95E1F721703070C9016D
:1014C0000895D69A0895D6980895DD9A0895DD98DE
:1014D000089529B330E0E5E036952795EA95E1F7E0
:1014E00021703070C9010895D59A0895D59808954E
:1014F0001E9A08951E98089521B130E0F6E03695C1
:101500002795FA95E1F721703070C9010895169A70
:10151000089516980895969A08959698089520B378
:1015200030E0A6E036952795AA95E1F72170307056
:10153000C90108958E9A08958E980895949A0895F1
:101540009498089520B330E0B4E036952795BA9585
:10155000E1F721703070C90108958C9A08958C9834
:101560000895C09A0895C098089526B330E0217078
:101570003070C9010895B89A0895B8980895C79A27
:101580000895C798089526B3332727FD309522275D
:10159000330F221F3327C9010895BF9A0895BF98BA
:1015A0000895969A08959698089520B330E096E0AD
:1015B000369527959A95E1F721703070C901089505
:1015C0008E9A08958E980895DB9A0895DB98089571
:1015D00029B330E043E0369527954A95E1F721702D
:1015E0003070C9010895D39A0895D3980895959AB3
:1015F00008959598089520B330E055E036952795E5
:101600005A95E1F721703070C90108958D9A0895B7
:101610008D980895939A08959398089520B330E093
:1016200063E0369527956A95E1F721703070C9011E
:1016300008958B9A08958B980895929A0895929898
:10164000089520B330E0369527953695279521707B
:101650003070C90108958A9A08958A9808951C9A4D
:1016600008951C98089521B130E0E4E0369527955F
:10167000EA95E1F721703070C9010895149A089530
:10168000149808951D9A08951D98089521B130E089
:10169000F5E036952795FA95E1F721703070C9018C
:1016A0000895159A0895159808951E9A08951E98FC
:1016B000089521B130E0A6E036952795AA95E1F787
:1016C00021703070C9010895169A089516980895EA
:1016D0001F9A08951F98089521B1332727FD30954B
:1016E0002227330F221F3327C9010895179A08951F
:1016F00017980895C29A0895C298089526B330E0C5
:10170000369527953695279521703070C901089533
:10171000BA9A0895BA980895C39A0895C3980895F7
:1017200026B330E093E0369527959A95E1F721703E
:101730003070C9010895BB9A0895BB980895C19A65
:101740000895C198089526B330E036952795217005
:101750003070C9010895B99A0895B9980895A89A62
:101760000895A898089523B330E021703070C9011E
:101770000895A09A0895A0980895A99A0895A998FF
:10178000089523B330E03695279521703070C90154
:101790000895A19A0895A1980895AA9A0895AA98DB
:1017A000089523B330E03695279536952795217017
:1017B0003070C9010895A29A0895A2980895AB9A2D
:1017C0000895AB98089523B330E073E036952795DC
:1017D0007A95E1F721703070C9010895A39A0895B0
:1017E000A3980895AC9A0895AC98089523B330E077
:1017F000E4E036952795EA95E1F721703070C9014C
:101800000895A49A0895A4980895AD9A0895AD985E
:10181000089523B330E0F5E036952795FA95E1F782
:1018200021703070C9010895A59A0895A59808956A
:10183000AE9A0895AE98089523B330E0A6E03695A9
:101840002795AA95E1F721703070C9010895A69AED
:101850000895A6980895AF9A0895AF98089523B370
:10186000332727FD30952227330F221F3327C90145
:101870000895A79A0895A7980895909A0895909822
:10188000089520B330E021703070C9010895889A1E
:10189000089588980895919A08959198089520B38D
:1018A00030E03695279521703070C9010895899AE6
:1018B000089589980895189A08951898089521B15F
:1018C00030E021703070C9010895109A0895109881
:1018D0000895199A08951998089521B130E0369520
:1018E000279521703070C9010895119A08951198B3
:1018F00008951A9A08951A98089521B130E03695FE
:1019000027953695279521703070C9010895129A50
:10191000089512980895929A08959298089520B380
:1019200030E0369527953695279521703070C9019E
:1019300008958A9A08958A980895939A0895939895
:10194000089520B330E063E0369527956A95E1F776
:1019500021703070C90108958B9A08958B9808956D
:10196000959A08959598089520B330E075E03695DE
:1019700027957A95E1F721703070C90108958D9A05
:1019800008958D980895D29AD09AD19AA79AA69A36
:10199000A59AA49AA39AA29AA19AA09ABB98BA9A35
:1019A000B99AD69AD59AB89816988E988C98BF9866
:1019B0008E98D498DC98D39A8B9A8D9ADB9ADA9A7F
:1019C000D89AD99A0895DF93CF9300D0CDB7DEB7D8
:1019D00081E089831A8220E030E089819A81019731
:1019E00011F421E030E0C9010F900F90CF91DF9109
:1019F0000895DF93CF9300D0CDB7DEB79C0181E08F
:101A000089831A8289819A81019719F0822F232F65
:101A1000382FC9010F900F90CF91DF910895DF9378
:101A2000CF9300D0CDB7DEB79C0181E089831A82C5
:101A300089819A81019719F0822F232F382FC901AC
:101A40000F900F90CF91DF910895813009F461E0FC
:101A5000862F0895413009F421E0613009F421E036
:101A6000813009F421E0822F08956817790768F41E
:101A7000FB01DC01E40FF51FA40FB51F02C00290AB
:101A80000E9241505040D8F708950C944E0DDC0151
:101A900001C06D9341505040E0F70895FB01DC0117
:101AA00002C001900D9241505040D8F70895A1E234
:101AB0001A2EAA1BBB1BFD010DC0AA1FBB1FEE1FC8
:101AC000FF1FA217B307E407F50720F0A21BB30B13
:101AD000E40BF50B661F771F881F991F1A9469F78F
:101AE00060957095809590959B01AC01BD01CF01EB
:061AF0000895F894FFCFF9
:101AF60077656C636F6D6520746F206164635F6CDE
:101B060069676874002E2E2F2E2E2F2E2E2F636FB0
:101B16006D6D6F6E2F6F70656E77736E2F68616C6B
:101B26002F6761696E7A2F68616C5F6164632E63EB
:101B3600006173736572743A00303132333435366E
:101B46003738394142434445462E2E2F2E2E2F2E0E
:101B56002E2F636F6D6D6F6E2F6F70656E77736E60
:101B66002F68616C2F6761696E7A2F68616C5F6997
:101B76006E746572727570742E63002E2E2F2E2E63
:101B86002F2E2E2F636F6D6D6F6E2F6F70656E77B4
:101B9600736E2F68616C2F6761696E7A2F68616C4E
:101BA6005F6C756D696E616E63652E63002E2E2FF8
:101BB6002E2E2F2E2E2F636F6D6D6F6E2F6F70650D
:101BC6006E77736E2F68616C2F6761696E7A2F6806
:0A1BD600616C5F756172742E63008C
:00000001FF
